{
  "contractName": "OpenSourcePizzaOracle",
  "abi": [
    {
      "inputs": [
        {
          "internalType": "address",
          "name": "caller",
          "type": "address"
        }
      ],
      "stateMutability": "nonpayable",
      "type": "constructor"
    },
    {
      "anonymous": false,
      "inputs": [
        {
          "indexed": false,
          "internalType": "uint16",
          "name": "requestID",
          "type": "uint16"
        }
      ],
      "name": "DonateEvent",
      "type": "event"
    },
    {
      "anonymous": false,
      "inputs": [
        {
          "indexed": false,
          "internalType": "uint16",
          "name": "projectID",
          "type": "uint16"
        }
      ],
      "name": "RegisterEvent",
      "type": "event"
    },
    {
      "inputs": [],
      "name": "caller",
      "outputs": [
        {
          "internalType": "address",
          "name": "",
          "type": "address"
        }
      ],
      "stateMutability": "view",
      "type": "function"
    },
    {
      "inputs": [],
      "name": "owner",
      "outputs": [
        {
          "internalType": "address",
          "name": "",
          "type": "address"
        }
      ],
      "stateMutability": "view",
      "type": "function"
    },
    {
      "inputs": [
        {
          "internalType": "uint16",
          "name": "requestID",
          "type": "uint16"
        }
      ],
      "name": "requestDonate",
      "outputs": [],
      "stateMutability": "nonpayable",
      "type": "function"
    },
    {
      "inputs": [
        {
          "internalType": "uint16",
          "name": "projectID",
          "type": "uint16"
        }
      ],
      "name": "requestRegister",
      "outputs": [],
      "stateMutability": "nonpayable",
      "type": "function"
    },
    {
      "inputs": [
        {
          "internalType": "address",
          "name": "c",
          "type": "address"
        }
      ],
      "name": "updateCaller",
      "outputs": [],
      "stateMutability": "nonpayable",
      "type": "function"
    },
    {
      "inputs": [
        {
          "internalType": "uint16",
          "name": "projectID",
          "type": "uint16"
        },
        {
          "internalType": "address",
          "name": "addr",
          "type": "address"
        }
      ],
      "name": "replyRegister",
      "outputs": [],
      "stateMutability": "nonpayable",
      "type": "function"
    },
    {
      "inputs": [
        {
          "internalType": "uint16",
          "name": "projectID",
          "type": "uint16"
        },
        {
          "internalType": "uint16[]",
          "name": "deps",
          "type": "uint16[]"
        },
        {
          "internalType": "bool",
          "name": "isReplace",
          "type": "bool"
        }
      ],
      "name": "replyDonateUpdateDeps",
      "outputs": [],
      "stateMutability": "nonpayable",
      "type": "function"
    },
    {
      "inputs": [
        {
          "internalType": "uint16",
          "name": "requestID",
          "type": "uint16"
        },
        {
          "internalType": "uint256",
          "name": "fromDepIdx",
          "type": "uint256"
        },
        {
          "internalType": "uint256",
          "name": "toDepIdx",
          "type": "uint256"
        }
      ],
      "name": "replyDonateDistribute",
      "outputs": [],
      "stateMutability": "nonpayable",
      "type": "function"
    },
    {
      "inputs": [],
      "name": "shutdown",
      "outputs": [],
      "stateMutability": "nonpayable",
      "type": "function"
    }
  ],
  "bytecode": "0x608060405234801561001057600080fd5b50604051610e01380380610e018339818101604052810190610032919061011e565b80336000806101000a81548173ffffffffffffffffffffffffffffffffffffffff021916908373ffffffffffffffffffffffffffffffffffffffff16021790555080600160006101000a81548173ffffffffffffffffffffffffffffffffffffffff021916908373ffffffffffffffffffffffffffffffffffffffff160217905550505061014b565b600080fd5b600073ffffffffffffffffffffffffffffffffffffffff82169050919050565b60006100eb826100c0565b9050919050565b6100fb816100e0565b811461010657600080fd5b50565b600081519050610118816100f2565b92915050565b600060208284031215610134576101336100bb565b5b600061014284828501610109565b91505092915050565b610ca78061015a6000396000f3fe608060405234801561001057600080fd5b50600436106100935760003560e01c8063ca9b260311610066578063ca9b26031461010a578063cd00a18614610126578063e98e794614610142578063fc0e74d11461015e578063fc9c8d391461016857610093565b806323727d751461009857806386670f2e146100b45780638da5cb5b146100d05780639b9df99b146100ee575b600080fd5b6100b260048036038101906100ad91906107c3565b610186565b005b6100ce60048036038101906100c99190610816565b6102aa565b005b6100d86102e4565b6040516100e59190610884565b60405180910390f35b610108600480360381019061010391906108cb565b610308565b005b610124600480360381019061011f91906108f8565b6103da565b005b610140600480360381019061013b91906109d5565b6104fb565b005b61015c60048036038101906101579190610816565b610622565b005b61016661065c565b005b610170610723565b60405161017d9190610884565b60405180910390f35b60008054906101000a900473ffffffffffffffffffffffffffffffffffffffff1673ffffffffffffffffffffffffffffffffffffffff163373ffffffffffffffffffffffffffffffffffffffff1614610214576040517f08c379a000000000000000000000000000000000000000000000000000000000815260040161020b90610aa6565b60405180910390fd5b600160009054906101000a900473ffffffffffffffffffffffffffffffffffffffff1673ffffffffffffffffffffffffffffffffffffffff1663442e4e138484846040518463ffffffff1660e01b815260040161027393929190610ae4565b600060405180830381600087803b15801561028d57600080fd5b505af11580156102a1573d6000803e3d6000fd5b50505050505050565b7fe4e666bebfe73907c152b79f4773434caa07407680d76809cd63b75bc4caac5d816040516102d99190610b1b565b60405180910390a150565b60008054906101000a900473ffffffffffffffffffffffffffffffffffffffff1681565b60008054906101000a900473ffffffffffffffffffffffffffffffffffffffff1673ffffffffffffffffffffffffffffffffffffffff163373ffffffffffffffffffffffffffffffffffffffff1614610396576040517f08c379a000000000000000000000000000000000000000000000000000000000815260040161038d90610aa6565b60405180910390fd5b80600160006101000a81548173ffffffffffffffffffffffffffffffffffffffff021916908373ffffffffffffffffffffffffffffffffffffffff16021790555050565b60008054906101000a900473ffffffffffffffffffffffffffffffffffffffff1673ffffffffffffffffffffffffffffffffffffffff163373ffffffffffffffffffffffffffffffffffffffff1614610468576040517f08c379a000000000000000000000000000000000000000000000000000000000815260040161045f90610aa6565b60405180910390fd5b600160009054906101000a900473ffffffffffffffffffffffffffffffffffffffff1673ffffffffffffffffffffffffffffffffffffffff1663af64438c83836040518363ffffffff1660e01b81526004016104c5929190610b36565b600060405180830381600087803b1580156104df57600080fd5b505af11580156104f3573d6000803e3d6000fd5b505050505050565b60008054906101000a900473ffffffffffffffffffffffffffffffffffffffff1673ffffffffffffffffffffffffffffffffffffffff163373ffffffffffffffffffffffffffffffffffffffff1614610589576040517f08c379a000000000000000000000000000000000000000000000000000000000815260040161058090610aa6565b60405180910390fd5b600160009054906101000a900473ffffffffffffffffffffffffffffffffffffffff1673ffffffffffffffffffffffffffffffffffffffff166311e48077858585856040518563ffffffff1660e01b81526004016105ea9493929190610c31565b600060405180830381600087803b15801561060457600080fd5b505af1158015610618573d6000803e3d6000fd5b5050505050505050565b7fda9ff91ffb3fb7ecc0fc804eb17887ce89c15d23f18cc63061444cea6924b8b8816040516106519190610b1b565b60405180910390a150565b60008054906101000a900473ffffffffffffffffffffffffffffffffffffffff1673ffffffffffffffffffffffffffffffffffffffff163373ffffffffffffffffffffffffffffffffffffffff16146106ea576040517f08c379a00000000000000000000000000000000000000000000000000000000081526004016106e190610aa6565b60405180910390fd5b60008054906101000a900473ffffffffffffffffffffffffffffffffffffffff1673ffffffffffffffffffffffffffffffffffffffff16ff5b600160009054906101000a900473ffffffffffffffffffffffffffffffffffffffff1681565b600080fd5b600080fd5b600061ffff82169050919050565b61076a81610753565b811461077557600080fd5b50565b60008135905061078781610761565b92915050565b6000819050919050565b6107a08161078d565b81146107ab57600080fd5b50565b6000813590506107bd81610797565b92915050565b6000806000606084860312156107dc576107db610749565b5b60006107ea86828701610778565b93505060206107fb868287016107ae565b925050604061080c868287016107ae565b9150509250925092565b60006020828403121561082c5761082b610749565b5b600061083a84828501610778565b91505092915050565b600073ffffffffffffffffffffffffffffffffffffffff82169050919050565b600061086e82610843565b9050919050565b61087e81610863565b82525050565b60006020820190506108996000830184610875565b92915050565b6108a881610863565b81146108b357600080fd5b50565b6000813590506108c58161089f565b92915050565b6000602082840312156108e1576108e0610749565b5b60006108ef848285016108b6565b91505092915050565b6000806040838503121561090f5761090e610749565b5b600061091d85828601610778565b925050602061092e858286016108b6565b9150509250929050565b600080fd5b600080fd5b600080fd5b60008083601f84011261095d5761095c610938565b5b8235905067ffffffffffffffff81111561097a5761097961093d565b5b60208301915083602082028301111561099657610995610942565b5b9250929050565b60008115159050919050565b6109b28161099d565b81146109bd57600080fd5b50565b6000813590506109cf816109a9565b92915050565b600080600080606085870312156109ef576109ee610749565b5b60006109fd87828801610778565b945050602085013567ffffffffffffffff811115610a1e57610a1d61074e565b5b610a2a87828801610947565b93509350506040610a3d878288016109c0565b91505092959194509250565b600082825260208201905092915050565b7f6f776e6572206f6e6c7900000000000000000000000000000000000000000000600082015250565b6000610a90600a83610a49565b9150610a9b82610a5a565b602082019050919050565b60006020820190508181036000830152610abf81610a83565b9050919050565b610acf81610753565b82525050565b610ade8161078d565b82525050565b6000606082019050610af96000830186610ac6565b610b066020830185610ad5565b610b136040830184610ad5565b949350505050565b6000602082019050610b306000830184610ac6565b92915050565b6000604082019050610b4b6000830185610ac6565b610b586020830184610875565b9392505050565b600082825260208201905092915050565b6000819050919050565b610b8381610753565b82525050565b6000610b958383610b7a565b60208301905092915050565b6000610bb06020840184610778565b905092915050565b6000602082019050919050565b6000610bd18385610b5f565b9350610bdc82610b70565b8060005b85811015610c1557610bf28284610ba1565b610bfc8882610b89565b9750610c0783610bb8565b925050600181019050610be0565b5085925050509392505050565b610c2b8161099d565b82525050565b6000606082019050610c466000830187610ac6565b8181036020830152610c59818587610bc5565b9050610c686040830184610c22565b9594505050505056fea2646970667358221220e2e836caf277916cf998fffa5a40c1e846fc46d58834544b747460190086b4ed64736f6c634300080f0033",
  "immutableReferences": {},
  "source": "// SPDX-License-Identifier: MIT\npragma solidity >=0.4.22 <0.9.0;\n\nimport \"./OSPOracle.sol\";\n\ncontract OpenSourcePizzaOracle is OSPOracle {\n  modifier onlyOwner {\n    require(msg.sender == owner, \"owner only\");\n    _;\n  }\n\n  constructor(address caller) OSPOracle(caller) {}\n\n  function updateCaller(address c) public onlyOwner {\n    caller = c;\n  }\n\n  function replyRegister(uint16 projectID, address addr) override public onlyOwner {\n    OSPOracleClient(caller).registerProject(projectID, addr);\n  }\n\n  function replyDonateUpdateDeps(uint16 projectID, uint16[] calldata deps, bool isReplace) override public onlyOwner {\n    OSPOracleClient(caller).updateDeps(projectID, deps, isReplace);\n  }\n\n  function replyDonateDistribute(uint16 requestID, uint fromDepIdx, uint toDepIdx) override public onlyOwner {\n    OSPOracleClient(caller).distribute(requestID, fromDepIdx, toDepIdx);\n  }\n\n  function shutdown() external onlyOwner {\n    selfdestruct(payable(owner));\n  }\n}\n",
  "sourcePath": "/Users/yinlokwong/Documents/unsw/comp6452/project2/open-source-pizza/contracts/OpenSourcePizzaOracle.sol",
  "compiler": {
    "name": "solc",
    "version": "0.8.15+commit.e14f2714.Emscripten.clang"
  },
  "schemaVersion": "3.4.8",
  "updatedAt": "2022-07-22T00:34:43.855Z",
  "devdoc": {
    "kind": "dev",
    "methods": {},
    "version": 1
  },
  "userdoc": {
    "kind": "user",
    "methods": {},
    "version": 1
  }
}