{
  "contractName": "OpenSourcePizza",
  "abi": [
    {
      "inputs": [],
      "name": "disabled",
      "outputs": [
        {
          "internalType": "bool",
          "name": "",
          "type": "bool"
        }
      ],
      "stateMutability": "view",
      "type": "function"
    },
    {
      "inputs": [
        {
          "internalType": "uint16",
          "name": "",
          "type": "uint16"
        }
      ],
      "name": "distribution",
      "outputs": [
        {
          "internalType": "uint256",
          "name": "",
          "type": "uint256"
        }
      ],
      "stateMutability": "view",
      "type": "function"
    },
    {
      "inputs": [
        {
          "internalType": "uint16",
          "name": "",
          "type": "uint16"
        }
      ],
      "name": "distributionInProgress",
      "outputs": [
        {
          "internalType": "uint8",
          "name": "",
          "type": "uint8"
        }
      ],
      "stateMutability": "view",
      "type": "function"
    },
    {
      "inputs": [
        {
          "internalType": "uint16",
          "name": "",
          "type": "uint16"
        }
      ],
      "name": "fundMigrations",
      "outputs": [
        {
          "internalType": "address",
          "name": "",
          "type": "address"
        }
      ],
      "stateMutability": "view",
      "type": "function"
    },
    {
      "inputs": [],
      "name": "oracle",
      "outputs": [
        {
          "internalType": "address",
          "name": "",
          "type": "address"
        }
      ],
      "stateMutability": "view",
      "type": "function"
    },
    {
      "inputs": [],
      "name": "owner",
      "outputs": [
        {
          "internalType": "address",
          "name": "",
          "type": "address"
        }
      ],
      "stateMutability": "view",
      "type": "function"
    },
    {
      "inputs": [
        {
          "internalType": "uint16",
          "name": "",
          "type": "uint16"
        },
        {
          "internalType": "uint256",
          "name": "",
          "type": "uint256"
        }
      ],
      "name": "projectDependencies",
      "outputs": [
        {
          "internalType": "uint16",
          "name": "",
          "type": "uint16"
        }
      ],
      "stateMutability": "view",
      "type": "function"
    },
    {
      "inputs": [],
      "name": "projectOwnerWeight",
      "outputs": [
        {
          "internalType": "uint8",
          "name": "",
          "type": "uint8"
        }
      ],
      "stateMutability": "view",
      "type": "function"
    },
    {
      "inputs": [
        {
          "internalType": "uint16",
          "name": "",
          "type": "uint16"
        }
      ],
      "name": "projectOwners",
      "outputs": [
        {
          "internalType": "address",
          "name": "",
          "type": "address"
        }
      ],
      "stateMutability": "view",
      "type": "function"
    },
    {
      "inputs": [],
      "name": "singleCallMaxDepsSize",
      "outputs": [
        {
          "internalType": "uint256",
          "name": "",
          "type": "uint256"
        }
      ],
      "stateMutability": "view",
      "type": "function"
    },
    {
      "inputs": [
        {
          "internalType": "uint16",
          "name": "",
          "type": "uint16"
        }
      ],
      "name": "sponsorRequestAmounts",
      "outputs": [
        {
          "internalType": "uint256",
          "name": "",
          "type": "uint256"
        }
      ],
      "stateMutability": "view",
      "type": "function"
    },
    {
      "inputs": [
        {
          "internalType": "uint16",
          "name": "",
          "type": "uint16"
        }
      ],
      "name": "sponsorRequests",
      "outputs": [
        {
          "internalType": "uint16",
          "name": "",
          "type": "uint16"
        }
      ],
      "stateMutability": "view",
      "type": "function"
    },
    {
      "inputs": [
        {
          "internalType": "uint16",
          "name": "",
          "type": "uint16"
        }
      ],
      "name": "undistributedAmounts",
      "outputs": [
        {
          "internalType": "uint256",
          "name": "",
          "type": "uint256"
        }
      ],
      "stateMutability": "view",
      "type": "function"
    },
    {
      "inputs": [
        {
          "internalType": "address",
          "name": "oc",
          "type": "address"
        }
      ],
      "name": "updateOracle",
      "outputs": [],
      "stateMutability": "nonpayable",
      "type": "function"
    },
    {
      "inputs": [
        {
          "internalType": "uint256",
          "name": "size",
          "type": "uint256"
        }
      ],
      "name": "updateSingleCallMaxDepsSize",
      "outputs": [],
      "stateMutability": "nonpayable",
      "type": "function"
    },
    {
      "inputs": [],
      "name": "disableContract",
      "outputs": [],
      "stateMutability": "nonpayable",
      "type": "function"
    },
    {
      "inputs": [],
      "name": "enableContract",
      "outputs": [],
      "stateMutability": "nonpayable",
      "type": "function"
    },
    {
      "inputs": [
        {
          "internalType": "uint16",
          "name": "projectID",
          "type": "uint16"
        }
      ],
      "name": "register",
      "outputs": [],
      "stateMutability": "nonpayable",
      "type": "function"
    },
    {
      "inputs": [
        {
          "internalType": "uint16",
          "name": "projectID",
          "type": "uint16"
        },
        {
          "internalType": "uint16",
          "name": "requestID",
          "type": "uint16"
        }
      ],
      "name": "donateToProject",
      "outputs": [],
      "stateMutability": "payable",
      "type": "function"
    },
    {
      "inputs": [
        {
          "internalType": "uint16",
          "name": "projectID",
          "type": "uint16"
        }
      ],
      "name": "redeem",
      "outputs": [],
      "stateMutability": "payable",
      "type": "function"
    },
    {
      "inputs": [
        {
          "internalType": "uint16",
          "name": "projectID",
          "type": "uint16"
        },
        {
          "internalType": "address",
          "name": "addr",
          "type": "address"
        }
      ],
      "name": "registerProject",
      "outputs": [],
      "stateMutability": "nonpayable",
      "type": "function"
    },
    {
      "inputs": [
        {
          "internalType": "uint16",
          "name": "requestID",
          "type": "uint16"
        },
        {
          "internalType": "uint256",
          "name": "fromDepIdx",
          "type": "uint256"
        },
        {
          "internalType": "uint256",
          "name": "toDepIdx",
          "type": "uint256"
        }
      ],
      "name": "distribute",
      "outputs": [],
      "stateMutability": "nonpayable",
      "type": "function"
    },
    {
      "inputs": [
        {
          "internalType": "uint16",
          "name": "projectID",
          "type": "uint16"
        },
        {
          "internalType": "uint16[]",
          "name": "deps",
          "type": "uint16[]"
        },
        {
          "internalType": "bool",
          "name": "isReplace",
          "type": "bool"
        }
      ],
      "name": "updateDeps",
      "outputs": [],
      "stateMutability": "nonpayable",
      "type": "function"
    },
    {
      "inputs": [
        {
          "internalType": "uint16",
          "name": "projectID",
          "type": "uint16"
        },
        {
          "internalType": "address",
          "name": "mAddr",
          "type": "address"
        }
      ],
      "name": "updateMigrationAddress",
      "outputs": [],
      "stateMutability": "nonpayable",
      "type": "function"
    },
    {
      "inputs": [
        {
          "internalType": "uint16",
          "name": "projectID",
          "type": "uint16"
        }
      ],
      "name": "migrateFunds",
      "outputs": [],
      "stateMutability": "nonpayable",
      "type": "function"
    }
  ],
  "bytecode": "0x608060405260018060146101000a81548160ff0219169083151502179055506032600160156101000a81548160ff021916908360ff160217905550606460025534801561004b57600080fd5b50336000806101000a81548173ffffffffffffffffffffffffffffffffffffffff021916908373ffffffffffffffffffffffffffffffffffffffff1602179055506131d98061009b6000396000f3fe6080604052600436106101665760003560e01c80638da5cb5b116100d1578063b8d7a6241161008a578063c669fa9911610064578063c669fa991461050a578063e5eee3b714610547578063ed007ebb14610570578063ee070805146105ad57610166565b8063b8d7a62414610488578063b95bdf91146104c5578063bb80edb9146104e157610166565b80638da5cb5b146103545780638ec7ee801461037f5780638fa6abbc146103bc5780639a2f16f7146103f9578063a5b3087414610436578063af64438c1461045f57610166565b8063442e4e1311610123578063442e4e13146102565780635cafb53d1461027f5780636a8d7a20146102aa57806378bcb623146102e75780637dc0d1d014610312578063894ba8331461033d57610166565b806307ef7ccc1461016b57806311e48077146101a8578063161231db146101d15780631cb44dfc146101fa578063367edd3214610223578063415814231461023a575b600080fd5b34801561017757600080fd5b50610192600480360381019061018d91906121d1565b6105d8565b60405161019f919061223f565b60405180910390f35b3480156101b457600080fd5b506101cf60048036038101906101ca91906122f7565b61060b565b005b3480156101dd57600080fd5b506101f860048036038101906101f39190612397565b6108b9565b005b34801561020657600080fd5b50610221600480360381019061021c91906123d7565b6109c2565b005b34801561022f57600080fd5b50610238610a94565b005b610254600480360381019061024f9190612404565b610bd0565b005b34801561026257600080fd5b5061027d6004803603810190610278919061247a565b610e6b565b005b34801561028b57600080fd5b5061029461153b565b6040516102a191906124e9565b60405180910390f35b3480156102b657600080fd5b506102d160048036038101906102cc91906121d1565b61154e565b6040516102de9190612513565b60405180910390f35b3480156102f357600080fd5b506102fc611566565b6040516103099190612513565b60405180910390f35b34801561031e57600080fd5b5061032761156c565b604051610334919061223f565b60405180910390f35b34801561034957600080fd5b50610352611592565b005b34801561036057600080fd5b5061036961163c565b604051610376919061223f565b60405180910390f35b34801561038b57600080fd5b506103a660048036038101906103a191906121d1565b611660565b6040516103b3919061253d565b60405180910390f35b3480156103c857600080fd5b506103e360048036038101906103de91906121d1565b611681565b6040516103f0919061223f565b60405180910390f35b34801561040557600080fd5b50610420600480360381019061041b91906121d1565b6116b4565b60405161042d9190612513565b60405180910390f35b34801561044257600080fd5b5061045d60048036038101906104589190612558565b6116cc565b005b34801561046b57600080fd5b5061048660048036038101906104819190612397565b611764565b005b34801561049457600080fd5b506104af60048036038101906104aa91906121d1565b6118a8565b6040516104bc9190612513565b60405180910390f35b6104df60048036038101906104da91906121d1565b6118c0565b005b3480156104ed57600080fd5b50610508600480360381019061050391906121d1565b611b81565b005b34801561051657600080fd5b50610531600480360381019061052c91906121d1565b611be3565b60405161053e91906124e9565b60405180910390f35b34801561055357600080fd5b5061056e600480360381019061056991906121d1565b611c03565b005b34801561057c57600080fd5b5061059760048036038101906105929190612585565b611ef1565b6040516105a4919061253d565b60405180910390f35b3480156105b957600080fd5b506105c2611f38565b6040516105cf91906125d4565b60405180910390f35b600a6020528060005260406000206000915054906101000a900473ffffffffffffffffffffffffffffffffffffffff1681565b600160009054906101000a900473ffffffffffffffffffffffffffffffffffffffff1673ffffffffffffffffffffffffffffffffffffffff163373ffffffffffffffffffffffffffffffffffffffff161461069b576040517f08c379a00000000000000000000000000000000000000000000000000000000081526004016106929061264c565b60405180910390fd5b60001515600160149054906101000a900460ff161515146106f1576040517f08c379a00000000000000000000000000000000000000000000000000000000081526004016106e8906126b8565b60405180910390fd5b600254838390501115610739576040517f08c379a000000000000000000000000000000000000000000000000000000000815260040161073090612724565b60405180910390fd5b6000600860008661ffff1661ffff16815260200190815260200160002060009054906101000a900460ff1660ff16146107a7576040517f08c379a000000000000000000000000000000000000000000000000000000000815260040161079e906127b6565b60405180910390fd5b80806107d157506000600360008661ffff1661ffff16815260200190815260200160002080549050145b15610806578282600360008761ffff1661ffff16815260200190815260200160002091906108009291906120c2565b506108b3565b60005b838390508110156108b157600360008661ffff1661ffff168152602001908152602001600020848483818110610842576108416127d6565b5b905060200201602081019061085791906121d1565b90806001815401808255809150506001900390600052602060002090601091828204019190066002029091909190916101000a81548161ffff021916908361ffff16021790555080806108a990612834565b915050610809565b505b50505050565b813373ffffffffffffffffffffffffffffffffffffffff16600460008361ffff1661ffff16815260200190815260200160002060009054906101000a900473ffffffffffffffffffffffffffffffffffffffff1673ffffffffffffffffffffffffffffffffffffffff1614610963576040517f08c379a000000000000000000000000000000000000000000000000000000000815260040161095a906128c8565b60405180910390fd5b81600a60008561ffff1661ffff16815260200190815260200160002060006101000a81548173ffffffffffffffffffffffffffffffffffffffff021916908373ffffffffffffffffffffffffffffffffffffffff160217905550505050565b60008054906101000a900473ffffffffffffffffffffffffffffffffffffffff1673ffffffffffffffffffffffffffffffffffffffff163373ffffffffffffffffffffffffffffffffffffffff1614610a50576040517f08c379a0000000000000000000000000000000000000000000000000000000008152600401610a4790612934565b60405180910390fd5b80600160006101000a81548173ffffffffffffffffffffffffffffffffffffffff021916908373ffffffffffffffffffffffffffffffffffffffff16021790555050565b60008054906101000a900473ffffffffffffffffffffffffffffffffffffffff1673ffffffffffffffffffffffffffffffffffffffff163373ffffffffffffffffffffffffffffffffffffffff1614610b22576040517f08c379a0000000000000000000000000000000000000000000000000000000008152600401610b1990612934565b60405180910390fd5b600073ffffffffffffffffffffffffffffffffffffffff16600160009054906101000a900473ffffffffffffffffffffffffffffffffffffffff1673ffffffffffffffffffffffffffffffffffffffff1603610bb3576040517f08c379a0000000000000000000000000000000000000000000000000000000008152600401610baa906129a0565b60405180910390fd5b6000600160146101000a81548160ff021916908315150217905550565b60001515600160149054906101000a900460ff16151514610c26576040517f08c379a0000000000000000000000000000000000000000000000000000000008152600401610c1d906126b8565b60405180910390fd5b60003411610c69576040517f08c379a0000000000000000000000000000000000000000000000000000000008152600401610c6090612a0c565b60405180910390fd5b60008261ffff1611610cb0576040517f08c379a0000000000000000000000000000000000000000000000000000000008152600401610ca790612a9e565b60405180910390fd5b600061ffff16600560008361ffff1661ffff16815260200190815260200160002060009054906101000a900461ffff1661ffff1614610d24576040517f08c379a0000000000000000000000000000000000000000000000000000000008152600401610d1b90612b0a565b60405180910390fd5b600061ffff16600660008361ffff1661ffff1681526020019081526020016000205414610d86576040517f08c379a0000000000000000000000000000000000000000000000000000000008152600401610d7d90612b0a565b60405180910390fd5b600061ffff16600760008361ffff1661ffff1681526020019081526020016000205414610de8576040517f08c379a0000000000000000000000000000000000000000000000000000000008152600401610ddf90612b0a565b60405180910390fd5b81600560008361ffff1661ffff16815260200190815260200160002060006101000a81548161ffff021916908361ffff16021790555034600660008361ffff1661ffff1681526020019081526020016000208190555034600760008361ffff1661ffff16815260200190815260200160002081905550610e6781611f4b565b5050565b600160009054906101000a900473ffffffffffffffffffffffffffffffffffffffff1673ffffffffffffffffffffffffffffffffffffffff163373ffffffffffffffffffffffffffffffffffffffff1614610efb576040517f08c379a0000000000000000000000000000000000000000000000000000000008152600401610ef29061264c565b60405180910390fd5b60001515600160149054906101000a900460ff16151514610f51576040517f08c379a0000000000000000000000000000000000000000000000000000000008152600401610f48906126b8565b60405180910390fd5b6000600560008561ffff1661ffff16815260200190815260200160002060009054906101000a900461ffff1661ffff1611610fc1576040517f08c379a0000000000000000000000000000000000000000000000000000000008152600401610fb890612b76565b60405180910390fd5b6000600660008561ffff1661ffff168152602001908152602001600020541161101f576040517f08c379a000000000000000000000000000000000000000000000000000000000815260040161101690612b76565b60405180910390fd5b6000600760008561ffff1661ffff168152602001908152602001600020541161107d576040517f08c379a000000000000000000000000000000000000000000000000000000000815260040161107490612b76565b60405180910390fd5b6000600560008561ffff1661ffff16815260200190815260200160002060009054906101000a900461ffff169050600082036110e557600092506001600360008361ffff1661ffff168152602001908152602001600020805490506110e29190612b96565b91505b600254600184846110f69190612b96565b6111009190612bca565b1115611141576040517f08c379a000000000000000000000000000000000000000000000000000000000815260040161113890612724565b60405180910390fd5b6001600860008361ffff1661ffff16815260200190815260200160002060008282829054906101000a900460ff166111799190612c20565b92506101000a81548160ff021916908360ff1602179055506000600760008661ffff1661ffff1681526020019081526020016000205490506000600360008461ffff1661ffff168152602001908152602001600020805490506064600160159054906101000a900460ff1660646111f09190612c57565b60ff16600660008a61ffff1661ffff168152602001908152602001600020546112199190612c8b565b6112239190612d14565b61122d9190612d14565b905060008590505b848111611389576000600360008661ffff1661ffff168152602001908152602001600020828154811061126b5761126a6127d6565b5b90600052602060002090601091828204019190066002029054906101000a900461ffff1690506000806112b9600960008561ffff1661ffff1681526020019081526020016000205486611fdb565b91509150816112fd576040517f08c379a00000000000000000000000000000000000000000000000000000000081526004016112f490612d91565b60405180910390fd5b80600960008561ffff1661ffff1681526020019081526020016000208190555060008061132a888861200a565b915091508161136e576040517f08c379a000000000000000000000000000000000000000000000000000000000815260040161136590612e23565b60405180910390fd5b8097505050505050808061138190612834565b915050611235565b5081600760008861ffff1661ffff168152602001908152602001600020819055506001600360008561ffff1661ffff168152602001908152602001600020805490506113d59190612b96565b840361153357600080611403600960008761ffff1661ffff1681526020019081526020016000205485611fdb565b9150915081611447576040517f08c379a000000000000000000000000000000000000000000000000000000000815260040161143e90612eb5565b60405180910390fd5b80600960008761ffff1661ffff168152602001908152602001600020819055506000600560008a61ffff1661ffff16815260200190815260200160002060006101000a81548161ffff021916908361ffff1602179055506000600660008a61ffff1661ffff168152602001908152602001600020819055506000600760008a61ffff1661ffff168152602001908152602001600020819055506001600860008761ffff1661ffff16815260200190815260200160002060008282829054906101000a900460ff166115189190612c57565b92506101000a81548160ff021916908360ff16021790555050505b505050505050565b600160159054906101000a900460ff1681565b60096020528060005260406000206000915090505481565b60025481565b600160009054906101000a900473ffffffffffffffffffffffffffffffffffffffff1681565b60008054906101000a900473ffffffffffffffffffffffffffffffffffffffff1673ffffffffffffffffffffffffffffffffffffffff163373ffffffffffffffffffffffffffffffffffffffff1614611620576040517f08c379a000000000000000000000000000000000000000000000000000000000815260040161161790612934565b60405180910390fd5b60018060146101000a81548160ff021916908315150217905550565b60008054906101000a900473ffffffffffffffffffffffffffffffffffffffff1681565b60056020528060005260406000206000915054906101000a900461ffff1681565b60046020528060005260406000206000915054906101000a900473ffffffffffffffffffffffffffffffffffffffff1681565b60066020528060005260406000206000915090505481565b60008054906101000a900473ffffffffffffffffffffffffffffffffffffffff1673ffffffffffffffffffffffffffffffffffffffff163373ffffffffffffffffffffffffffffffffffffffff161461175a576040517f08c379a000000000000000000000000000000000000000000000000000000000815260040161175190612934565b60405180910390fd5b8060028190555050565b600160009054906101000a900473ffffffffffffffffffffffffffffffffffffffff1673ffffffffffffffffffffffffffffffffffffffff163373ffffffffffffffffffffffffffffffffffffffff16146117f4576040517f08c379a00000000000000000000000000000000000000000000000000000000081526004016117eb9061264c565b60405180910390fd5b60001515600160149054906101000a900460ff1615151461184a576040517f08c379a0000000000000000000000000000000000000000000000000000000008152600401611841906126b8565b60405180910390fd5b80600460008461ffff1661ffff16815260200190815260200160002060006101000a81548173ffffffffffffffffffffffffffffffffffffffff021916908373ffffffffffffffffffffffffffffffffffffffff1602179055505050565b60076020528060005260406000206000915090505481565b60001515600160149054906101000a900460ff16151514611916576040517f08c379a000000000000000000000000000000000000000000000000000000000815260040161190d906126b8565b60405180910390fd5b803373ffffffffffffffffffffffffffffffffffffffff16600460008361ffff1661ffff16815260200190815260200160002060009054906101000a900473ffffffffffffffffffffffffffffffffffffffff1673ffffffffffffffffffffffffffffffffffffffff16146119c0576040517f08c379a00000000000000000000000000000000000000000000000000000000081526004016119b7906128c8565b60405180910390fd5b6000600960008461ffff1661ffff1681526020019081526020016000205411611a1e576040517f08c379a0000000000000000000000000000000000000000000000000000000008152600401611a1590612f21565b60405180910390fd5b6000600960008461ffff1661ffff168152602001908152602001600020549050600080611a66600960008761ffff1661ffff168152602001908152602001600020548461200a565b9150915081611aaa576040517f08c379a0000000000000000000000000000000000000000000000000000000008152600401611aa190612f8d565b60405180910390fd5b80600960008761ffff1661ffff168152602001908152602001600020819055506000803373ffffffffffffffffffffffffffffffffffffffff1685604051611af190612fde565b60006040518083038185875af1925050503d8060008114611b2e576040519150601f19603f3d011682016040523d82523d6000602084013e611b33565b606091505b509150915081611b78576040517f08c379a0000000000000000000000000000000000000000000000000000000008152600401611b6f9061303f565b60405180910390fd5b50505050505050565b60001515600160149054906101000a900460ff16151514611bd7576040517f08c379a0000000000000000000000000000000000000000000000000000000008152600401611bce906126b8565b60405180910390fd5b611be081612032565b50565b60086020528060005260406000206000915054906101000a900460ff1681565b60008054906101000a900473ffffffffffffffffffffffffffffffffffffffff1673ffffffffffffffffffffffffffffffffffffffff163373ffffffffffffffffffffffffffffffffffffffff1614611c91576040517f08c379a0000000000000000000000000000000000000000000000000000000008152600401611c8890612934565b60405180910390fd5b600160149054906101000a900460ff16611ce0576040517f08c379a0000000000000000000000000000000000000000000000000000000008152600401611cd7906130ab565b60405180910390fd5b6000600960008361ffff1661ffff1681526020019081526020016000205411611d3e576040517f08c379a0000000000000000000000000000000000000000000000000000000008152600401611d3590612f21565b60405180910390fd5b600073ffffffffffffffffffffffffffffffffffffffff16600a60008361ffff1661ffff16815260200190815260200160002060009054906101000a900473ffffffffffffffffffffffffffffffffffffffff1673ffffffffffffffffffffffffffffffffffffffff1603611de8576040517f08c379a0000000000000000000000000000000000000000000000000000000008152600401611ddf90613117565b60405180910390fd5b600080600a60008461ffff1661ffff16815260200190815260200160002060009054906101000a900473ffffffffffffffffffffffffffffffffffffffff1673ffffffffffffffffffffffffffffffffffffffff16600960008561ffff1661ffff16815260200190815260200160002054604051611e6590612fde565b60006040518083038185875af1925050503d8060008114611ea2576040519150601f19603f3d011682016040523d82523d6000602084013e611ea7565b606091505b509150915081611eec576040517f08c379a0000000000000000000000000000000000000000000000000000000008152600401611ee390613183565b60405180910390fd5b505050565b60036020528160005260406000208181548110611f0d57600080fd5b9060005260206000209060109182820401919006600202915091509054906101000a900461ffff1681565b600160149054906101000a900460ff1681565b600160009054906101000a900473ffffffffffffffffffffffffffffffffffffffff1673ffffffffffffffffffffffffffffffffffffffff166386670f2e826040518263ffffffff1660e01b8152600401611fa6919061253d565b600060405180830381600087803b158015611fc057600080fd5b505af1158015611fd4573d6000803e3d6000fd5b5050505050565b6000806000838501905084811015611ffa576000809250925050612003565b60018192509250505b9250929050565b60008083831115612021576000809150915061202b565b6001838503915091505b9250929050565b600160009054906101000a900473ffffffffffffffffffffffffffffffffffffffff1673ffffffffffffffffffffffffffffffffffffffff1663e98e7946826040518263ffffffff1660e01b815260040161208d919061253d565b600060405180830381600087803b1580156120a757600080fd5b505af11580156120bb573d6000803e3d6000fd5b5050505050565b82805482825590600052602060002090600f0160109004810192821561215f5791602002820160005b8382111561212f57833561ffff1683826101000a81548161ffff021916908361ffff16021790555092602001926002016020816001010492830192600103026120eb565b801561215d5782816101000a81549061ffff021916905560020160208160010104928301926001030261212f565b505b50905061216c9190612170565b5090565b5b80821115612189576000816000905550600101612171565b5090565b600080fd5b600080fd5b600061ffff82169050919050565b6121ae81612197565b81146121b957600080fd5b50565b6000813590506121cb816121a5565b92915050565b6000602082840312156121e7576121e661218d565b5b60006121f5848285016121bc565b91505092915050565b600073ffffffffffffffffffffffffffffffffffffffff82169050919050565b6000612229826121fe565b9050919050565b6122398161221e565b82525050565b60006020820190506122546000830184612230565b92915050565b600080fd5b600080fd5b600080fd5b60008083601f84011261227f5761227e61225a565b5b8235905067ffffffffffffffff81111561229c5761229b61225f565b5b6020830191508360208202830111156122b8576122b7612264565b5b9250929050565b60008115159050919050565b6122d4816122bf565b81146122df57600080fd5b50565b6000813590506122f1816122cb565b92915050565b600080600080606085870312156123115761231061218d565b5b600061231f878288016121bc565b945050602085013567ffffffffffffffff8111156123405761233f612192565b5b61234c87828801612269565b9350935050604061235f878288016122e2565b91505092959194509250565b6123748161221e565b811461237f57600080fd5b50565b6000813590506123918161236b565b92915050565b600080604083850312156123ae576123ad61218d565b5b60006123bc858286016121bc565b92505060206123cd85828601612382565b9150509250929050565b6000602082840312156123ed576123ec61218d565b5b60006123fb84828501612382565b91505092915050565b6000806040838503121561241b5761241a61218d565b5b6000612429858286016121bc565b925050602061243a858286016121bc565b9150509250929050565b6000819050919050565b61245781612444565b811461246257600080fd5b50565b6000813590506124748161244e565b92915050565b6000806000606084860312156124935761249261218d565b5b60006124a1868287016121bc565b93505060206124b286828701612465565b92505060406124c386828701612465565b9150509250925092565b600060ff82169050919050565b6124e3816124cd565b82525050565b60006020820190506124fe60008301846124da565b92915050565b61250d81612444565b82525050565b60006020820190506125286000830184612504565b92915050565b61253781612197565b82525050565b6000602082019050612552600083018461252e565b92915050565b60006020828403121561256e5761256d61218d565b5b600061257c84828501612465565b91505092915050565b6000806040838503121561259c5761259b61218d565b5b60006125aa858286016121bc565b92505060206125bb85828601612465565b9150509250929050565b6125ce816122bf565b82525050565b60006020820190506125e960008301846125c5565b92915050565b600082825260208201905092915050565b7f6f7261636c65206f6e6c79000000000000000000000000000000000000000000600082015250565b6000612636600b836125ef565b915061264182612600565b602082019050919050565b6000602082019050818103600083015261266581612629565b9050919050565b7f636f6e74726163742069732064697361626c6564000000000000000000000000600082015250565b60006126a26014836125ef565b91506126ad8261266c565b602082019050919050565b600060208201905081810360008301526126d181612695565b9050919050565b7f6465702073697a65206973206f76657220616c6c6f7765642073697a65000000600082015250565b600061270e601d836125ef565b9150612719826126d8565b602082019050919050565b6000602082019050818103600083015261273d81612701565b9050919050565b7f73706f6e736f727368697020646973747269627574696f6e20696e2070726f6760008201527f7265737320666f722070726f6a65637400000000000000000000000000000000602082015250565b60006127a06030836125ef565b91506127ab82612744565b604082019050919050565b600060208201905081810360008301526127cf81612793565b9050919050565b7f4e487b7100000000000000000000000000000000000000000000000000000000600052603260045260246000fd5b7f4e487b7100000000000000000000000000000000000000000000000000000000600052601160045260246000fd5b600061283f82612444565b91507fffffffffffffffffffffffffffffffffffffffffffffffffffffffffffffffff820361287157612870612805565b5b600182019050919050565b7f70726f6a656374206f776e6572206f6e6c790000000000000000000000000000600082015250565b60006128b26012836125ef565b91506128bd8261287c565b602082019050919050565b600060208201905081810360008301526128e1816128a5565b9050919050565b7f6f776e6572206f6e6c7900000000000000000000000000000000000000000000600082015250565b600061291e600a836125ef565b9150612929826128e8565b602082019050919050565b6000602082019050818103600083015261294d81612911565b9050919050565b7f6f7261636c65206973206d697373696e67000000000000000000000000000000600082015250565b600061298a6011836125ef565b915061299582612954565b602082019050919050565b600060208201905081810360008301526129b98161297d565b9050919050565b7f6e6f2066756e6420746f20646f6e617465000000000000000000000000000000600082015250565b60006129f66011836125ef565b9150612a01826129c0565b602082019050919050565b60006020820190508181036000830152612a25816129e9565b9050919050565b7f70726f6a65637449442073686f756c64206265206c6172676572207468616e2060008201527f3000000000000000000000000000000000000000000000000000000000000000602082015250565b6000612a886021836125ef565b9150612a9382612a2c565b604082019050919050565b60006020820190508181036000830152612ab781612a7b565b9050919050565b7f6578697374696e672073706f6e736f7273686970207265717565737400000000600082015250565b6000612af4601c836125ef565b9150612aff82612abe565b602082019050919050565b60006020820190508181036000830152612b2381612ae7565b9050919050565b7f696e76616c69642073706f6e736f727368697020726571756573740000000000600082015250565b6000612b60601b836125ef565b9150612b6b82612b2a565b602082019050919050565b60006020820190508181036000830152612b8f81612b53565b9050919050565b6000612ba182612444565b9150612bac83612444565b925082821015612bbf57612bbe612805565b5b828203905092915050565b6000612bd582612444565b9150612be083612444565b9250827fffffffffffffffffffffffffffffffffffffffffffffffffffffffffffffffff03821115612c1557612c14612805565b5b828201905092915050565b6000612c2b826124cd565b9150612c36836124cd565b92508260ff03821115612c4c57612c4b612805565b5b828201905092915050565b6000612c62826124cd565b9150612c6d836124cd565b925082821015612c8057612c7f612805565b5b828203905092915050565b6000612c9682612444565b9150612ca183612444565b9250817fffffffffffffffffffffffffffffffffffffffffffffffffffffffffffffffff0483118215151615612cda57612cd9612805565b5b828202905092915050565b7f4e487b7100000000000000000000000000000000000000000000000000000000600052601260045260246000fd5b6000612d1f82612444565b9150612d2a83612444565b925082612d3a57612d39612ce5565b5b828204905092915050565b7f646973747269627574652062616c616e6365206572726f720000000000000000600082015250565b6000612d7b6018836125ef565b9150612d8682612d45565b602082019050919050565b60006020820190508181036000830152612daa81612d6e565b9050919050565b7f63616c63756c6174652072656d61696e696e672062616c616e6365206572726f60008201527f7200000000000000000000000000000000000000000000000000000000000000602082015250565b6000612e0d6021836125ef565b9150612e1882612db1565b604082019050919050565b60006020820190508181036000830152612e3c81612e00565b9050919050565b7f646973747269627574652072656d61696e696e672062616c616e63652065727260008201527f6f72000000000000000000000000000000000000000000000000000000000000602082015250565b6000612e9f6022836125ef565b9150612eaa82612e43565b604082019050919050565b60006020820190508181036000830152612ece81612e92565b9050919050565b7f6e6f2066756e6420666f722070726f6a65637400000000000000000000000000600082015250565b6000612f0b6013836125ef565b9150612f1682612ed5565b602082019050919050565b60006020820190508181036000830152612f3a81612efe565b9050919050565b7f73756274726163742062616c616e6365206572726f7200000000000000000000600082015250565b6000612f776016836125ef565b9150612f8282612f41565b602082019050919050565b60006020820190508181036000830152612fa681612f6a565b9050919050565b600081905092915050565b50565b6000612fc8600083612fad565b9150612fd382612fb8565b600082019050919050565b6000612fe982612fbb565b9150819050919050565b7f72656465656d207472616e73616374696f6e206572726f720000000000000000600082015250565b60006130296018836125ef565b915061303482612ff3565b602082019050919050565b600060208201905081810360008301526130588161301c565b9050919050565b7f7768656e20636f6e74726163742069732064697361626c6564206f6e6c790000600082015250565b6000613095601e836125ef565b91506130a08261305f565b602082019050919050565b600060208201905081810360008301526130c481613088565b9050919050565b7f696e76616c6964206d6967726174696f6e206164647265737300000000000000600082015250565b60006131016019836125ef565b915061310c826130cb565b602082019050919050565b60006020820190508181036000830152613130816130f4565b9050919050565b7f66756e64206d6967726174696f6e206572726f72000000000000000000000000600082015250565b600061316d6014836125ef565b915061317882613137565b602082019050919050565b6000602082019050818103600083015261319c81613160565b905091905056fea264697066735822122041ac8313f933beb870d102ffb12963df586ca4b95a64b021269cf18e8db044b764736f6c634300080f0033",
  "immutableReferences": {},
  "source": "// SPDX-License-Identifier: MIT\npragma solidity >=0.4.22 <0.9.0;\n\nimport \"./OSPOracle.sol\";\n\nimport \"@openzeppelin/contracts/utils/math/SafeMath.sol\";\n\ncontract OpenSourcePizza is OSPOracleClient {\n  bool public disabled = true;\n\n  uint8 public projectOwnerWeight = 50;\n  uint public singleCallMaxDepsSize = 100;\n\n  // projectID to projectIDs mapping for project dependencies.\n  mapping(uint16 => uint16[]) public projectDependencies;\n\n  /// projectID to project owner address mapping.\n  mapping(uint16 => address) public projectOwners;\n\n  /// requestID to projectID mapping.\n  mapping(uint16 => uint16) public sponsorRequests;\n  /// requestID to total sponsor amount mapping.\n  mapping(uint16 => uint256) public sponsorRequestAmounts;\n  /// requestID to remaining undistributed amount mapping.\n  mapping(uint16 => uint256) public undistributedAmounts;\n  /// projectIDs mapping for projects that are in the process of fund distribution, value in # of distribution currently in process.\n  mapping(uint16 => uint8) public distributionInProgress;\n\n  mapping(uint16 => uint256) public distribution;\n\n  /// Addresses for locked project fund to be transferred out in case of contract migration.\n  mapping(uint16 => address) public fundMigrations;\n\n  modifier onlyOwner {\n    require(msg.sender == owner, \"owner only\");\n    _;\n  }\n\n  modifier onlyOracle {\n    require(msg.sender == oracle, \"oracle only\");\n    _;\n  }\n\n  modifier onlyProjectOwner(uint16 projectID) {\n    require(projectOwners[projectID] == msg.sender, \"project owner only\");\n    _;\n  }\n\n  modifier onlyEnabled {\n    require(disabled == false, \"contract is disabled\");\n    _;\n  }\n\n  function updateOracle(address oc) override public onlyOwner {\n    oracle = oc;\n  }\n\n  function updateSingleCallMaxDepsSize(uint size) public onlyOwner {\n    singleCallMaxDepsSize = size;\n  }\n\n  function disableContract() public onlyOwner {\n    disabled = true;\n  }\n\n  function enableContract() public onlyOwner {\n    require(oracle != address(0), \"oracle is missing\");\n    disabled = false;\n  }\n\n  function register(uint16 projectID) public onlyEnabled {\n    requestRegisterFromOracle(projectID);\n  }\n\n  function donateToProject(uint16 projectID, uint16 requestID) public payable onlyEnabled {\n    require(msg.value > 0, \"no fund to donate\");\n    require(projectID > 0, \"projectID should be larger than 0\");\n    require(sponsorRequests[requestID] == uint16(0), \"existing sponsorship request\");\n    require(sponsorRequestAmounts[requestID] == uint16(0), \"existing sponsorship request\");\n    require(undistributedAmounts[requestID] == uint16(0), \"existing sponsorship request\");\n\n    sponsorRequests[requestID] = projectID;\n    sponsorRequestAmounts[requestID] = msg.value;\n    undistributedAmounts[requestID] = msg.value;\n    requestDonateFromOracle(requestID);\n  }\n\n  function redeem(uint16 projectID) public payable onlyEnabled onlyProjectOwner(projectID) {\n    require(distribution[projectID] > 0, \"no fund for project\");\n\n    uint256 transferValue = distribution[projectID];\n    (bool ok, uint256 newBalance) = SafeMath.trySub(distribution[projectID], transferValue);\n    require(ok, \"subtract balance error\");\n\n    distribution[projectID] = newBalance;\n    (bool redeemOK, bytes memory result) =  msg.sender.call{value: transferValue}(\"\");\n    require(redeemOK, \"redeem transaction error\");\n  }\n\n  function registerProject(uint16 projectID, address addr) public override onlyOracle onlyEnabled {\n    projectOwners[projectID] = addr;\n  }\n\n  /// Updates the distribution mapping from the sponsor request amount,\n  /// so that project owners can later redeem the fund.\n  /// This function may be called several times for a given sponsorship request,\n  /// in case the dependency list of the project is too large to be handled in a single transaction.\n  /// @param requestID is the request to distribute locked fund for.\n  /// @param fromDepIdx the starting index(inclusive) of the dependent projectID to distribute the fund to.\n  /// @param toDepIdx the ending index(inclusive) of the dependent projectID to distribute the fund to.\n  function distribute(uint16 requestID, uint fromDepIdx, uint toDepIdx) public override onlyOracle onlyEnabled {\n    // Make sure there's undistributed fund for this sponsor request.\n    require(sponsorRequests[requestID] > 0, \"invalid sponsorship request\");\n    require(sponsorRequestAmounts[requestID] > 0, \"invalid sponsorship request\");\n    require(undistributedAmounts[requestID] > 0, \"invalid sponsorship request\");\n\n    uint16 sourceProjectID = sponsorRequests[requestID];\n    if (toDepIdx == 0) {\n      // Distribute among the entire dependency list.\n      fromDepIdx = 0;\n      toDepIdx = projectDependencies[sourceProjectID].length - 1;\n    }\n    // Distribute to a maximum number of dependent projects in a single transaction.\n    require(toDepIdx - fromDepIdx + 1 <= singleCallMaxDepsSize, \"dep size is over allowed size\");\n    distributionInProgress[sourceProjectID] += 1;\n \n    uint256 remaining = undistributedAmounts[requestID];\n    uint256 singleDepShare = sponsorRequestAmounts[requestID] * (100 - projectOwnerWeight) / 100 / projectDependencies[sourceProjectID].length;\n    for (uint i = fromDepIdx; i <= toDepIdx; i++) {\n      uint16 depProjectID = projectDependencies[sourceProjectID][i];\n      (bool addOK, uint256 newDepBalance) = SafeMath.tryAdd(distribution[depProjectID], singleDepShare);\n      require(addOK, \"distribute balance error\");\n      distribution[depProjectID] = newDepBalance;\n\n      (bool subOK, uint256 newRemaining) = SafeMath.trySub(remaining, singleDepShare);\n      require(subOK, \"calculate remaining balance error\");\n      remaining = newRemaining;\n    }\n    undistributedAmounts[requestID] = remaining;\n\n    // Only distributes to source project when all dependent funds have been distributed.\n    if (toDepIdx == projectDependencies[sourceProjectID].length - 1) {\n      // Give source project the remaining fund, only if distribution among dependents are successful.\n      (bool ok, uint256 newBalance) = SafeMath.tryAdd(distribution[sourceProjectID], remaining);\n      require(ok, \"distribute remaining balance error\");\n      distribution[sourceProjectID] = newBalance;\n\n      // Reset request params.\n      sponsorRequests[requestID] = 0;\n      sponsorRequestAmounts[requestID] = 0;\n      undistributedAmounts[requestID] = 0;\n      distributionInProgress[sourceProjectID] -= 1;\n    }\n  }\n\n  function updateDeps(\n    uint16 projectID,\n    uint16[] calldata deps,\n    bool isReplace\n  ) external override onlyOracle onlyEnabled {\n    require(deps.length <= singleCallMaxDepsSize, \"dep size is over allowed size\");\n    require(distributionInProgress[projectID] == 0, \"sponsorship distribution in progress for project\");\n\n    // Replace dependencies.\n    if (isReplace || projectDependencies[projectID].length == 0) {\n      projectDependencies[projectID] = deps;\n      return;\n    }\n\n    // Append to existing dependencies\n    for (uint i = 0; i < deps.length; i++) {\n      projectDependencies[projectID].push(deps[i]);\n    }\n  }\n\n  // Set up migration addresses for locked fund to be transferred out.\n  function updateMigrationAddress(uint16 projectID, address mAddr) public onlyProjectOwner(projectID) {\n    fundMigrations[projectID] = mAddr;\n  }\n\n  // Transfer locked fund in case of contract migration.\n  function migrateFunds(uint16 projectID) public onlyOwner {\n    require(disabled, \"when contract is disabled only\");\n    require(distribution[projectID] > 0, \"no fund for project\");\n    require(fundMigrations[projectID] != address(0), \"invalid migration address\");\n\n    (bool ok, bytes memory result) = payable(fundMigrations[projectID]).call{value: distribution[projectID]}(\"\");\n    require(ok, \"fund migration error\");\n  }\n}\n",
  "sourcePath": "/Users/yinlokwong/Documents/unsw/comp6452/project2/open-source-pizza/contracts/OpenSourcePizza.sol",
  "compiler": {
    "name": "solc",
    "version": "0.8.15+commit.e14f2714.Emscripten.clang"
  },
  "schemaVersion": "3.4.8",
  "updatedAt": "2022-07-22T00:34:43.850Z",
  "devdoc": {
    "kind": "dev",
    "methods": {
      "distribute(uint16,uint256,uint256)": {
        "params": {
          "fromDepIdx": "the starting index(inclusive) of the dependent projectID to distribute the fund to.",
          "requestID": "is the request to distribute locked fund for.",
          "toDepIdx": "the ending index(inclusive) of the dependent projectID to distribute the fund to."
        }
      }
    },
    "version": 1
  },
  "userdoc": {
    "kind": "user",
    "methods": {
      "distribute(uint16,uint256,uint256)": {
        "notice": "Updates the distribution mapping from the sponsor request amount, so that project owners can later redeem the fund. This function may be called several times for a given sponsorship request, in case the dependency list of the project is too large to be handled in a single transaction."
      },
      "distributionInProgress(uint16)": {
        "notice": "projectIDs mapping for projects that are in the process of fund distribution, value in # of distribution currently in process."
      },
      "fundMigrations(uint16)": {
        "notice": "Addresses for locked project fund to be transferred out in case of contract migration."
      },
      "projectOwners(uint16)": {
        "notice": "projectID to project owner address mapping."
      },
      "sponsorRequestAmounts(uint16)": {
        "notice": "requestID to total sponsor amount mapping."
      },
      "sponsorRequests(uint16)": {
        "notice": "requestID to projectID mapping."
      },
      "undistributedAmounts(uint16)": {
        "notice": "requestID to remaining undistributed amount mapping."
      }
    },
    "version": 1
  }
}