{
  "contractName": "OpenSourcePizza",
  "abi": [
    {
      "inputs": [],
      "name": "disabled",
      "outputs": [
        {
          "internalType": "bool",
          "name": "",
          "type": "bool"
        }
      ],
      "stateMutability": "view",
      "type": "function"
    },
    {
      "inputs": [
        {
          "internalType": "uint16",
          "name": "",
          "type": "uint16"
        }
      ],
      "name": "distribution",
      "outputs": [
        {
          "internalType": "uint256",
          "name": "",
          "type": "uint256"
        }
      ],
      "stateMutability": "view",
      "type": "function"
    },
    {
      "inputs": [
        {
          "internalType": "uint16",
          "name": "",
          "type": "uint16"
        }
      ],
      "name": "fundMigrations",
      "outputs": [
        {
          "internalType": "address",
          "name": "",
          "type": "address"
        }
      ],
      "stateMutability": "view",
      "type": "function"
    },
    {
      "inputs": [],
      "name": "owner",
      "outputs": [
        {
          "internalType": "address",
          "name": "",
          "type": "address"
        }
      ],
      "stateMutability": "view",
      "type": "function"
    },
    {
      "inputs": [
        {
          "internalType": "uint16",
          "name": "",
          "type": "uint16"
        },
        {
          "internalType": "uint256",
          "name": "",
          "type": "uint256"
        }
      ],
      "name": "projectDependencies",
      "outputs": [
        {
          "internalType": "uint16",
          "name": "",
          "type": "uint16"
        }
      ],
      "stateMutability": "view",
      "type": "function"
    },
    {
      "inputs": [],
      "name": "projectOwnerWeight",
      "outputs": [
        {
          "internalType": "uint8",
          "name": "",
          "type": "uint8"
        }
      ],
      "stateMutability": "view",
      "type": "function"
    },
    {
      "inputs": [
        {
          "internalType": "uint16",
          "name": "",
          "type": "uint16"
        }
      ],
      "name": "projectOwners",
      "outputs": [
        {
          "internalType": "address",
          "name": "",
          "type": "address"
        }
      ],
      "stateMutability": "view",
      "type": "function"
    },
    {
      "inputs": [
        {
          "internalType": "uint16",
          "name": "",
          "type": "uint16"
        }
      ],
      "name": "sponsorRequestAmounts",
      "outputs": [
        {
          "internalType": "uint256",
          "name": "",
          "type": "uint256"
        }
      ],
      "stateMutability": "view",
      "type": "function"
    },
    {
      "inputs": [
        {
          "internalType": "uint16",
          "name": "",
          "type": "uint16"
        }
      ],
      "name": "sponsorRequests",
      "outputs": [
        {
          "internalType": "uint16",
          "name": "",
          "type": "uint16"
        }
      ],
      "stateMutability": "view",
      "type": "function"
    },
    {
      "inputs": [
        {
          "internalType": "uint16",
          "name": "",
          "type": "uint16"
        }
      ],
      "name": "undistributedAmounts",
      "outputs": [
        {
          "internalType": "uint256",
          "name": "",
          "type": "uint256"
        }
      ],
      "stateMutability": "view",
      "type": "function"
    },
    {
      "inputs": [
        {
          "internalType": "address",
          "name": "oc",
          "type": "address"
        }
      ],
      "name": "updateOracle",
      "outputs": [],
      "stateMutability": "nonpayable",
      "type": "function"
    },
    {
      "inputs": [],
      "name": "disableContract",
      "outputs": [],
      "stateMutability": "nonpayable",
      "type": "function"
    },
    {
      "inputs": [],
      "name": "enableContract",
      "outputs": [],
      "stateMutability": "nonpayable",
      "type": "function"
    },
    {
      "inputs": [
        {
          "internalType": "uint16",
          "name": "projectID",
          "type": "uint16"
        }
      ],
      "name": "register",
      "outputs": [],
      "stateMutability": "nonpayable",
      "type": "function"
    },
    {
      "inputs": [
        {
          "internalType": "uint16",
          "name": "projectID",
          "type": "uint16"
        },
        {
          "internalType": "uint16",
          "name": "requestID",
          "type": "uint16"
        }
      ],
      "name": "donateToProject",
      "outputs": [],
      "stateMutability": "payable",
      "type": "function"
    },
    {
      "inputs": [
        {
          "internalType": "uint16",
          "name": "projectID",
          "type": "uint16"
        }
      ],
      "name": "redeem",
      "outputs": [],
      "stateMutability": "payable",
      "type": "function"
    },
    {
      "inputs": [
        {
          "internalType": "uint16",
          "name": "projectID",
          "type": "uint16"
        },
        {
          "internalType": "address",
          "name": "addr",
          "type": "address"
        }
      ],
      "name": "registerProject",
      "outputs": [],
      "stateMutability": "nonpayable",
      "type": "function"
    },
    {
      "inputs": [
        {
          "internalType": "uint16",
          "name": "requestID",
          "type": "uint16"
        },
        {
          "internalType": "uint16",
          "name": "split",
          "type": "uint16"
        },
        {
          "internalType": "uint256",
          "name": "fromDepIdx",
          "type": "uint256"
        },
        {
          "internalType": "uint256",
          "name": "toDepIdx",
          "type": "uint256"
        }
      ],
      "name": "distribute",
      "outputs": [],
      "stateMutability": "nonpayable",
      "type": "function"
    },
    {
      "inputs": [
        {
          "internalType": "uint16",
          "name": "projectID",
          "type": "uint16"
        },
        {
          "internalType": "uint16[]",
          "name": "deps",
          "type": "uint16[]"
        },
        {
          "internalType": "bool",
          "name": "isReplace",
          "type": "bool"
        }
      ],
      "name": "updateDeps",
      "outputs": [],
      "stateMutability": "nonpayable",
      "type": "function"
    },
    {
      "inputs": [
        {
          "internalType": "uint16",
          "name": "projectID",
          "type": "uint16"
        },
        {
          "internalType": "address",
          "name": "mAddr",
          "type": "address"
        }
      ],
      "name": "updateMigrationAddress",
      "outputs": [],
      "stateMutability": "nonpayable",
      "type": "function"
    },
    {
      "inputs": [
        {
          "internalType": "uint16",
          "name": "projectID",
          "type": "uint16"
        }
      ],
      "name": "migrateFunds",
      "outputs": [],
      "stateMutability": "nonpayable",
      "type": "function"
    }
  ],
  "bytecode": "0x60806040526000600160146101000a81548160ff0219169083151502179055506032600160156101000a81548160ff021916908360ff16021790555034801561004757600080fd5b5061209a806100576000396000f3fe60806040526004361061012a5760003560e01c80638ec7ee80116100ab578063b95bdf911161006f578063b95bdf91146103e1578063ba3af6ed146103fd578063bb80edb914610426578063e5eee3b71461044f578063ed007ebb14610478578063ee070805146104b55761012a565b80638ec7ee80146102c45780638fa6abbc146103015780639a2f16f71461033e578063af64438c1461037b578063b8d7a624146103a45761012a565b806341581423116100f257806341581423146101fe5780635cafb53d1461021a5780636a8d7a2014610245578063894ba833146102825780638da5cb5b146102995761012a565b806307ef7ccc1461012f57806311e480771461016c578063161231db146101955780631cb44dfc146101be578063367edd32146101e7575b600080fd5b34801561013b57600080fd5b50610156600480360381019061015191906117fa565b6104e0565b6040516101639190611868565b60405180910390f35b34801561017857600080fd5b50610193600480360381019061018e9190611920565b610513565b005b3480156101a157600080fd5b506101bc60048036038101906101b791906119c0565b610685565b005b3480156101ca57600080fd5b506101e560048036038101906101e09190611a00565b610756565b005b3480156101f357600080fd5b506101fc6107f3565b005b61021860048036038101906102139190611a2d565b61086a565b005b34801561022657600080fd5b5061022f6109b0565b60405161023c9190611a89565b60405180910390f35b34801561025157600080fd5b5061026c600480360381019061026791906117fa565b6109c3565b6040516102799190611abd565b60405180910390f35b34801561028e57600080fd5b506102976109db565b005b3480156102a557600080fd5b506102ae610a51565b6040516102bb9190611868565b60405180910390f35b3480156102d057600080fd5b506102eb60048036038101906102e691906117fa565b610a77565b6040516102f89190611ae7565b60405180910390f35b34801561030d57600080fd5b50610328600480360381019061032391906117fa565b610a98565b6040516103359190611868565b60405180910390f35b34801561034a57600080fd5b50610365600480360381019061036091906117fa565b610acb565b6040516103729190611abd565b60405180910390f35b34801561038757600080fd5b506103a2600480360381019061039d91906119c0565b610ae3565b005b3480156103b057600080fd5b506103cb60048036038101906103c691906117fa565b610bb9565b6040516103d89190611abd565b60405180910390f35b6103fb60048036038101906103f691906117fa565b610bd1565b005b34801561040957600080fd5b50610424600480360381019061041f9190611b2e565b610dee565b005b34801561043257600080fd5b5061044d600480360381019061044891906117fa565b6112da565b005b34801561045b57600080fd5b50610476600480360381019061047191906117fa565b611306565b005b34801561048457600080fd5b5061049f600480360381019061049a9190611b95565b61151e565b6040516104ac9190611ae7565b60405180910390f35b3480156104c157600080fd5b506104ca611565565b6040516104d79190611be4565b60405180910390f35b60086020528060005260406000206000915054906101000a900473ffffffffffffffffffffffffffffffffffffffff1681565b60008054906101000a900473ffffffffffffffffffffffffffffffffffffffff1673ffffffffffffffffffffffffffffffffffffffff163373ffffffffffffffffffffffffffffffffffffffff161461056b57600080fd5b60001515600160149054906101000a900460ff1615151461058b57600080fd5b606483839050111561059c57600080fd5b80156105d2578282600260008761ffff1661ffff16815260200190815260200160002091906105cc9291906116eb565b5061067f565b60005b8383905081101561067d57600260008661ffff1661ffff16815260200190815260200160002084848381811061060e5761060d611bff565b5b905060200201602081019061062391906117fa565b90806001815401808255809150506001900390600052602060002090601091828204019190066002029091909190916101000a81548161ffff021916908361ffff160217905550808061067590611c5d565b9150506105d5565b505b50505050565b3373ffffffffffffffffffffffffffffffffffffffff16600360008461ffff1661ffff16815260200190815260200160002060009054906101000a900473ffffffffffffffffffffffffffffffffffffffff1673ffffffffffffffffffffffffffffffffffffffff16146106f857600080fd5b80600860008461ffff1661ffff16815260200190815260200160002060006101000a81548173ffffffffffffffffffffffffffffffffffffffff021916908373ffffffffffffffffffffffffffffffffffffffff1602179055505050565b600160009054906101000a900473ffffffffffffffffffffffffffffffffffffffff1673ffffffffffffffffffffffffffffffffffffffff163373ffffffffffffffffffffffffffffffffffffffff16146107b057600080fd5b806000806101000a81548173ffffffffffffffffffffffffffffffffffffffff021916908373ffffffffffffffffffffffffffffffffffffffff16021790555050565b600160009054906101000a900473ffffffffffffffffffffffffffffffffffffffff1673ffffffffffffffffffffffffffffffffffffffff163373ffffffffffffffffffffffffffffffffffffffff161461084d57600080fd5b6000600160146101000a81548160ff021916908315150217905550565b60001515600160149054906101000a900460ff1615151461088a57600080fd5b6000341161089757600080fd5b600061ffff16600460008361ffff1661ffff16815260200190815260200160002060009054906101000a900461ffff1661ffff16146108d557600080fd5b600061ffff16600560008361ffff1661ffff168152602001908152602001600020541461090157600080fd5b600061ffff16600660008361ffff1661ffff168152602001908152602001600020541461092d57600080fd5b81600460008361ffff1661ffff16815260200190815260200160002060006101000a81548161ffff021916908361ffff16021790555034600560008361ffff1661ffff1681526020019081526020016000208190555034600660008361ffff1661ffff168152602001908152602001600020819055506109ac81611578565b5050565b600160159054906101000a900460ff1681565b60076020528060005260406000206000915090505481565b600160009054906101000a900473ffffffffffffffffffffffffffffffffffffffff1673ffffffffffffffffffffffffffffffffffffffff163373ffffffffffffffffffffffffffffffffffffffff1614610a3557600080fd5b60018060146101000a81548160ff021916908315150217905550565b600160009054906101000a900473ffffffffffffffffffffffffffffffffffffffff1681565b60046020528060005260406000206000915054906101000a900461ffff1681565b60036020528060005260406000206000915054906101000a900473ffffffffffffffffffffffffffffffffffffffff1681565b60056020528060005260406000206000915090505481565b60008054906101000a900473ffffffffffffffffffffffffffffffffffffffff1673ffffffffffffffffffffffffffffffffffffffff163373ffffffffffffffffffffffffffffffffffffffff1614610b3b57600080fd5b60001515600160149054906101000a900460ff16151514610b5b57600080fd5b80600360008461ffff1661ffff16815260200190815260200160002060006101000a81548173ffffffffffffffffffffffffffffffffffffffff021916908373ffffffffffffffffffffffffffffffffffffffff1602179055505050565b60066020528060005260406000206000915090505481565b60001515600160149054906101000a900460ff16151514610bf157600080fd5b3373ffffffffffffffffffffffffffffffffffffffff16600360008361ffff1661ffff16815260200190815260200160002060009054906101000a900473ffffffffffffffffffffffffffffffffffffffff1673ffffffffffffffffffffffffffffffffffffffff1614610c6457600080fd5b6000600760008361ffff1661ffff1681526020019081526020016000205411610c8c57600080fd5b6000600760008361ffff1661ffff168152602001908152602001600020549050600080610cd4600760008661ffff1661ffff1681526020019081526020016000205484611606565b9150915081610d18576040517f08c379a0000000000000000000000000000000000000000000000000000000008152600401610d0f90611d02565b60405180910390fd5b80600760008661ffff1661ffff168152602001908152602001600020819055506000803373ffffffffffffffffffffffffffffffffffffffff1685604051610d5f90611d53565b60006040518083038185875af1925050503d8060008114610d9c576040519150601f19603f3d011682016040523d82523d6000602084013e610da1565b606091505b509150915081610de6576040517f08c379a0000000000000000000000000000000000000000000000000000000008152600401610ddd90611db4565b60405180910390fd5b505050505050565b60008054906101000a900473ffffffffffffffffffffffffffffffffffffffff1673ffffffffffffffffffffffffffffffffffffffff163373ffffffffffffffffffffffffffffffffffffffff1614610e4657600080fd5b60001515600160149054906101000a900460ff16151514610e6657600080fd5b6000600460008661ffff1661ffff16815260200190815260200160002060009054906101000a900461ffff1661ffff1611610ea057600080fd5b6000600560008661ffff1661ffff1681526020019081526020016000205411610ec857600080fd5b6000600660008661ffff1661ffff1681526020019081526020016000205411610ef057600080fd5b6000600460008661ffff1661ffff16815260200190815260200160002060009054906101000a900461ffff16905060008461ffff161115610f84578160026000600460008961ffff1661ffff16815260200190815260200160002060009054906101000a900461ffff1661ffff1661ffff168152602001908152602001600020805490501115610f7f57600080fd5b610faa565b60009250600260008261ffff1661ffff1681526020019081526020016000208054905091505b60648383610fb89190611dd4565b1115610fc357600080fd5b6000600660008761ffff1661ffff16815260200190815260200160002054905060008490505b838110156111845760008585610fff9190611dd4565b8761ffff16600560008b61ffff1661ffff1681526020019081526020016000205461102a9190611e37565b6110349190611e37565b90506000600260008661ffff1661ffff168152602001908152602001600020838154811061106557611064611bff565b5b90600052602060002090601091828204019190066002029054906101000a900461ffff1690506000806110b3600760008561ffff1661ffff168152602001908152602001600020548561162e565b91509150816110f7576040517f08c379a00000000000000000000000000000000000000000000000000000000081526004016110ee90611eb4565b60405180910390fd5b80600760008561ffff1661ffff168152602001908152602001600020819055506000806111248887611606565b9150915081611168576040517f08c379a000000000000000000000000000000000000000000000000000000000815260040161115f90611f46565b60405180910390fd5b809750505050505050808061117c90611c5d565b915050610fe9565b5080600660008861ffff1661ffff16815260200190815260200160002081905550600260008361ffff1661ffff1681526020019081526020016000208054905083036112d2576000806111f2600760008661ffff1661ffff168152602001908152602001600020548461162e565b9150915081611236576040517f08c379a000000000000000000000000000000000000000000000000000000000815260040161122d90611fd8565b60405180910390fd5b80600760008661ffff1661ffff168152602001908152602001600020819055506000600460008a61ffff1661ffff16815260200190815260200160002060006101000a81548161ffff021916908361ffff1602179055506000600560008a61ffff1661ffff168152602001908152602001600020819055506000600660008a61ffff1661ffff1681526020019081526020016000208190555050505b505050505050565b60001515600160149054906101000a900460ff161515146112fa57600080fd5b6113038161165d565b50565b600160009054906101000a900473ffffffffffffffffffffffffffffffffffffffff1673ffffffffffffffffffffffffffffffffffffffff163373ffffffffffffffffffffffffffffffffffffffff161461136057600080fd5b600160149054906101000a900460ff1661137957600080fd5b6000600760008361ffff1661ffff16815260200190815260200160002054116113a157600080fd5b600073ffffffffffffffffffffffffffffffffffffffff16600860008361ffff1661ffff16815260200190815260200160002060009054906101000a900473ffffffffffffffffffffffffffffffffffffffff1673ffffffffffffffffffffffffffffffffffffffff160361141557600080fd5b600080600860008461ffff1661ffff16815260200190815260200160002060009054906101000a900473ffffffffffffffffffffffffffffffffffffffff1673ffffffffffffffffffffffffffffffffffffffff16600760008561ffff1661ffff1681526020019081526020016000205460405161149290611d53565b60006040518083038185875af1925050503d80600081146114cf576040519150601f19603f3d011682016040523d82523d6000602084013e6114d4565b606091505b509150915081611519576040517f08c379a000000000000000000000000000000000000000000000000000000000815260040161151090612044565b60405180910390fd5b505050565b6002602052816000526040600020818154811061153a57600080fd5b9060005260206000209060109182820401919006600202915091509054906101000a900461ffff1681565b600160149054906101000a900460ff1681565b60008054906101000a900473ffffffffffffffffffffffffffffffffffffffff1673ffffffffffffffffffffffffffffffffffffffff166386670f2e826040518263ffffffff1660e01b81526004016115d19190611ae7565b600060405180830381600087803b1580156115eb57600080fd5b505af11580156115ff573d6000803e3d6000fd5b5050505050565b6000808383111561161d5760008091509150611627565b6001838503915091505b9250929050565b600080600083850190508481101561164d576000809250925050611656565b60018192509250505b9250929050565b60008054906101000a900473ffffffffffffffffffffffffffffffffffffffff1673ffffffffffffffffffffffffffffffffffffffff1663e98e7946826040518263ffffffff1660e01b81526004016116b69190611ae7565b600060405180830381600087803b1580156116d057600080fd5b505af11580156116e4573d6000803e3d6000fd5b5050505050565b82805482825590600052602060002090600f016010900481019282156117885791602002820160005b8382111561175857833561ffff1683826101000a81548161ffff021916908361ffff1602179055509260200192600201602081600101049283019260010302611714565b80156117865782816101000a81549061ffff0219169055600201602081600101049283019260010302611758565b505b5090506117959190611799565b5090565b5b808211156117b257600081600090555060010161179a565b5090565b600080fd5b600080fd5b600061ffff82169050919050565b6117d7816117c0565b81146117e257600080fd5b50565b6000813590506117f4816117ce565b92915050565b6000602082840312156118105761180f6117b6565b5b600061181e848285016117e5565b91505092915050565b600073ffffffffffffffffffffffffffffffffffffffff82169050919050565b600061185282611827565b9050919050565b61186281611847565b82525050565b600060208201905061187d6000830184611859565b92915050565b600080fd5b600080fd5b600080fd5b60008083601f8401126118a8576118a7611883565b5b8235905067ffffffffffffffff8111156118c5576118c4611888565b5b6020830191508360208202830111156118e1576118e061188d565b5b9250929050565b60008115159050919050565b6118fd816118e8565b811461190857600080fd5b50565b60008135905061191a816118f4565b92915050565b6000806000806060858703121561193a576119396117b6565b5b6000611948878288016117e5565b945050602085013567ffffffffffffffff811115611969576119686117bb565b5b61197587828801611892565b935093505060406119888782880161190b565b91505092959194509250565b61199d81611847565b81146119a857600080fd5b50565b6000813590506119ba81611994565b92915050565b600080604083850312156119d7576119d66117b6565b5b60006119e5858286016117e5565b92505060206119f6858286016119ab565b9150509250929050565b600060208284031215611a1657611a156117b6565b5b6000611a24848285016119ab565b91505092915050565b60008060408385031215611a4457611a436117b6565b5b6000611a52858286016117e5565b9250506020611a63858286016117e5565b9150509250929050565b600060ff82169050919050565b611a8381611a6d565b82525050565b6000602082019050611a9e6000830184611a7a565b92915050565b6000819050919050565b611ab781611aa4565b82525050565b6000602082019050611ad26000830184611aae565b92915050565b611ae1816117c0565b82525050565b6000602082019050611afc6000830184611ad8565b92915050565b611b0b81611aa4565b8114611b1657600080fd5b50565b600081359050611b2881611b02565b92915050565b60008060008060808587031215611b4857611b476117b6565b5b6000611b56878288016117e5565b9450506020611b67878288016117e5565b9350506040611b7887828801611b19565b9250506060611b8987828801611b19565b91505092959194509250565b60008060408385031215611bac57611bab6117b6565b5b6000611bba858286016117e5565b9250506020611bcb85828601611b19565b9150509250929050565b611bde816118e8565b82525050565b6000602082019050611bf96000830184611bd5565b92915050565b7f4e487b7100000000000000000000000000000000000000000000000000000000600052603260045260246000fd5b7f4e487b7100000000000000000000000000000000000000000000000000000000600052601160045260246000fd5b6000611c6882611aa4565b91507fffffffffffffffffffffffffffffffffffffffffffffffffffffffffffffffff8203611c9a57611c99611c2e565b5b600182019050919050565b600082825260208201905092915050565b7f73756274726163742062616c616e6365206572726f7200000000000000000000600082015250565b6000611cec601683611ca5565b9150611cf782611cb6565b602082019050919050565b60006020820190508181036000830152611d1b81611cdf565b9050919050565b600081905092915050565b50565b6000611d3d600083611d22565b9150611d4882611d2d565b600082019050919050565b6000611d5e82611d30565b9150819050919050565b7f72656465656d207472616e73616374696f6e206572726f720000000000000000600082015250565b6000611d9e601883611ca5565b9150611da982611d68565b602082019050919050565b60006020820190508181036000830152611dcd81611d91565b9050919050565b6000611ddf82611aa4565b9150611dea83611aa4565b925082821015611dfd57611dfc611c2e565b5b828203905092915050565b7f4e487b7100000000000000000000000000000000000000000000000000000000600052601260045260246000fd5b6000611e4282611aa4565b9150611e4d83611aa4565b925082611e5d57611e5c611e08565b5b828204905092915050565b7f646973747269627574652062616c616e6365206572726f720000000000000000600082015250565b6000611e9e601883611ca5565b9150611ea982611e68565b602082019050919050565b60006020820190508181036000830152611ecd81611e91565b9050919050565b7f63616c63756c6174652072656d61696e696e672062616c616e6365206572726f60008201527f7200000000000000000000000000000000000000000000000000000000000000602082015250565b6000611f30602183611ca5565b9150611f3b82611ed4565b604082019050919050565b60006020820190508181036000830152611f5f81611f23565b9050919050565b7f646973747269627574652072656d61696e696e672062616c616e63652065727260008201527f6f72000000000000000000000000000000000000000000000000000000000000602082015250565b6000611fc2602283611ca5565b9150611fcd82611f66565b604082019050919050565b60006020820190508181036000830152611ff181611fb5565b9050919050565b7f66756e64206d6967726174696f6e206572726f72000000000000000000000000600082015250565b600061202e601483611ca5565b915061203982611ff8565b602082019050919050565b6000602082019050818103600083015261205d81612021565b905091905056fea26469706673582212200f1e171af528b0bfa66033ab567f39440341306c1bbfe25f9fdc6c75721866bb64736f6c634300080f0033",
  "immutableReferences": {},
  "source": "// SPDX-License-Identifier: MIT\npragma solidity >=0.4.22 <0.9.0;\n\nimport \"./OSPOracle.sol\";\n\nimport \"@openzeppelin/contracts/utils/math/SafeMath.sol\";\n\ncontract OpenSourcePizza is OSPOracleClient {\n  address public owner;\n\n  bool public disabled = false;\n\n  uint8 public projectOwnerWeight = 50;\n\n  mapping(uint16 => uint16[]) public projectDependencies;\n\n  mapping(uint16 => address) public projectOwners;\n\n  /// requestID to projectID mapping.\n  mapping(uint16 => uint16) public sponsorRequests;\n  /// requestID to total sponsor amount mapping.\n  mapping(uint16 => uint256) public sponsorRequestAmounts;\n  /// requestID to remaining undistributed amount mapping.\n  mapping(uint16 => uint256) public undistributedAmounts;\n\n  mapping(uint16 => uint256) public distribution;\n\n  /// Addresses for locked project fund to be transferred out in case of contract migration.\n  mapping(uint16 => address) public fundMigrations;\n\n  modifier onlyOwner {\n    require(msg.sender == owner);\n    _;\n  }\n\n  modifier onlyOracle {\n    require(msg.sender == oracle);\n    _;\n  }\n\n  modifier onlyEnabled {\n    require(disabled == false);\n    _;\n  }\n\n  function updateOracle(address oc) override public onlyOwner {\n    oracle = oc;\n  }\n\n  function disableContract() public onlyOwner {\n    disabled = true;\n  }\n\n  function enableContract() public onlyOwner {\n    disabled = false;\n  }\n\n  function register(uint16 projectID) public onlyEnabled {\n    requestRegisterFromOracle(projectID);\n  }\n\n  function donateToProject(uint16 projectID, uint16 requestID) public payable onlyEnabled {\n    require(msg.value > 0);\n    require(sponsorRequests[requestID] == uint16(0));\n    require(sponsorRequestAmounts[requestID] == uint16(0));\n    require(undistributedAmounts[requestID] == uint16(0));\n\n    sponsorRequests[requestID] = projectID;\n    sponsorRequestAmounts[requestID] = msg.value;\n    undistributedAmounts[requestID] = msg.value;\n    requestDonateFromOracle(requestID);\n  }\n\n  function redeem(uint16 projectID) public payable onlyEnabled {\n    require(projectOwners[projectID] == msg.sender);\n    require(distribution[projectID] > 0);\n\n    uint256 transferValue = distribution[projectID];\n    (bool ok, uint256 newBalance) = SafeMath.trySub(distribution[projectID], transferValue);\n    require(ok, \"subtract balance error\");\n\n    distribution[projectID] = newBalance;\n    (bool redeemOK, bytes memory result) =  msg.sender.call{value: transferValue}(\"\");\n    require(redeemOK, \"redeem transaction error\");\n  }\n\n  function registerProject(uint16 projectID, address addr) public override onlyOracle onlyEnabled {\n    projectOwners[projectID] = addr;\n  }\n\n  /// Updates the distribution mapping from the sponsor request amount,\n  /// so that project owners can later redeem the fund.\n  /// This function may be called several times for a given sponsorship request,\n  /// in case the dependency list of the project is too large to be handled in a single transaction.\n  /// @param split the number of iterations this distribute function will be called for a request\n  /// @param fromDepIdx the starting index of the dependent projectID to distribute the fund to\n  /// @param toDepIdx the ending index of the dependent projectID to distribute the fund to\n  function distribute(uint16 requestID, uint16 split, uint fromDepIdx, uint toDepIdx) public override onlyOracle onlyEnabled {\n    // Make sure there's undistributed fund for this sponsor request.\n    require(sponsorRequests[requestID] > 0);\n    require(sponsorRequestAmounts[requestID] > 0);\n    require(undistributedAmounts[requestID] > 0);\n\n    uint16 sourceProjectID = sponsorRequests[requestID];\n    if (split > 0) {\n      // When this function is called multiple times for a single request.\n      // Checks when this function is called for multiple times for a single sponsorship request.\n      // Make sure the distribution has valid dependent receivers.\n      require(projectDependencies[sponsorRequests[requestID]].length <= toDepIdx);\n    } else {\n      // Distribute among the entire dependency list.\n      fromDepIdx = 0;\n      toDepIdx = projectDependencies[sourceProjectID].length;\n    }\n\n    // Distribute to maximum 100 dependent projects in a single transaction.\n    require(toDepIdx - fromDepIdx <= 100);\n \n    uint256 remaining = undistributedAmounts[requestID];\n    for (uint i = fromDepIdx; i < toDepIdx; i++) {\n      uint256 singleDepShare = sponsorRequestAmounts[requestID] / split / (toDepIdx - fromDepIdx);\n      uint16 depProjectID = projectDependencies[sourceProjectID][i];\n      (bool addOK, uint256 newDepBalance) = SafeMath.tryAdd(distribution[depProjectID], singleDepShare);\n      require(addOK, \"distribute balance error\");\n      distribution[depProjectID] = newDepBalance;\n\n      (bool subOK, uint256 newRemaining) = SafeMath.trySub(remaining, singleDepShare);\n      require(subOK, \"calculate remaining balance error\");\n      remaining = newRemaining;\n    }\n    undistributedAmounts[requestID] = remaining;\n\n    // Only distributes to source project when all dependent funds have been distributed.\n    if (toDepIdx == projectDependencies[sourceProjectID].length) {\n      // Give source project the remaining fund, only if distribution among dependents are successful.\n      (bool ok, uint256 newBalance) = SafeMath.tryAdd(distribution[sourceProjectID], remaining);\n      require(ok, \"distribute remaining balance error\");\n      distribution[sourceProjectID] = newBalance;\n\n      // Reset request params.\n      sponsorRequests[requestID] = 0;\n      sponsorRequestAmounts[requestID] = 0;\n      undistributedAmounts[requestID] = 0;\n    }\n  }\n\n  function updateDeps(\n    uint16 projectID,\n    uint16[] calldata deps,\n    bool isReplace\n  ) external override onlyOracle onlyEnabled {\n    require(deps.length <= 100);\n\n    // Replace dependencies.\n    if (isReplace) {\n      projectDependencies[projectID] = deps;\n      return;\n    }\n\n    // Append to existing dependencies\n    for (uint i = 0; i < deps.length; i++) {\n      projectDependencies[projectID].push(deps[i]);\n    }\n  }\n\n  // Set up migration addresses for locked fund to be transferred out.\n  function updateMigrationAddress(uint16 projectID, address mAddr) public {\n    require(projectOwners[projectID] == msg.sender);\n\n    fundMigrations[projectID] = mAddr;\n  }\n\n  // Transfer locked fund in case of contract migration.\n  function migrateFunds(uint16 projectID) public onlyOwner {\n    require(disabled);\n    require(distribution[projectID] > 0);\n    require(fundMigrations[projectID] != address(0));\n\n    (bool ok, bytes memory result) = payable(fundMigrations[projectID]).call{value: distribution[projectID]}(\"\");\n    require(ok, \"fund migration error\");\n  }\n}\n",
  "sourcePath": "/Users/yinlokwong/Documents/unsw/comp6452/project2/open-source-pizza/contracts/OpenSourcePizza.sol",
  "compiler": {
    "name": "solc",
    "version": "0.8.15+commit.e14f2714.Emscripten.clang"
  },
  "schemaVersion": "3.4.8",
  "updatedAt": "2022-07-18T00:55:25.671Z",
  "devdoc": {
    "kind": "dev",
    "methods": {
      "distribute(uint16,uint16,uint256,uint256)": {
        "params": {
          "fromDepIdx": "the starting index of the dependent projectID to distribute the fund to",
          "split": "the number of iterations this distribute function will be called for a request",
          "toDepIdx": "the ending index of the dependent projectID to distribute the fund to"
        }
      }
    },
    "version": 1
  },
  "userdoc": {
    "kind": "user",
    "methods": {
      "distribute(uint16,uint16,uint256,uint256)": {
        "notice": "Updates the distribution mapping from the sponsor request amount, so that project owners can later redeem the fund. This function may be called several times for a given sponsorship request, in case the dependency list of the project is too large to be handled in a single transaction."
      },
      "fundMigrations(uint16)": {
        "notice": "Addresses for locked project fund to be transferred out in case of contract migration."
      },
      "sponsorRequestAmounts(uint16)": {
        "notice": "requestID to total sponsor amount mapping."
      },
      "sponsorRequests(uint16)": {
        "notice": "requestID to projectID mapping."
      },
      "undistributedAmounts(uint16)": {
        "notice": "requestID to remaining undistributed amount mapping."
      }
    },
    "version": 1
  }
}