{
  "contractName": "OpenSourcePizzaOracle",
  "abi": [
    {
      "inputs": [
        {
          "internalType": "address",
          "name": "caller",
          "type": "address"
        }
      ],
      "stateMutability": "nonpayable",
      "type": "constructor"
    },
    {
      "anonymous": false,
      "inputs": [
        {
          "indexed": false,
          "internalType": "uint16",
          "name": "requestID",
          "type": "uint16"
        }
      ],
      "name": "DonateEvent",
      "type": "event"
    },
    {
      "anonymous": false,
      "inputs": [
        {
          "indexed": false,
          "internalType": "uint16",
          "name": "projectID",
          "type": "uint16"
        }
      ],
      "name": "RegisterEvent",
      "type": "event"
    },
    {
      "inputs": [],
      "name": "caller",
      "outputs": [
        {
          "internalType": "address",
          "name": "",
          "type": "address"
        }
      ],
      "stateMutability": "view",
      "type": "function"
    },
    {
      "inputs": [],
      "name": "owner",
      "outputs": [
        {
          "internalType": "address",
          "name": "",
          "type": "address"
        }
      ],
      "stateMutability": "view",
      "type": "function"
    },
    {
      "inputs": [
        {
          "internalType": "uint16",
          "name": "requestID",
          "type": "uint16"
        }
      ],
      "name": "requestDonate",
      "outputs": [],
      "stateMutability": "nonpayable",
      "type": "function"
    },
    {
      "inputs": [
        {
          "internalType": "uint16",
          "name": "projectID",
          "type": "uint16"
        }
      ],
      "name": "requestRegister",
      "outputs": [],
      "stateMutability": "nonpayable",
      "type": "function"
    },
    {
      "inputs": [
        {
          "internalType": "address",
          "name": "c",
          "type": "address"
        }
      ],
      "name": "updateCaller",
      "outputs": [],
      "stateMutability": "nonpayable",
      "type": "function"
    },
    {
      "inputs": [
        {
          "internalType": "uint16",
          "name": "projectID",
          "type": "uint16"
        },
        {
          "internalType": "address",
          "name": "addr",
          "type": "address"
        }
      ],
      "name": "replyRegister",
      "outputs": [],
      "stateMutability": "nonpayable",
      "type": "function"
    },
    {
      "inputs": [
        {
          "internalType": "uint16",
          "name": "projectID",
          "type": "uint16"
        },
        {
          "internalType": "uint16[]",
          "name": "deps",
          "type": "uint16[]"
        },
        {
          "internalType": "bool",
          "name": "isReplace",
          "type": "bool"
        }
      ],
      "name": "replySyncUpdateDeps",
      "outputs": [],
      "stateMutability": "nonpayable",
      "type": "function"
    },
    {
      "inputs": [
        {
          "internalType": "uint16",
          "name": "requestID",
          "type": "uint16"
        },
        {
          "internalType": "uint256",
          "name": "fromDepIdx",
          "type": "uint256"
        },
        {
          "internalType": "uint256",
          "name": "toDepIdx",
          "type": "uint256"
        }
      ],
      "name": "replySyncDistribute",
      "outputs": [],
      "stateMutability": "nonpayable",
      "type": "function"
    },
    {
      "inputs": [],
      "name": "shutdown",
      "outputs": [],
      "stateMutability": "nonpayable",
      "type": "function"
    }
  ],
  "bytecode": "0x608060405234801561001057600080fd5b50604051610c76380380610c768339818101604052810190610032919061011e565b80336000806101000a81548173ffffffffffffffffffffffffffffffffffffffff021916908373ffffffffffffffffffffffffffffffffffffffff16021790555080600160006101000a81548173ffffffffffffffffffffffffffffffffffffffff021916908373ffffffffffffffffffffffffffffffffffffffff160217905550505061014b565b600080fd5b600073ffffffffffffffffffffffffffffffffffffffff82169050919050565b60006100eb826100c0565b9050919050565b6100fb816100e0565b811461010657600080fd5b50565b600081519050610118816100f2565b92915050565b600060208284031215610134576101336100bb565b5b600061014284828501610109565b91505092915050565b610b1c8061015a6000396000f3fe608060405234801561001057600080fd5b50600436106100935760003560e01c80639b9df99b116100665780639b9df99b1461010a578063ca9b260314610126578063e98e794614610142578063fc0e74d11461015e578063fc9c8d391461016857610093565b8063811f880d1461009857806386670f2e146100b45780638da5cb5b146100d05780638ed0df03146100ee575b600080fd5b6100b260048036038101906100ad919061071c565b610186565b005b6100ce60048036038101906100c99190610790565b610277565b005b6100d86102b1565b6040516100e591906107fe565b60405180910390f35b6101086004803603810190610103919061084f565b6102d5565b005b610124600480360381019061011f91906108ce565b6103c3565b005b610140600480360381019061013b91906108fb565b61045f565b005b61015c60048036038101906101579190610790565b61054a565b005b610166610584565b005b610170610615565b60405161017d91906107fe565b60405180910390f35b60008054906101000a900473ffffffffffffffffffffffffffffffffffffffff1673ffffffffffffffffffffffffffffffffffffffff163373ffffffffffffffffffffffffffffffffffffffff16146101de57600080fd5b600160009054906101000a900473ffffffffffffffffffffffffffffffffffffffff1673ffffffffffffffffffffffffffffffffffffffff166311e48077858585856040518563ffffffff1660e01b815260040161023f9493929190610a1c565b600060405180830381600087803b15801561025957600080fd5b505af115801561026d573d6000803e3d6000fd5b5050505050505050565b7fe4e666bebfe73907c152b79f4773434caa07407680d76809cd63b75bc4caac5d816040516102a69190610a5c565b60405180910390a150565b60008054906101000a900473ffffffffffffffffffffffffffffffffffffffff1681565b60008054906101000a900473ffffffffffffffffffffffffffffffffffffffff1673ffffffffffffffffffffffffffffffffffffffff163373ffffffffffffffffffffffffffffffffffffffff161461032d57600080fd5b600160009054906101000a900473ffffffffffffffffffffffffffffffffffffffff1673ffffffffffffffffffffffffffffffffffffffff1663442e4e138484846040518463ffffffff1660e01b815260040161038c93929190610a86565b600060405180830381600087803b1580156103a657600080fd5b505af11580156103ba573d6000803e3d6000fd5b50505050505050565b60008054906101000a900473ffffffffffffffffffffffffffffffffffffffff1673ffffffffffffffffffffffffffffffffffffffff163373ffffffffffffffffffffffffffffffffffffffff161461041b57600080fd5b80600160006101000a81548173ffffffffffffffffffffffffffffffffffffffff021916908373ffffffffffffffffffffffffffffffffffffffff16021790555050565b60008054906101000a900473ffffffffffffffffffffffffffffffffffffffff1673ffffffffffffffffffffffffffffffffffffffff163373ffffffffffffffffffffffffffffffffffffffff16146104b757600080fd5b600160009054906101000a900473ffffffffffffffffffffffffffffffffffffffff1673ffffffffffffffffffffffffffffffffffffffff1663af64438c83836040518363ffffffff1660e01b8152600401610514929190610abd565b600060405180830381600087803b15801561052e57600080fd5b505af1158015610542573d6000803e3d6000fd5b505050505050565b7fda9ff91ffb3fb7ecc0fc804eb17887ce89c15d23f18cc63061444cea6924b8b8816040516105799190610a5c565b60405180910390a150565b60008054906101000a900473ffffffffffffffffffffffffffffffffffffffff1673ffffffffffffffffffffffffffffffffffffffff163373ffffffffffffffffffffffffffffffffffffffff16146105dc57600080fd5b60008054906101000a900473ffffffffffffffffffffffffffffffffffffffff1673ffffffffffffffffffffffffffffffffffffffff16ff5b600160009054906101000a900473ffffffffffffffffffffffffffffffffffffffff1681565b600080fd5b600080fd5b600061ffff82169050919050565b61065c81610645565b811461066757600080fd5b50565b60008135905061067981610653565b92915050565b600080fd5b600080fd5b600080fd5b60008083601f8401126106a4576106a361067f565b5b8235905067ffffffffffffffff8111156106c1576106c0610684565b5b6020830191508360208202830111156106dd576106dc610689565b5b9250929050565b60008115159050919050565b6106f9816106e4565b811461070457600080fd5b50565b600081359050610716816106f0565b92915050565b600080600080606085870312156107365761073561063b565b5b60006107448782880161066a565b945050602085013567ffffffffffffffff81111561076557610764610640565b5b6107718782880161068e565b9350935050604061078487828801610707565b91505092959194509250565b6000602082840312156107a6576107a561063b565b5b60006107b48482850161066a565b91505092915050565b600073ffffffffffffffffffffffffffffffffffffffff82169050919050565b60006107e8826107bd565b9050919050565b6107f8816107dd565b82525050565b600060208201905061081360008301846107ef565b92915050565b6000819050919050565b61082c81610819565b811461083757600080fd5b50565b60008135905061084981610823565b92915050565b6000806000606084860312156108685761086761063b565b5b60006108768682870161066a565b93505060206108878682870161083a565b92505060406108988682870161083a565b9150509250925092565b6108ab816107dd565b81146108b657600080fd5b50565b6000813590506108c8816108a2565b92915050565b6000602082840312156108e4576108e361063b565b5b60006108f2848285016108b9565b91505092915050565b600080604083850312156109125761091161063b565b5b60006109208582860161066a565b9250506020610931858286016108b9565b9150509250929050565b61094481610645565b82525050565b600082825260208201905092915050565b6000819050919050565b61096e81610645565b82525050565b60006109808383610965565b60208301905092915050565b600061099b602084018461066a565b905092915050565b6000602082019050919050565b60006109bc838561094a565b93506109c78261095b565b8060005b85811015610a00576109dd828461098c565b6109e78882610974565b97506109f2836109a3565b9250506001810190506109cb565b5085925050509392505050565b610a16816106e4565b82525050565b6000606082019050610a31600083018761093b565b8181036020830152610a448185876109b0565b9050610a536040830184610a0d565b95945050505050565b6000602082019050610a71600083018461093b565b92915050565b610a8081610819565b82525050565b6000606082019050610a9b600083018661093b565b610aa86020830185610a77565b610ab56040830184610a77565b949350505050565b6000604082019050610ad2600083018561093b565b610adf60208301846107ef565b939250505056fea26469706673582212206e1818c975ac754e0bfe322e6c6a21eba40b85002031f9858fcad3c2f9b1c48764736f6c634300080f0033",
  "immutableReferences": {},
  "source": "// SPDX-License-Identifier: MIT\npragma solidity >=0.4.22 <0.9.0;\n\nimport \"./OSPOracle.sol\";\n\ncontract OpenSourcePizzaOracle is OSPOracle {\n  modifier onlyOwner {\n    require(msg.sender == owner);\n    _;\n  }\n\n  constructor(address caller) OSPOracle(caller) {}\n\n  function updateCaller(address c) external onlyOwner {\n    caller = c;\n  }\n\n  function replyRegister(uint16 projectID, address addr) override public onlyOwner {\n    OSPOracleClient(caller).registerProject(projectID, addr);\n  }\n\n  function replySyncUpdateDeps(uint16 projectID, uint16[] calldata deps, bool isReplace) override public onlyOwner {\n    OSPOracleClient(caller).updateDeps(projectID, deps, isReplace);\n  }\n\n  function replySyncDistribute(uint16 requestID, uint fromDepIdx, uint toDepIdx) override public onlyOwner {\n    OSPOracleClient(caller).distribute(requestID, fromDepIdx, toDepIdx);\n  }\n\n  function shutdown() external onlyOwner {\n    selfdestruct(payable(owner));\n  }\n}\n",
  "sourcePath": "/Users/yinlokwong/Documents/unsw/comp6452/project2/open-source-pizza/contracts/OpenSourcePizzaOracle.sol",
  "compiler": {
    "name": "solc",
    "version": "0.8.15+commit.e14f2714.Emscripten.clang"
  },
  "schemaVersion": "3.4.8",
  "updatedAt": "2022-07-20T01:30:30.203Z",
  "devdoc": {
    "kind": "dev",
    "methods": {},
    "version": 1
  },
  "userdoc": {
    "kind": "user",
    "methods": {},
    "version": 1
  }
}