{
  "contractName": "OpenSourcePizza",
  "abi": [
    {
      "inputs": [],
      "name": "disabled",
      "outputs": [
        {
          "internalType": "bool",
          "name": "",
          "type": "bool"
        }
      ],
      "stateMutability": "view",
      "type": "function"
    },
    {
      "inputs": [
        {
          "internalType": "uint16",
          "name": "",
          "type": "uint16"
        }
      ],
      "name": "distribution",
      "outputs": [
        {
          "internalType": "uint256",
          "name": "",
          "type": "uint256"
        }
      ],
      "stateMutability": "view",
      "type": "function"
    },
    {
      "inputs": [
        {
          "internalType": "uint16",
          "name": "",
          "type": "uint16"
        }
      ],
      "name": "distributionInProgress",
      "outputs": [
        {
          "internalType": "bool",
          "name": "",
          "type": "bool"
        }
      ],
      "stateMutability": "view",
      "type": "function"
    },
    {
      "inputs": [
        {
          "internalType": "uint16",
          "name": "",
          "type": "uint16"
        }
      ],
      "name": "fundMigrations",
      "outputs": [
        {
          "internalType": "address",
          "name": "",
          "type": "address"
        }
      ],
      "stateMutability": "view",
      "type": "function"
    },
    {
      "inputs": [
        {
          "internalType": "uint16",
          "name": "",
          "type": "uint16"
        },
        {
          "internalType": "uint256",
          "name": "",
          "type": "uint256"
        }
      ],
      "name": "projectDependencies",
      "outputs": [
        {
          "internalType": "uint16",
          "name": "",
          "type": "uint16"
        }
      ],
      "stateMutability": "view",
      "type": "function"
    },
    {
      "inputs": [],
      "name": "projectOwnerWeight",
      "outputs": [
        {
          "internalType": "uint8",
          "name": "",
          "type": "uint8"
        }
      ],
      "stateMutability": "view",
      "type": "function"
    },
    {
      "inputs": [
        {
          "internalType": "uint16",
          "name": "",
          "type": "uint16"
        }
      ],
      "name": "projectOwners",
      "outputs": [
        {
          "internalType": "address",
          "name": "",
          "type": "address"
        }
      ],
      "stateMutability": "view",
      "type": "function"
    },
    {
      "inputs": [],
      "name": "singleCallMaxDepsSize",
      "outputs": [
        {
          "internalType": "uint256",
          "name": "",
          "type": "uint256"
        }
      ],
      "stateMutability": "view",
      "type": "function"
    },
    {
      "inputs": [
        {
          "internalType": "uint16",
          "name": "",
          "type": "uint16"
        }
      ],
      "name": "sponsorRequestAmounts",
      "outputs": [
        {
          "internalType": "uint256",
          "name": "",
          "type": "uint256"
        }
      ],
      "stateMutability": "view",
      "type": "function"
    },
    {
      "inputs": [
        {
          "internalType": "uint16",
          "name": "",
          "type": "uint16"
        }
      ],
      "name": "sponsorRequests",
      "outputs": [
        {
          "internalType": "uint16",
          "name": "",
          "type": "uint16"
        }
      ],
      "stateMutability": "view",
      "type": "function"
    },
    {
      "inputs": [
        {
          "internalType": "uint16",
          "name": "",
          "type": "uint16"
        }
      ],
      "name": "undistributedAmounts",
      "outputs": [
        {
          "internalType": "uint256",
          "name": "",
          "type": "uint256"
        }
      ],
      "stateMutability": "view",
      "type": "function"
    },
    {
      "inputs": [
        {
          "internalType": "address",
          "name": "oc",
          "type": "address"
        }
      ],
      "name": "updateOracle",
      "outputs": [],
      "stateMutability": "nonpayable",
      "type": "function"
    },
    {
      "inputs": [
        {
          "internalType": "uint256",
          "name": "size",
          "type": "uint256"
        }
      ],
      "name": "updateSingleCallMaxDepsSize",
      "outputs": [],
      "stateMutability": "nonpayable",
      "type": "function"
    },
    {
      "inputs": [],
      "name": "disableContract",
      "outputs": [],
      "stateMutability": "nonpayable",
      "type": "function"
    },
    {
      "inputs": [],
      "name": "enableContract",
      "outputs": [],
      "stateMutability": "nonpayable",
      "type": "function"
    },
    {
      "inputs": [
        {
          "internalType": "uint16",
          "name": "projectID",
          "type": "uint16"
        }
      ],
      "name": "register",
      "outputs": [],
      "stateMutability": "nonpayable",
      "type": "function"
    },
    {
      "inputs": [
        {
          "internalType": "uint16",
          "name": "projectID",
          "type": "uint16"
        },
        {
          "internalType": "uint16",
          "name": "requestID",
          "type": "uint16"
        }
      ],
      "name": "donateToProject",
      "outputs": [],
      "stateMutability": "payable",
      "type": "function"
    },
    {
      "inputs": [
        {
          "internalType": "uint16",
          "name": "projectID",
          "type": "uint16"
        }
      ],
      "name": "redeem",
      "outputs": [],
      "stateMutability": "payable",
      "type": "function"
    },
    {
      "inputs": [
        {
          "internalType": "uint16",
          "name": "projectID",
          "type": "uint16"
        },
        {
          "internalType": "address",
          "name": "addr",
          "type": "address"
        }
      ],
      "name": "registerProject",
      "outputs": [],
      "stateMutability": "nonpayable",
      "type": "function"
    },
    {
      "inputs": [
        {
          "internalType": "uint16",
          "name": "requestID",
          "type": "uint16"
        },
        {
          "internalType": "uint16",
          "name": "split",
          "type": "uint16"
        },
        {
          "internalType": "uint256",
          "name": "fromDepIdx",
          "type": "uint256"
        },
        {
          "internalType": "uint256",
          "name": "toDepIdx",
          "type": "uint256"
        }
      ],
      "name": "distribute",
      "outputs": [],
      "stateMutability": "nonpayable",
      "type": "function"
    },
    {
      "inputs": [
        {
          "internalType": "uint16",
          "name": "projectID",
          "type": "uint16"
        },
        {
          "internalType": "uint16[]",
          "name": "deps",
          "type": "uint16[]"
        },
        {
          "internalType": "bool",
          "name": "isReplace",
          "type": "bool"
        }
      ],
      "name": "updateDeps",
      "outputs": [],
      "stateMutability": "nonpayable",
      "type": "function"
    },
    {
      "inputs": [
        {
          "internalType": "uint16",
          "name": "projectID",
          "type": "uint16"
        },
        {
          "internalType": "address",
          "name": "mAddr",
          "type": "address"
        }
      ],
      "name": "updateMigrationAddress",
      "outputs": [],
      "stateMutability": "nonpayable",
      "type": "function"
    },
    {
      "inputs": [
        {
          "internalType": "uint16",
          "name": "projectID",
          "type": "uint16"
        }
      ],
      "name": "migrateFunds",
      "outputs": [],
      "stateMutability": "nonpayable",
      "type": "function"
    }
  ],
  "bytecode": "0x608060405260018060146101000a81548160ff0219169083151502179055506032600160156101000a81548160ff021916908360ff160217905550606460025534801561004b57600080fd5b50336000806101000a81548173ffffffffffffffffffffffffffffffffffffffff021916908373ffffffffffffffffffffffffffffffffffffffff1602179055506123358061009b6000396000f3fe6080604052600436106101405760003560e01c80638fa6abbc116100b6578063ba3af6ed1161006f578063ba3af6ed1461043c578063bb80edb914610465578063c669fa991461048e578063e5eee3b7146104cb578063ed007ebb146104f4578063ee0708051461053157610140565b80638fa6abbc146103175780639a2f16f714610354578063a5b3087414610391578063af64438c146103ba578063b8d7a624146103e3578063b95bdf911461042057610140565b8063415814231161010857806341581423146102145780635cafb53d146102305780636a8d7a201461025b57806378bcb62314610298578063894ba833146102c35780638ec7ee80146102da57610140565b806307ef7ccc1461014557806311e4807714610182578063161231db146101ab5780631cb44dfc146101d4578063367edd32146101fd575b600080fd5b34801561015157600080fd5b5061016c60048036038101906101679190611a68565b61055c565b6040516101799190611ad6565b60405180910390f35b34801561018e57600080fd5b506101a960048036038101906101a49190611b8e565b61058f565b005b3480156101b757600080fd5b506101d260048036038101906101cd9190611c2e565b610768565b005b3480156101e057600080fd5b506101fb60048036038101906101f69190611c6e565b610839565b005b34801561020957600080fd5b506102126108d5565b005b61022e60048036038101906102299190611c9b565b6109a5565b005b34801561023c57600080fd5b50610245610aeb565b6040516102529190611cf7565b60405180910390f35b34801561026757600080fd5b50610282600480360381019061027d9190611a68565b610afe565b60405161028f9190611d2b565b60405180910390f35b3480156102a457600080fd5b506102ad610b16565b6040516102ba9190611d2b565b60405180910390f35b3480156102cf57600080fd5b506102d8610b1c565b005b3480156102e657600080fd5b5061030160048036038101906102fc9190611a68565b610b90565b60405161030e9190611d55565b60405180910390f35b34801561032357600080fd5b5061033e60048036038101906103399190611a68565b610bb1565b60405161034b9190611ad6565b60405180910390f35b34801561036057600080fd5b5061037b60048036038101906103769190611a68565b610be4565b6040516103889190611d2b565b60405180910390f35b34801561039d57600080fd5b506103b860048036038101906103b39190611d9c565b610bfc565b005b3480156103c657600080fd5b506103e160048036038101906103dc9190611c2e565b610c5e565b005b3480156103ef57600080fd5b5061040a60048036038101906104059190611a68565b610d36565b6040516104179190611d2b565b60405180910390f35b61043a60048036038101906104359190611a68565b610d4e565b005b34801561044857600080fd5b50610463600480360381019061045e9190611dc9565b610f6b565b005b34801561047157600080fd5b5061048c60048036038101906104879190611a68565b611526565b005b34801561049a57600080fd5b506104b560048036038101906104b09190611a68565b611552565b6040516104c29190611e3f565b60405180910390f35b3480156104d757600080fd5b506104f260048036038101906104ed9190611a68565b611572565b005b34801561050057600080fd5b5061051b60048036038101906105169190611e5a565b611788565b6040516105289190611d55565b60405180910390f35b34801561053d57600080fd5b506105466117cf565b6040516105539190611e3f565b60405180910390f35b600a6020528060005260406000206000915054906101000a900473ffffffffffffffffffffffffffffffffffffffff1681565b600160009054906101000a900473ffffffffffffffffffffffffffffffffffffffff1673ffffffffffffffffffffffffffffffffffffffff163373ffffffffffffffffffffffffffffffffffffffff16146105e957600080fd5b60001515600160149054906101000a900460ff1615151461060957600080fd5b8360001515600860008361ffff1661ffff16815260200190815260200160002060009054906101000a900460ff1615151461064357600080fd5b60025484849050111561065557600080fd5b818061067f57506000600360008761ffff1661ffff16815260200190815260200160002080549050145b156106b4578383600360008861ffff1661ffff16815260200190815260200160002091906106ae929190611959565b50610761565b60005b8484905081101561075f57600360008761ffff1661ffff1681526020019081526020016000208585838181106106f0576106ef611e9a565b5b90506020020160208101906107059190611a68565b90806001815401808255809150506001900390600052602060002090601091828204019190066002029091909190916101000a81548161ffff021916908361ffff160217905550808061075790611ef8565b9150506106b7565b505b5050505050565b3373ffffffffffffffffffffffffffffffffffffffff16600460008461ffff1661ffff16815260200190815260200160002060009054906101000a900473ffffffffffffffffffffffffffffffffffffffff1673ffffffffffffffffffffffffffffffffffffffff16146107db57600080fd5b80600a60008461ffff1661ffff16815260200190815260200160002060006101000a81548173ffffffffffffffffffffffffffffffffffffffff021916908373ffffffffffffffffffffffffffffffffffffffff1602179055505050565b60008054906101000a900473ffffffffffffffffffffffffffffffffffffffff1673ffffffffffffffffffffffffffffffffffffffff163373ffffffffffffffffffffffffffffffffffffffff161461089157600080fd5b80600160006101000a81548173ffffffffffffffffffffffffffffffffffffffff021916908373ffffffffffffffffffffffffffffffffffffffff16021790555050565b60008054906101000a900473ffffffffffffffffffffffffffffffffffffffff1673ffffffffffffffffffffffffffffffffffffffff163373ffffffffffffffffffffffffffffffffffffffff161461092d57600080fd5b600073ffffffffffffffffffffffffffffffffffffffff16600160009054906101000a900473ffffffffffffffffffffffffffffffffffffffff1673ffffffffffffffffffffffffffffffffffffffff160361098857600080fd5b6000600160146101000a81548160ff021916908315150217905550565b60001515600160149054906101000a900460ff161515146109c557600080fd5b600034116109d257600080fd5b600061ffff16600560008361ffff1661ffff16815260200190815260200160002060009054906101000a900461ffff1661ffff1614610a1057600080fd5b600061ffff16600660008361ffff1661ffff1681526020019081526020016000205414610a3c57600080fd5b600061ffff16600760008361ffff1661ffff1681526020019081526020016000205414610a6857600080fd5b81600560008361ffff1661ffff16815260200190815260200160002060006101000a81548161ffff021916908361ffff16021790555034600660008361ffff1661ffff1681526020019081526020016000208190555034600760008361ffff1661ffff16815260200190815260200160002081905550610ae7816117e2565b5050565b600160159054906101000a900460ff1681565b60096020528060005260406000206000915090505481565b60025481565b60008054906101000a900473ffffffffffffffffffffffffffffffffffffffff1673ffffffffffffffffffffffffffffffffffffffff163373ffffffffffffffffffffffffffffffffffffffff1614610b7457600080fd5b60018060146101000a81548160ff021916908315150217905550565b60056020528060005260406000206000915054906101000a900461ffff1681565b60046020528060005260406000206000915054906101000a900473ffffffffffffffffffffffffffffffffffffffff1681565b60066020528060005260406000206000915090505481565b60008054906101000a900473ffffffffffffffffffffffffffffffffffffffff1673ffffffffffffffffffffffffffffffffffffffff163373ffffffffffffffffffffffffffffffffffffffff1614610c5457600080fd5b8060028190555050565b600160009054906101000a900473ffffffffffffffffffffffffffffffffffffffff1673ffffffffffffffffffffffffffffffffffffffff163373ffffffffffffffffffffffffffffffffffffffff1614610cb857600080fd5b60001515600160149054906101000a900460ff16151514610cd857600080fd5b80600460008461ffff1661ffff16815260200190815260200160002060006101000a81548173ffffffffffffffffffffffffffffffffffffffff021916908373ffffffffffffffffffffffffffffffffffffffff1602179055505050565b60076020528060005260406000206000915090505481565b60001515600160149054906101000a900460ff16151514610d6e57600080fd5b3373ffffffffffffffffffffffffffffffffffffffff16600460008361ffff1661ffff16815260200190815260200160002060009054906101000a900473ffffffffffffffffffffffffffffffffffffffff1673ffffffffffffffffffffffffffffffffffffffff1614610de157600080fd5b6000600960008361ffff1661ffff1681526020019081526020016000205411610e0957600080fd5b6000600960008361ffff1661ffff168152602001908152602001600020549050600080610e51600960008661ffff1661ffff1681526020019081526020016000205484611872565b9150915081610e95576040517f08c379a0000000000000000000000000000000000000000000000000000000008152600401610e8c90611f9d565b60405180910390fd5b80600960008661ffff1661ffff168152602001908152602001600020819055506000803373ffffffffffffffffffffffffffffffffffffffff1685604051610edc90611fee565b60006040518083038185875af1925050503d8060008114610f19576040519150601f19603f3d011682016040523d82523d6000602084013e610f1e565b606091505b509150915081610f63576040517f08c379a0000000000000000000000000000000000000000000000000000000008152600401610f5a9061204f565b60405180910390fd5b505050505050565b600160009054906101000a900473ffffffffffffffffffffffffffffffffffffffff1673ffffffffffffffffffffffffffffffffffffffff163373ffffffffffffffffffffffffffffffffffffffff1614610fc557600080fd5b60001515600160149054906101000a900460ff16151514610fe557600080fd5b600560008561ffff1661ffff16815260200190815260200160002060009054906101000a900461ffff1660001515600860008361ffff1661ffff16815260200190815260200160002060009054906101000a900460ff1615151461104857600080fd5b6000600560008761ffff1661ffff16815260200190815260200160002060009054906101000a900461ffff1661ffff161161108257600080fd5b6000600660008761ffff1661ffff16815260200190815260200160002054116110aa57600080fd5b6000600760008761ffff1661ffff16815260200190815260200160002054116110d257600080fd5b6000600560008761ffff1661ffff16815260200190815260200160002060009054906101000a900461ffff16905060008561ffff16111561119a578260036000600560008a61ffff1661ffff16815260200190815260200160002060009054906101000a900461ffff1661ffff1661ffff16815260200190815260200160002080549050111561116157600080fd5b6001600860008861ffff1661ffff16815260200190815260200160002060006101000a81548160ff0219169083151502179055506111c0565b60009350600360008261ffff1661ffff1681526020019081526020016000208054905092505b60025484846111cf919061206f565b11156111da57600080fd5b6000600760008861ffff1661ffff16815260200190815260200160002054905060008590505b8481101561139b5760008686611216919061206f565b8861ffff16600660008c61ffff1661ffff1681526020019081526020016000205461124191906120d2565b61124b91906120d2565b90506000600360008661ffff1661ffff168152602001908152602001600020838154811061127c5761127b611e9a565b5b90600052602060002090601091828204019190066002029054906101000a900461ffff1690506000806112ca600960008561ffff1661ffff168152602001908152602001600020548561189a565b915091508161130e576040517f08c379a00000000000000000000000000000000000000000000000000000000081526004016113059061214f565b60405180910390fd5b80600960008561ffff1661ffff1681526020019081526020016000208190555060008061133b8887611872565b915091508161137f576040517f08c379a0000000000000000000000000000000000000000000000000000000008152600401611376906121e1565b60405180910390fd5b809750505050505050808061139390611ef8565b915050611200565b5080600760008961ffff1661ffff16815260200190815260200160002081905550600360008361ffff1661ffff16815260200190815260200160002080549050840361151d57600080611409600960008661ffff1661ffff168152602001908152602001600020548461189a565b915091508161144d576040517f08c379a000000000000000000000000000000000000000000000000000000000815260040161144490612273565b60405180910390fd5b80600960008661ffff1661ffff168152602001908152602001600020819055506000600560008b61ffff1661ffff16815260200190815260200160002060006101000a81548161ffff021916908361ffff1602179055506000600660008b61ffff1661ffff168152602001908152602001600020819055506000600760008b61ffff1661ffff168152602001908152602001600020819055506000600860008b61ffff1661ffff16815260200190815260200160002060006101000a81548160ff02191690831515021790555050505b50505050505050565b60001515600160149054906101000a900460ff1615151461154657600080fd5b61154f816118c9565b50565b60086020528060005260406000206000915054906101000a900460ff1681565b60008054906101000a900473ffffffffffffffffffffffffffffffffffffffff1673ffffffffffffffffffffffffffffffffffffffff163373ffffffffffffffffffffffffffffffffffffffff16146115ca57600080fd5b600160149054906101000a900460ff166115e357600080fd5b6000600960008361ffff1661ffff168152602001908152602001600020541161160b57600080fd5b600073ffffffffffffffffffffffffffffffffffffffff16600a60008361ffff1661ffff16815260200190815260200160002060009054906101000a900473ffffffffffffffffffffffffffffffffffffffff1673ffffffffffffffffffffffffffffffffffffffff160361167f57600080fd5b600080600a60008461ffff1661ffff16815260200190815260200160002060009054906101000a900473ffffffffffffffffffffffffffffffffffffffff1673ffffffffffffffffffffffffffffffffffffffff16600960008561ffff1661ffff168152602001908152602001600020546040516116fc90611fee565b60006040518083038185875af1925050503d8060008114611739576040519150601f19603f3d011682016040523d82523d6000602084013e61173e565b606091505b509150915081611783576040517f08c379a000000000000000000000000000000000000000000000000000000000815260040161177a906122df565b60405180910390fd5b505050565b600360205281600052604060002081815481106117a457600080fd5b9060005260206000209060109182820401919006600202915091509054906101000a900461ffff1681565b600160149054906101000a900460ff1681565b600160009054906101000a900473ffffffffffffffffffffffffffffffffffffffff1673ffffffffffffffffffffffffffffffffffffffff166386670f2e826040518263ffffffff1660e01b815260040161183d9190611d55565b600060405180830381600087803b15801561185757600080fd5b505af115801561186b573d6000803e3d6000fd5b5050505050565b600080838311156118895760008091509150611893565b6001838503915091505b9250929050565b60008060008385019050848110156118b95760008092509250506118c2565b60018192509250505b9250929050565b600160009054906101000a900473ffffffffffffffffffffffffffffffffffffffff1673ffffffffffffffffffffffffffffffffffffffff1663e98e7946826040518263ffffffff1660e01b81526004016119249190611d55565b600060405180830381600087803b15801561193e57600080fd5b505af1158015611952573d6000803e3d6000fd5b5050505050565b82805482825590600052602060002090600f016010900481019282156119f65791602002820160005b838211156119c657833561ffff1683826101000a81548161ffff021916908361ffff1602179055509260200192600201602081600101049283019260010302611982565b80156119f45782816101000a81549061ffff02191690556002016020816001010492830192600103026119c6565b505b509050611a039190611a07565b5090565b5b80821115611a20576000816000905550600101611a08565b5090565b600080fd5b600080fd5b600061ffff82169050919050565b611a4581611a2e565b8114611a5057600080fd5b50565b600081359050611a6281611a3c565b92915050565b600060208284031215611a7e57611a7d611a24565b5b6000611a8c84828501611a53565b91505092915050565b600073ffffffffffffffffffffffffffffffffffffffff82169050919050565b6000611ac082611a95565b9050919050565b611ad081611ab5565b82525050565b6000602082019050611aeb6000830184611ac7565b92915050565b600080fd5b600080fd5b600080fd5b60008083601f840112611b1657611b15611af1565b5b8235905067ffffffffffffffff811115611b3357611b32611af6565b5b602083019150836020820283011115611b4f57611b4e611afb565b5b9250929050565b60008115159050919050565b611b6b81611b56565b8114611b7657600080fd5b50565b600081359050611b8881611b62565b92915050565b60008060008060608587031215611ba857611ba7611a24565b5b6000611bb687828801611a53565b945050602085013567ffffffffffffffff811115611bd757611bd6611a29565b5b611be387828801611b00565b93509350506040611bf687828801611b79565b91505092959194509250565b611c0b81611ab5565b8114611c1657600080fd5b50565b600081359050611c2881611c02565b92915050565b60008060408385031215611c4557611c44611a24565b5b6000611c5385828601611a53565b9250506020611c6485828601611c19565b9150509250929050565b600060208284031215611c8457611c83611a24565b5b6000611c9284828501611c19565b91505092915050565b60008060408385031215611cb257611cb1611a24565b5b6000611cc085828601611a53565b9250506020611cd185828601611a53565b9150509250929050565b600060ff82169050919050565b611cf181611cdb565b82525050565b6000602082019050611d0c6000830184611ce8565b92915050565b6000819050919050565b611d2581611d12565b82525050565b6000602082019050611d406000830184611d1c565b92915050565b611d4f81611a2e565b82525050565b6000602082019050611d6a6000830184611d46565b92915050565b611d7981611d12565b8114611d8457600080fd5b50565b600081359050611d9681611d70565b92915050565b600060208284031215611db257611db1611a24565b5b6000611dc084828501611d87565b91505092915050565b60008060008060808587031215611de357611de2611a24565b5b6000611df187828801611a53565b9450506020611e0287828801611a53565b9350506040611e1387828801611d87565b9250506060611e2487828801611d87565b91505092959194509250565b611e3981611b56565b82525050565b6000602082019050611e546000830184611e30565b92915050565b60008060408385031215611e7157611e70611a24565b5b6000611e7f85828601611a53565b9250506020611e9085828601611d87565b9150509250929050565b7f4e487b7100000000000000000000000000000000000000000000000000000000600052603260045260246000fd5b7f4e487b7100000000000000000000000000000000000000000000000000000000600052601160045260246000fd5b6000611f0382611d12565b91507fffffffffffffffffffffffffffffffffffffffffffffffffffffffffffffffff8203611f3557611f34611ec9565b5b600182019050919050565b600082825260208201905092915050565b7f73756274726163742062616c616e6365206572726f7200000000000000000000600082015250565b6000611f87601683611f40565b9150611f9282611f51565b602082019050919050565b60006020820190508181036000830152611fb681611f7a565b9050919050565b600081905092915050565b50565b6000611fd8600083611fbd565b9150611fe382611fc8565b600082019050919050565b6000611ff982611fcb565b9150819050919050565b7f72656465656d207472616e73616374696f6e206572726f720000000000000000600082015250565b6000612039601883611f40565b915061204482612003565b602082019050919050565b600060208201905081810360008301526120688161202c565b9050919050565b600061207a82611d12565b915061208583611d12565b92508282101561209857612097611ec9565b5b828203905092915050565b7f4e487b7100000000000000000000000000000000000000000000000000000000600052601260045260246000fd5b60006120dd82611d12565b91506120e883611d12565b9250826120f8576120f76120a3565b5b828204905092915050565b7f646973747269627574652062616c616e6365206572726f720000000000000000600082015250565b6000612139601883611f40565b915061214482612103565b602082019050919050565b600060208201905081810360008301526121688161212c565b9050919050565b7f63616c63756c6174652072656d61696e696e672062616c616e6365206572726f60008201527f7200000000000000000000000000000000000000000000000000000000000000602082015250565b60006121cb602183611f40565b91506121d68261216f565b604082019050919050565b600060208201905081810360008301526121fa816121be565b9050919050565b7f646973747269627574652072656d61696e696e672062616c616e63652065727260008201527f6f72000000000000000000000000000000000000000000000000000000000000602082015250565b600061225d602283611f40565b915061226882612201565b604082019050919050565b6000602082019050818103600083015261228c81612250565b9050919050565b7f66756e64206d6967726174696f6e206572726f72000000000000000000000000600082015250565b60006122c9601483611f40565b91506122d482612293565b602082019050919050565b600060208201905081810360008301526122f8816122bc565b905091905056fea26469706673582212209ee268a7ea21d7fb46dac5e57c89784362ed50cac61392b757ea67de99ca890964736f6c634300080f0033",
  "immutableReferences": {},
  "source": "// SPDX-License-Identifier: MIT\npragma solidity >=0.4.22 <0.9.0;\n\nimport \"./OSPOracle.sol\";\n\nimport \"@openzeppelin/contracts/utils/math/SafeMath.sol\";\n\ncontract OpenSourcePizza is OSPOracleClient {\n  bool public disabled = true;\n\n  uint8 public projectOwnerWeight = 50;\n  uint public singleCallMaxDepsSize = 100;\n\n  // projectID to projectIDs mapping for project dependencies.\n  mapping(uint16 => uint16[]) public projectDependencies;\n\n  /// projectID to project owner address mapping.\n  mapping(uint16 => address) public projectOwners;\n\n  /// requestID to projectID mapping.\n  mapping(uint16 => uint16) public sponsorRequests;\n  /// requestID to total sponsor amount mapping.\n  mapping(uint16 => uint256) public sponsorRequestAmounts;\n  /// requestID to remaining undistributed amount mapping.\n  mapping(uint16 => uint256) public undistributedAmounts;\n  /// projectIDs mapping for projects that are in the process of fund distribution.\n  mapping(uint16 => bool) public distributionInProgress;\n\n  mapping(uint16 => uint256) public distribution;\n\n  /// Addresses for locked project fund to be transferred out in case of contract migration.\n  mapping(uint16 => address) public fundMigrations;\n\n  modifier onlyOwner {\n    require(msg.sender == owner);\n    _;\n  }\n\n  modifier onlyOracle {\n    require(msg.sender == oracle);\n    _;\n  }\n\n  modifier onlyEnabled {\n    require(disabled == false);\n    _;\n  }\n\n  modifier notDistributing(uint16 projectID) {\n    require(distributionInProgress[projectID] == false);\n    _;\n  }\n\n  function updateOracle(address oc) override public onlyOwner {\n    oracle = oc;\n  }\n\n  function updateSingleCallMaxDepsSize(uint size) public onlyOwner {\n    singleCallMaxDepsSize = size;\n  }\n\n  function disableContract() public onlyOwner {\n    disabled = true;\n  }\n\n  function enableContract() public onlyOwner {\n    require(oracle != address(0));\n    disabled = false;\n  }\n\n  function register(uint16 projectID) public onlyEnabled {\n    requestRegisterFromOracle(projectID);\n  }\n\n  function donateToProject(uint16 projectID, uint16 requestID) public payable onlyEnabled {\n    require(msg.value > 0);\n    require(sponsorRequests[requestID] == uint16(0));\n    require(sponsorRequestAmounts[requestID] == uint16(0));\n    require(undistributedAmounts[requestID] == uint16(0));\n\n    sponsorRequests[requestID] = projectID;\n    sponsorRequestAmounts[requestID] = msg.value;\n    undistributedAmounts[requestID] = msg.value;\n    requestDonateFromOracle(requestID);\n  }\n\n  function redeem(uint16 projectID) public payable onlyEnabled {\n    require(projectOwners[projectID] == msg.sender);\n    require(distribution[projectID] > 0);\n\n    uint256 transferValue = distribution[projectID];\n    (bool ok, uint256 newBalance) = SafeMath.trySub(distribution[projectID], transferValue);\n    require(ok, \"subtract balance error\");\n\n    distribution[projectID] = newBalance;\n    (bool redeemOK, bytes memory result) =  msg.sender.call{value: transferValue}(\"\");\n    require(redeemOK, \"redeem transaction error\");\n  }\n\n  function registerProject(uint16 projectID, address addr) public override onlyOracle onlyEnabled {\n    projectOwners[projectID] = addr;\n  }\n\n  /// Updates the distribution mapping from the sponsor request amount,\n  /// so that project owners can later redeem the fund.\n  /// This function may be called several times for a given sponsorship request,\n  /// in case the dependency list of the project is too large to be handled in a single transaction.\n  /// @param split the number of iterations this distribute function will be called for a request\n  /// @param fromDepIdx the starting index of the dependent projectID to distribute the fund to\n  /// @param toDepIdx the ending index of the dependent projectID to distribute the fund to\n  function distribute(uint16 requestID, uint16 split, uint fromDepIdx, uint toDepIdx) public override onlyOracle onlyEnabled notDistributing(sponsorRequests[requestID]) {\n    // Make sure there's undistributed fund for this sponsor request.\n    require(sponsorRequests[requestID] > 0);\n    require(sponsorRequestAmounts[requestID] > 0);\n    require(undistributedAmounts[requestID] > 0);\n\n    uint16 sourceProjectID = sponsorRequests[requestID];\n    if (split > 0) {\n      // When this function is called multiple times for a single request.\n      // Checks when this function is called for multiple times for a single sponsorship request.\n      // Make sure the distribution has valid dependent receivers.\n      require(projectDependencies[sponsorRequests[requestID]].length <= toDepIdx);\n      distributionInProgress[requestID] = true;\n    } else {\n      // Distribute among the entire dependency list.\n      fromDepIdx = 0;\n      toDepIdx = projectDependencies[sourceProjectID].length;\n    }\n\n    // Distribute to a maximum number of dependent projects in a single transaction.\n    require(toDepIdx - fromDepIdx <= singleCallMaxDepsSize);\n \n    uint256 remaining = undistributedAmounts[requestID];\n    for (uint i = fromDepIdx; i < toDepIdx; i++) {\n      uint256 singleDepShare = sponsorRequestAmounts[requestID] / split / (toDepIdx - fromDepIdx);\n      uint16 depProjectID = projectDependencies[sourceProjectID][i];\n      (bool addOK, uint256 newDepBalance) = SafeMath.tryAdd(distribution[depProjectID], singleDepShare);\n      require(addOK, \"distribute balance error\");\n      distribution[depProjectID] = newDepBalance;\n\n      (bool subOK, uint256 newRemaining) = SafeMath.trySub(remaining, singleDepShare);\n      require(subOK, \"calculate remaining balance error\");\n      remaining = newRemaining;\n    }\n    undistributedAmounts[requestID] = remaining;\n\n    // Only distributes to source project when all dependent funds have been distributed.\n    if (toDepIdx == projectDependencies[sourceProjectID].length) {\n      // Give source project the remaining fund, only if distribution among dependents are successful.\n      (bool ok, uint256 newBalance) = SafeMath.tryAdd(distribution[sourceProjectID], remaining);\n      require(ok, \"distribute remaining balance error\");\n      distribution[sourceProjectID] = newBalance;\n\n      // Reset request params.\n      sponsorRequests[requestID] = 0;\n      sponsorRequestAmounts[requestID] = 0;\n      undistributedAmounts[requestID] = 0;\n      distributionInProgress[requestID] = false;\n    }\n  }\n\n  function updateDeps(\n    uint16 projectID,\n    uint16[] calldata deps,\n    bool isReplace\n  ) public override onlyOracle onlyEnabled notDistributing(projectID) {\n    require(deps.length <= singleCallMaxDepsSize);\n\n    // Replace dependencies.\n    if (isReplace || projectDependencies[projectID].length == 0) {\n      projectDependencies[projectID] = deps;\n      return;\n    }\n\n    // Append to existing dependencies\n    for (uint i = 0; i < deps.length; i++) {\n      projectDependencies[projectID].push(deps[i]);\n    }\n  }\n\n  // Set up migration addresses for locked fund to be transferred out.\n  function updateMigrationAddress(uint16 projectID, address mAddr) public {\n    require(projectOwners[projectID] == msg.sender);\n\n    fundMigrations[projectID] = mAddr;\n  }\n\n  // Transfer locked fund in case of contract migration.\n  function migrateFunds(uint16 projectID) public onlyOwner {\n    require(disabled);\n    require(distribution[projectID] > 0);\n    require(fundMigrations[projectID] != address(0));\n\n    (bool ok, bytes memory result) = payable(fundMigrations[projectID]).call{value: distribution[projectID]}(\"\");\n    require(ok, \"fund migration error\");\n  }\n}\n",
  "sourcePath": "/Users/yinlokwong/Documents/unsw/comp6452/project2/open-source-pizza/contracts/OpenSourcePizza.sol",
  "compiler": {
    "name": "solc",
    "version": "0.8.15+commit.e14f2714.Emscripten.clang"
  },
  "schemaVersion": "3.4.8",
  "updatedAt": "2022-07-19T22:46:45.307Z",
  "devdoc": {
    "kind": "dev",
    "methods": {
      "distribute(uint16,uint16,uint256,uint256)": {
        "params": {
          "fromDepIdx": "the starting index of the dependent projectID to distribute the fund to",
          "split": "the number of iterations this distribute function will be called for a request",
          "toDepIdx": "the ending index of the dependent projectID to distribute the fund to"
        }
      }
    },
    "version": 1
  },
  "userdoc": {
    "kind": "user",
    "methods": {
      "distribute(uint16,uint16,uint256,uint256)": {
        "notice": "Updates the distribution mapping from the sponsor request amount, so that project owners can later redeem the fund. This function may be called several times for a given sponsorship request, in case the dependency list of the project is too large to be handled in a single transaction."
      },
      "distributionInProgress(uint16)": {
        "notice": "projectIDs mapping for projects that are in the process of fund distribution."
      },
      "fundMigrations(uint16)": {
        "notice": "Addresses for locked project fund to be transferred out in case of contract migration."
      },
      "projectOwners(uint16)": {
        "notice": "projectID to project owner address mapping."
      },
      "sponsorRequestAmounts(uint16)": {
        "notice": "requestID to total sponsor amount mapping."
      },
      "sponsorRequests(uint16)": {
        "notice": "requestID to projectID mapping."
      },
      "undistributedAmounts(uint16)": {
        "notice": "requestID to remaining undistributed amount mapping."
      }
    },
    "version": 1
  }
}