{
  "contractName": "OpenSourcePizza",
  "abi": [
    {
      "inputs": [],
      "name": "disabled",
      "outputs": [
        {
          "internalType": "bool",
          "name": "",
          "type": "bool"
        }
      ],
      "stateMutability": "view",
      "type": "function"
    },
    {
      "inputs": [
        {
          "internalType": "uint16",
          "name": "",
          "type": "uint16"
        }
      ],
      "name": "distribution",
      "outputs": [
        {
          "internalType": "uint256",
          "name": "",
          "type": "uint256"
        }
      ],
      "stateMutability": "view",
      "type": "function"
    },
    {
      "inputs": [
        {
          "internalType": "uint16",
          "name": "",
          "type": "uint16"
        }
      ],
      "name": "fundMigrations",
      "outputs": [
        {
          "internalType": "address",
          "name": "",
          "type": "address"
        }
      ],
      "stateMutability": "view",
      "type": "function"
    },
    {
      "inputs": [
        {
          "internalType": "uint16",
          "name": "",
          "type": "uint16"
        },
        {
          "internalType": "uint256",
          "name": "",
          "type": "uint256"
        }
      ],
      "name": "projectDependencies",
      "outputs": [
        {
          "internalType": "uint16",
          "name": "",
          "type": "uint16"
        }
      ],
      "stateMutability": "view",
      "type": "function"
    },
    {
      "inputs": [],
      "name": "projectOwnerWeight",
      "outputs": [
        {
          "internalType": "uint8",
          "name": "",
          "type": "uint8"
        }
      ],
      "stateMutability": "view",
      "type": "function"
    },
    {
      "inputs": [
        {
          "internalType": "uint16",
          "name": "",
          "type": "uint16"
        }
      ],
      "name": "projectOwners",
      "outputs": [
        {
          "internalType": "address",
          "name": "",
          "type": "address"
        }
      ],
      "stateMutability": "view",
      "type": "function"
    },
    {
      "inputs": [
        {
          "internalType": "uint16",
          "name": "",
          "type": "uint16"
        }
      ],
      "name": "sponsorRequestAmounts",
      "outputs": [
        {
          "internalType": "uint256",
          "name": "",
          "type": "uint256"
        }
      ],
      "stateMutability": "view",
      "type": "function"
    },
    {
      "inputs": [
        {
          "internalType": "uint16",
          "name": "",
          "type": "uint16"
        }
      ],
      "name": "sponsorRequests",
      "outputs": [
        {
          "internalType": "uint16",
          "name": "",
          "type": "uint16"
        }
      ],
      "stateMutability": "view",
      "type": "function"
    },
    {
      "inputs": [
        {
          "internalType": "uint16",
          "name": "",
          "type": "uint16"
        }
      ],
      "name": "undistributedAmounts",
      "outputs": [
        {
          "internalType": "uint256",
          "name": "",
          "type": "uint256"
        }
      ],
      "stateMutability": "view",
      "type": "function"
    },
    {
      "inputs": [
        {
          "internalType": "address",
          "name": "oc",
          "type": "address"
        }
      ],
      "name": "updateOracle",
      "outputs": [],
      "stateMutability": "nonpayable",
      "type": "function"
    },
    {
      "inputs": [],
      "name": "disableContract",
      "outputs": [],
      "stateMutability": "nonpayable",
      "type": "function"
    },
    {
      "inputs": [],
      "name": "enableContract",
      "outputs": [],
      "stateMutability": "nonpayable",
      "type": "function"
    },
    {
      "inputs": [
        {
          "internalType": "uint16",
          "name": "projectID",
          "type": "uint16"
        }
      ],
      "name": "register",
      "outputs": [],
      "stateMutability": "nonpayable",
      "type": "function"
    },
    {
      "inputs": [
        {
          "internalType": "uint16",
          "name": "projectID",
          "type": "uint16"
        },
        {
          "internalType": "uint16",
          "name": "requestID",
          "type": "uint16"
        }
      ],
      "name": "donateToProject",
      "outputs": [],
      "stateMutability": "payable",
      "type": "function"
    },
    {
      "inputs": [
        {
          "internalType": "uint16",
          "name": "projectID",
          "type": "uint16"
        }
      ],
      "name": "redeem",
      "outputs": [],
      "stateMutability": "payable",
      "type": "function"
    },
    {
      "inputs": [
        {
          "internalType": "uint16",
          "name": "projectID",
          "type": "uint16"
        },
        {
          "internalType": "address",
          "name": "addr",
          "type": "address"
        }
      ],
      "name": "registerProject",
      "outputs": [],
      "stateMutability": "nonpayable",
      "type": "function"
    },
    {
      "inputs": [
        {
          "internalType": "uint16",
          "name": "requestID",
          "type": "uint16"
        },
        {
          "internalType": "uint16",
          "name": "split",
          "type": "uint16"
        },
        {
          "internalType": "uint256",
          "name": "fromDepIdx",
          "type": "uint256"
        },
        {
          "internalType": "uint256",
          "name": "toDepIdx",
          "type": "uint256"
        }
      ],
      "name": "distribute",
      "outputs": [],
      "stateMutability": "nonpayable",
      "type": "function"
    },
    {
      "inputs": [
        {
          "internalType": "uint16",
          "name": "projectID",
          "type": "uint16"
        },
        {
          "internalType": "uint16[]",
          "name": "deps",
          "type": "uint16[]"
        },
        {
          "internalType": "bool",
          "name": "isReplace",
          "type": "bool"
        }
      ],
      "name": "updateDeps",
      "outputs": [],
      "stateMutability": "nonpayable",
      "type": "function"
    },
    {
      "inputs": [
        {
          "internalType": "uint16",
          "name": "projectID",
          "type": "uint16"
        },
        {
          "internalType": "address",
          "name": "mAddr",
          "type": "address"
        }
      ],
      "name": "updateMigrationAddress",
      "outputs": [],
      "stateMutability": "nonpayable",
      "type": "function"
    },
    {
      "inputs": [
        {
          "internalType": "uint16",
          "name": "projectID",
          "type": "uint16"
        }
      ],
      "name": "migrateFunds",
      "outputs": [],
      "stateMutability": "nonpayable",
      "type": "function"
    }
  ],
  "bytecode": "0x608060405260018060146101000a81548160ff0219169083151502179055506032600160156101000a81548160ff021916908360ff16021790555034801561004657600080fd5b50336000806101000a81548173ffffffffffffffffffffffffffffffffffffffff021916908373ffffffffffffffffffffffffffffffffffffffff16021790555061209c806100966000396000f3fe60806040526004361061011f5760003560e01c80638fa6abbc116100a0578063ba3af6ed11610064578063ba3af6ed146103c7578063bb80edb9146103f0578063e5eee3b714610419578063ed007ebb14610442578063ee0708051461047f5761011f565b80638fa6abbc146102cb5780639a2f16f714610308578063af64438c14610345578063b8d7a6241461036e578063b95bdf91146103ab5761011f565b806341581423116100e757806341581423146101f35780635cafb53d1461020f5780636a8d7a201461023a578063894ba833146102775780638ec7ee801461028e5761011f565b806307ef7ccc1461012457806311e4807714610161578063161231db1461018a5780631cb44dfc146101b3578063367edd32146101dc575b600080fd5b34801561013057600080fd5b5061014b600480360381019061014691906117fc565b6104aa565b604051610158919061186a565b60405180910390f35b34801561016d57600080fd5b5061018860048036038101906101839190611922565b6104dd565b005b34801561019657600080fd5b506101b160048036038101906101ac91906119c2565b610651565b005b3480156101bf57600080fd5b506101da60048036038101906101d59190611a02565b610722565b005b3480156101e857600080fd5b506101f16107be565b005b61020d60048036038101906102089190611a2f565b61088e565b005b34801561021b57600080fd5b506102246109d4565b6040516102319190611a8b565b60405180910390f35b34801561024657600080fd5b50610261600480360381019061025c91906117fc565b6109e7565b60405161026e9190611abf565b60405180910390f35b34801561028357600080fd5b5061028c6109ff565b005b34801561029a57600080fd5b506102b560048036038101906102b091906117fc565b610a73565b6040516102c29190611ae9565b60405180910390f35b3480156102d757600080fd5b506102f260048036038101906102ed91906117fc565b610a94565b6040516102ff919061186a565b60405180910390f35b34801561031457600080fd5b5061032f600480360381019061032a91906117fc565b610ac7565b60405161033c9190611abf565b60405180910390f35b34801561035157600080fd5b5061036c600480360381019061036791906119c2565b610adf565b005b34801561037a57600080fd5b50610395600480360381019061039091906117fc565b610bb7565b6040516103a29190611abf565b60405180910390f35b6103c560048036038101906103c091906117fc565b610bcf565b005b3480156103d357600080fd5b506103ee60048036038101906103e99190611b30565b610dec565b005b3480156103fc57600080fd5b50610417600480360381019061041291906117fc565b6112da565b005b34801561042557600080fd5b50610440600480360381019061043b91906117fc565b611306565b005b34801561044e57600080fd5b5061046960048036038101906104649190611b97565b61151c565b6040516104769190611ae9565b60405180910390f35b34801561048b57600080fd5b50610494611563565b6040516104a19190611be6565b60405180910390f35b60086020528060005260406000206000915054906101000a900473ffffffffffffffffffffffffffffffffffffffff1681565b600160009054906101000a900473ffffffffffffffffffffffffffffffffffffffff1673ffffffffffffffffffffffffffffffffffffffff163373ffffffffffffffffffffffffffffffffffffffff161461053757600080fd5b60001515600160149054906101000a900460ff1615151461055757600080fd5b606483839050111561056857600080fd5b801561059e578282600260008761ffff1661ffff16815260200190815260200160002091906105989291906116ed565b5061064b565b60005b8383905081101561064957600260008661ffff1661ffff1681526020019081526020016000208484838181106105da576105d9611c01565b5b90506020020160208101906105ef91906117fc565b90806001815401808255809150506001900390600052602060002090601091828204019190066002029091909190916101000a81548161ffff021916908361ffff160217905550808061064190611c5f565b9150506105a1565b505b50505050565b3373ffffffffffffffffffffffffffffffffffffffff16600360008461ffff1661ffff16815260200190815260200160002060009054906101000a900473ffffffffffffffffffffffffffffffffffffffff1673ffffffffffffffffffffffffffffffffffffffff16146106c457600080fd5b80600860008461ffff1661ffff16815260200190815260200160002060006101000a81548173ffffffffffffffffffffffffffffffffffffffff021916908373ffffffffffffffffffffffffffffffffffffffff1602179055505050565b60008054906101000a900473ffffffffffffffffffffffffffffffffffffffff1673ffffffffffffffffffffffffffffffffffffffff163373ffffffffffffffffffffffffffffffffffffffff161461077a57600080fd5b80600160006101000a81548173ffffffffffffffffffffffffffffffffffffffff021916908373ffffffffffffffffffffffffffffffffffffffff16021790555050565b60008054906101000a900473ffffffffffffffffffffffffffffffffffffffff1673ffffffffffffffffffffffffffffffffffffffff163373ffffffffffffffffffffffffffffffffffffffff161461081657600080fd5b600073ffffffffffffffffffffffffffffffffffffffff16600160009054906101000a900473ffffffffffffffffffffffffffffffffffffffff1673ffffffffffffffffffffffffffffffffffffffff160361087157600080fd5b6000600160146101000a81548160ff021916908315150217905550565b60001515600160149054906101000a900460ff161515146108ae57600080fd5b600034116108bb57600080fd5b600061ffff16600460008361ffff1661ffff16815260200190815260200160002060009054906101000a900461ffff1661ffff16146108f957600080fd5b600061ffff16600560008361ffff1661ffff168152602001908152602001600020541461092557600080fd5b600061ffff16600660008361ffff1661ffff168152602001908152602001600020541461095157600080fd5b81600460008361ffff1661ffff16815260200190815260200160002060006101000a81548161ffff021916908361ffff16021790555034600560008361ffff1661ffff1681526020019081526020016000208190555034600660008361ffff1661ffff168152602001908152602001600020819055506109d081611576565b5050565b600160159054906101000a900460ff1681565b60076020528060005260406000206000915090505481565b60008054906101000a900473ffffffffffffffffffffffffffffffffffffffff1673ffffffffffffffffffffffffffffffffffffffff163373ffffffffffffffffffffffffffffffffffffffff1614610a5757600080fd5b60018060146101000a81548160ff021916908315150217905550565b60046020528060005260406000206000915054906101000a900461ffff1681565b60036020528060005260406000206000915054906101000a900473ffffffffffffffffffffffffffffffffffffffff1681565b60056020528060005260406000206000915090505481565b600160009054906101000a900473ffffffffffffffffffffffffffffffffffffffff1673ffffffffffffffffffffffffffffffffffffffff163373ffffffffffffffffffffffffffffffffffffffff1614610b3957600080fd5b60001515600160149054906101000a900460ff16151514610b5957600080fd5b80600360008461ffff1661ffff16815260200190815260200160002060006101000a81548173ffffffffffffffffffffffffffffffffffffffff021916908373ffffffffffffffffffffffffffffffffffffffff1602179055505050565b60066020528060005260406000206000915090505481565b60001515600160149054906101000a900460ff16151514610bef57600080fd5b3373ffffffffffffffffffffffffffffffffffffffff16600360008361ffff1661ffff16815260200190815260200160002060009054906101000a900473ffffffffffffffffffffffffffffffffffffffff1673ffffffffffffffffffffffffffffffffffffffff1614610c6257600080fd5b6000600760008361ffff1661ffff1681526020019081526020016000205411610c8a57600080fd5b6000600760008361ffff1661ffff168152602001908152602001600020549050600080610cd2600760008661ffff1661ffff1681526020019081526020016000205484611606565b9150915081610d16576040517f08c379a0000000000000000000000000000000000000000000000000000000008152600401610d0d90611d04565b60405180910390fd5b80600760008661ffff1661ffff168152602001908152602001600020819055506000803373ffffffffffffffffffffffffffffffffffffffff1685604051610d5d90611d55565b60006040518083038185875af1925050503d8060008114610d9a576040519150601f19603f3d011682016040523d82523d6000602084013e610d9f565b606091505b509150915081610de4576040517f08c379a0000000000000000000000000000000000000000000000000000000008152600401610ddb90611db6565b60405180910390fd5b505050505050565b600160009054906101000a900473ffffffffffffffffffffffffffffffffffffffff1673ffffffffffffffffffffffffffffffffffffffff163373ffffffffffffffffffffffffffffffffffffffff1614610e4657600080fd5b60001515600160149054906101000a900460ff16151514610e6657600080fd5b6000600460008661ffff1661ffff16815260200190815260200160002060009054906101000a900461ffff1661ffff1611610ea057600080fd5b6000600560008661ffff1661ffff1681526020019081526020016000205411610ec857600080fd5b6000600660008661ffff1661ffff1681526020019081526020016000205411610ef057600080fd5b6000600460008661ffff1661ffff16815260200190815260200160002060009054906101000a900461ffff16905060008461ffff161115610f84578160026000600460008961ffff1661ffff16815260200190815260200160002060009054906101000a900461ffff1661ffff1661ffff168152602001908152602001600020805490501115610f7f57600080fd5b610faa565b60009250600260008261ffff1661ffff1681526020019081526020016000208054905091505b60648383610fb89190611dd6565b1115610fc357600080fd5b6000600660008761ffff1661ffff16815260200190815260200160002054905060008490505b838110156111845760008585610fff9190611dd6565b8761ffff16600560008b61ffff1661ffff1681526020019081526020016000205461102a9190611e39565b6110349190611e39565b90506000600260008661ffff1661ffff168152602001908152602001600020838154811061106557611064611c01565b5b90600052602060002090601091828204019190066002029054906101000a900461ffff1690506000806110b3600760008561ffff1661ffff168152602001908152602001600020548561162e565b91509150816110f7576040517f08c379a00000000000000000000000000000000000000000000000000000000081526004016110ee90611eb6565b60405180910390fd5b80600760008561ffff1661ffff168152602001908152602001600020819055506000806111248887611606565b9150915081611168576040517f08c379a000000000000000000000000000000000000000000000000000000000815260040161115f90611f48565b60405180910390fd5b809750505050505050808061117c90611c5f565b915050610fe9565b5080600660008861ffff1661ffff16815260200190815260200160002081905550600260008361ffff1661ffff1681526020019081526020016000208054905083036112d2576000806111f2600760008661ffff1661ffff168152602001908152602001600020548461162e565b9150915081611236576040517f08c379a000000000000000000000000000000000000000000000000000000000815260040161122d90611fda565b60405180910390fd5b80600760008661ffff1661ffff168152602001908152602001600020819055506000600460008a61ffff1661ffff16815260200190815260200160002060006101000a81548161ffff021916908361ffff1602179055506000600560008a61ffff1661ffff168152602001908152602001600020819055506000600660008a61ffff1661ffff1681526020019081526020016000208190555050505b505050505050565b60001515600160149054906101000a900460ff161515146112fa57600080fd5b6113038161165d565b50565b60008054906101000a900473ffffffffffffffffffffffffffffffffffffffff1673ffffffffffffffffffffffffffffffffffffffff163373ffffffffffffffffffffffffffffffffffffffff161461135e57600080fd5b600160149054906101000a900460ff1661137757600080fd5b6000600760008361ffff1661ffff168152602001908152602001600020541161139f57600080fd5b600073ffffffffffffffffffffffffffffffffffffffff16600860008361ffff1661ffff16815260200190815260200160002060009054906101000a900473ffffffffffffffffffffffffffffffffffffffff1673ffffffffffffffffffffffffffffffffffffffff160361141357600080fd5b600080600860008461ffff1661ffff16815260200190815260200160002060009054906101000a900473ffffffffffffffffffffffffffffffffffffffff1673ffffffffffffffffffffffffffffffffffffffff16600760008561ffff1661ffff1681526020019081526020016000205460405161149090611d55565b60006040518083038185875af1925050503d80600081146114cd576040519150601f19603f3d011682016040523d82523d6000602084013e6114d2565b606091505b509150915081611517576040517f08c379a000000000000000000000000000000000000000000000000000000000815260040161150e90612046565b60405180910390fd5b505050565b6002602052816000526040600020818154811061153857600080fd5b9060005260206000209060109182820401919006600202915091509054906101000a900461ffff1681565b600160149054906101000a900460ff1681565b600160009054906101000a900473ffffffffffffffffffffffffffffffffffffffff1673ffffffffffffffffffffffffffffffffffffffff166386670f2e826040518263ffffffff1660e01b81526004016115d19190611ae9565b600060405180830381600087803b1580156115eb57600080fd5b505af11580156115ff573d6000803e3d6000fd5b5050505050565b6000808383111561161d5760008091509150611627565b6001838503915091505b9250929050565b600080600083850190508481101561164d576000809250925050611656565b60018192509250505b9250929050565b600160009054906101000a900473ffffffffffffffffffffffffffffffffffffffff1673ffffffffffffffffffffffffffffffffffffffff1663e98e7946826040518263ffffffff1660e01b81526004016116b89190611ae9565b600060405180830381600087803b1580156116d257600080fd5b505af11580156116e6573d6000803e3d6000fd5b5050505050565b82805482825590600052602060002090600f0160109004810192821561178a5791602002820160005b8382111561175a57833561ffff1683826101000a81548161ffff021916908361ffff1602179055509260200192600201602081600101049283019260010302611716565b80156117885782816101000a81549061ffff021916905560020160208160010104928301926001030261175a565b505b509050611797919061179b565b5090565b5b808211156117b457600081600090555060010161179c565b5090565b600080fd5b600080fd5b600061ffff82169050919050565b6117d9816117c2565b81146117e457600080fd5b50565b6000813590506117f6816117d0565b92915050565b600060208284031215611812576118116117b8565b5b6000611820848285016117e7565b91505092915050565b600073ffffffffffffffffffffffffffffffffffffffff82169050919050565b600061185482611829565b9050919050565b61186481611849565b82525050565b600060208201905061187f600083018461185b565b92915050565b600080fd5b600080fd5b600080fd5b60008083601f8401126118aa576118a9611885565b5b8235905067ffffffffffffffff8111156118c7576118c661188a565b5b6020830191508360208202830111156118e3576118e261188f565b5b9250929050565b60008115159050919050565b6118ff816118ea565b811461190a57600080fd5b50565b60008135905061191c816118f6565b92915050565b6000806000806060858703121561193c5761193b6117b8565b5b600061194a878288016117e7565b945050602085013567ffffffffffffffff81111561196b5761196a6117bd565b5b61197787828801611894565b9350935050604061198a8782880161190d565b91505092959194509250565b61199f81611849565b81146119aa57600080fd5b50565b6000813590506119bc81611996565b92915050565b600080604083850312156119d9576119d86117b8565b5b60006119e7858286016117e7565b92505060206119f8858286016119ad565b9150509250929050565b600060208284031215611a1857611a176117b8565b5b6000611a26848285016119ad565b91505092915050565b60008060408385031215611a4657611a456117b8565b5b6000611a54858286016117e7565b9250506020611a65858286016117e7565b9150509250929050565b600060ff82169050919050565b611a8581611a6f565b82525050565b6000602082019050611aa06000830184611a7c565b92915050565b6000819050919050565b611ab981611aa6565b82525050565b6000602082019050611ad46000830184611ab0565b92915050565b611ae3816117c2565b82525050565b6000602082019050611afe6000830184611ada565b92915050565b611b0d81611aa6565b8114611b1857600080fd5b50565b600081359050611b2a81611b04565b92915050565b60008060008060808587031215611b4a57611b496117b8565b5b6000611b58878288016117e7565b9450506020611b69878288016117e7565b9350506040611b7a87828801611b1b565b9250506060611b8b87828801611b1b565b91505092959194509250565b60008060408385031215611bae57611bad6117b8565b5b6000611bbc858286016117e7565b9250506020611bcd85828601611b1b565b9150509250929050565b611be0816118ea565b82525050565b6000602082019050611bfb6000830184611bd7565b92915050565b7f4e487b7100000000000000000000000000000000000000000000000000000000600052603260045260246000fd5b7f4e487b7100000000000000000000000000000000000000000000000000000000600052601160045260246000fd5b6000611c6a82611aa6565b91507fffffffffffffffffffffffffffffffffffffffffffffffffffffffffffffffff8203611c9c57611c9b611c30565b5b600182019050919050565b600082825260208201905092915050565b7f73756274726163742062616c616e6365206572726f7200000000000000000000600082015250565b6000611cee601683611ca7565b9150611cf982611cb8565b602082019050919050565b60006020820190508181036000830152611d1d81611ce1565b9050919050565b600081905092915050565b50565b6000611d3f600083611d24565b9150611d4a82611d2f565b600082019050919050565b6000611d6082611d32565b9150819050919050565b7f72656465656d207472616e73616374696f6e206572726f720000000000000000600082015250565b6000611da0601883611ca7565b9150611dab82611d6a565b602082019050919050565b60006020820190508181036000830152611dcf81611d93565b9050919050565b6000611de182611aa6565b9150611dec83611aa6565b925082821015611dff57611dfe611c30565b5b828203905092915050565b7f4e487b7100000000000000000000000000000000000000000000000000000000600052601260045260246000fd5b6000611e4482611aa6565b9150611e4f83611aa6565b925082611e5f57611e5e611e0a565b5b828204905092915050565b7f646973747269627574652062616c616e6365206572726f720000000000000000600082015250565b6000611ea0601883611ca7565b9150611eab82611e6a565b602082019050919050565b60006020820190508181036000830152611ecf81611e93565b9050919050565b7f63616c63756c6174652072656d61696e696e672062616c616e6365206572726f60008201527f7200000000000000000000000000000000000000000000000000000000000000602082015250565b6000611f32602183611ca7565b9150611f3d82611ed6565b604082019050919050565b60006020820190508181036000830152611f6181611f25565b9050919050565b7f646973747269627574652072656d61696e696e672062616c616e63652065727260008201527f6f72000000000000000000000000000000000000000000000000000000000000602082015250565b6000611fc4602283611ca7565b9150611fcf82611f68565b604082019050919050565b60006020820190508181036000830152611ff381611fb7565b9050919050565b7f66756e64206d6967726174696f6e206572726f72000000000000000000000000600082015250565b6000612030601483611ca7565b915061203b82611ffa565b602082019050919050565b6000602082019050818103600083015261205f81612023565b905091905056fea2646970667358221220c81c7160218186f0f5777e4068f863815839e196eee37fb3fc173f327408d3a164736f6c634300080f0033",
  "immutableReferences": {},
  "source": "// SPDX-License-Identifier: MIT\npragma solidity >=0.4.22 <0.9.0;\n\nimport \"./OSPOracle.sol\";\n\nimport \"@openzeppelin/contracts/utils/math/SafeMath.sol\";\n\ncontract OpenSourcePizza is OSPOracleClient {\n  bool public disabled = true;\n\n  uint8 public projectOwnerWeight = 50;\n\n  mapping(uint16 => uint16[]) public projectDependencies;\n\n  mapping(uint16 => address) public projectOwners;\n\n  /// requestID to projectID mapping.\n  mapping(uint16 => uint16) public sponsorRequests;\n  /// requestID to total sponsor amount mapping.\n  mapping(uint16 => uint256) public sponsorRequestAmounts;\n  /// requestID to remaining undistributed amount mapping.\n  mapping(uint16 => uint256) public undistributedAmounts;\n\n  mapping(uint16 => uint256) public distribution;\n\n  /// Addresses for locked project fund to be transferred out in case of contract migration.\n  mapping(uint16 => address) public fundMigrations;\n\n  modifier onlyOwner {\n    require(msg.sender == owner);\n    _;\n  }\n\n  modifier onlyOracle {\n    require(msg.sender == oracle);\n    _;\n  }\n\n  modifier onlyEnabled {\n    require(disabled == false);\n    _;\n  }\n\n  function updateOracle(address oc) override public onlyOwner {\n    oracle = oc;\n  }\n\n  function disableContract() public onlyOwner {\n    disabled = true;\n  }\n\n  function enableContract() public onlyOwner {\n    require(oracle != address(0));\n    disabled = false;\n  }\n\n  function register(uint16 projectID) public onlyEnabled {\n    requestRegisterFromOracle(projectID);\n  }\n\n  function donateToProject(uint16 projectID, uint16 requestID) public payable onlyEnabled {\n    require(msg.value > 0);\n    require(sponsorRequests[requestID] == uint16(0));\n    require(sponsorRequestAmounts[requestID] == uint16(0));\n    require(undistributedAmounts[requestID] == uint16(0));\n\n    sponsorRequests[requestID] = projectID;\n    sponsorRequestAmounts[requestID] = msg.value;\n    undistributedAmounts[requestID] = msg.value;\n    requestDonateFromOracle(requestID);\n  }\n\n  function redeem(uint16 projectID) public payable onlyEnabled {\n    require(projectOwners[projectID] == msg.sender);\n    require(distribution[projectID] > 0);\n\n    uint256 transferValue = distribution[projectID];\n    (bool ok, uint256 newBalance) = SafeMath.trySub(distribution[projectID], transferValue);\n    require(ok, \"subtract balance error\");\n\n    distribution[projectID] = newBalance;\n    (bool redeemOK, bytes memory result) =  msg.sender.call{value: transferValue}(\"\");\n    require(redeemOK, \"redeem transaction error\");\n  }\n\n  function registerProject(uint16 projectID, address addr) public override onlyOracle onlyEnabled {\n    projectOwners[projectID] = addr;\n  }\n\n  /// Updates the distribution mapping from the sponsor request amount,\n  /// so that project owners can later redeem the fund.\n  /// This function may be called several times for a given sponsorship request,\n  /// in case the dependency list of the project is too large to be handled in a single transaction.\n  /// @param split the number of iterations this distribute function will be called for a request\n  /// @param fromDepIdx the starting index of the dependent projectID to distribute the fund to\n  /// @param toDepIdx the ending index of the dependent projectID to distribute the fund to\n  function distribute(uint16 requestID, uint16 split, uint fromDepIdx, uint toDepIdx) public override onlyOracle onlyEnabled {\n    // Make sure there's undistributed fund for this sponsor request.\n    require(sponsorRequests[requestID] > 0);\n    require(sponsorRequestAmounts[requestID] > 0);\n    require(undistributedAmounts[requestID] > 0);\n\n    uint16 sourceProjectID = sponsorRequests[requestID];\n    if (split > 0) {\n      // When this function is called multiple times for a single request.\n      // Checks when this function is called for multiple times for a single sponsorship request.\n      // Make sure the distribution has valid dependent receivers.\n      require(projectDependencies[sponsorRequests[requestID]].length <= toDepIdx);\n    } else {\n      // Distribute among the entire dependency list.\n      fromDepIdx = 0;\n      toDepIdx = projectDependencies[sourceProjectID].length;\n    }\n\n    // Distribute to maximum 100 dependent projects in a single transaction.\n    require(toDepIdx - fromDepIdx <= 100);\n \n    uint256 remaining = undistributedAmounts[requestID];\n    for (uint i = fromDepIdx; i < toDepIdx; i++) {\n      uint256 singleDepShare = sponsorRequestAmounts[requestID] / split / (toDepIdx - fromDepIdx);\n      uint16 depProjectID = projectDependencies[sourceProjectID][i];\n      (bool addOK, uint256 newDepBalance) = SafeMath.tryAdd(distribution[depProjectID], singleDepShare);\n      require(addOK, \"distribute balance error\");\n      distribution[depProjectID] = newDepBalance;\n\n      (bool subOK, uint256 newRemaining) = SafeMath.trySub(remaining, singleDepShare);\n      require(subOK, \"calculate remaining balance error\");\n      remaining = newRemaining;\n    }\n    undistributedAmounts[requestID] = remaining;\n\n    // Only distributes to source project when all dependent funds have been distributed.\n    if (toDepIdx == projectDependencies[sourceProjectID].length) {\n      // Give source project the remaining fund, only if distribution among dependents are successful.\n      (bool ok, uint256 newBalance) = SafeMath.tryAdd(distribution[sourceProjectID], remaining);\n      require(ok, \"distribute remaining balance error\");\n      distribution[sourceProjectID] = newBalance;\n\n      // Reset request params.\n      sponsorRequests[requestID] = 0;\n      sponsorRequestAmounts[requestID] = 0;\n      undistributedAmounts[requestID] = 0;\n    }\n  }\n\n  function updateDeps(\n    uint16 projectID,\n    uint16[] calldata deps,\n    bool isReplace\n  ) external override onlyOracle onlyEnabled {\n    require(deps.length <= 100);\n\n    // Replace dependencies.\n    if (isReplace) {\n      projectDependencies[projectID] = deps;\n      return;\n    }\n\n    // Append to existing dependencies\n    for (uint i = 0; i < deps.length; i++) {\n      projectDependencies[projectID].push(deps[i]);\n    }\n  }\n\n  // Set up migration addresses for locked fund to be transferred out.\n  function updateMigrationAddress(uint16 projectID, address mAddr) public {\n    require(projectOwners[projectID] == msg.sender);\n\n    fundMigrations[projectID] = mAddr;\n  }\n\n  // Transfer locked fund in case of contract migration.\n  function migrateFunds(uint16 projectID) public onlyOwner {\n    require(disabled);\n    require(distribution[projectID] > 0);\n    require(fundMigrations[projectID] != address(0));\n\n    (bool ok, bytes memory result) = payable(fundMigrations[projectID]).call{value: distribution[projectID]}(\"\");\n    require(ok, \"fund migration error\");\n  }\n}\n",
  "sourcePath": "/Users/yinlokwong/Documents/unsw/comp6452/project2/open-source-pizza/contracts/OpenSourcePizza.sol",
  "compiler": {
    "name": "solc",
    "version": "0.8.15+commit.e14f2714.Emscripten.clang"
  },
  "schemaVersion": "3.4.8",
  "updatedAt": "2022-07-18T10:06:13.503Z",
  "devdoc": {
    "kind": "dev",
    "methods": {
      "distribute(uint16,uint16,uint256,uint256)": {
        "params": {
          "fromDepIdx": "the starting index of the dependent projectID to distribute the fund to",
          "split": "the number of iterations this distribute function will be called for a request",
          "toDepIdx": "the ending index of the dependent projectID to distribute the fund to"
        }
      }
    },
    "version": 1
  },
  "userdoc": {
    "kind": "user",
    "methods": {
      "distribute(uint16,uint16,uint256,uint256)": {
        "notice": "Updates the distribution mapping from the sponsor request amount, so that project owners can later redeem the fund. This function may be called several times for a given sponsorship request, in case the dependency list of the project is too large to be handled in a single transaction."
      },
      "fundMigrations(uint16)": {
        "notice": "Addresses for locked project fund to be transferred out in case of contract migration."
      },
      "sponsorRequestAmounts(uint16)": {
        "notice": "requestID to total sponsor amount mapping."
      },
      "sponsorRequests(uint16)": {
        "notice": "requestID to projectID mapping."
      },
      "undistributedAmounts(uint16)": {
        "notice": "requestID to remaining undistributed amount mapping."
      }
    },
    "version": 1
  }
}