{
  "contractName": "OpenSourcePizzaOracle",
  "abi": [
    {
      "inputs": [
        {
          "internalType": "address",
          "name": "caller",
          "type": "address"
        }
      ],
      "stateMutability": "nonpayable",
      "type": "constructor"
    },
    {
      "anonymous": false,
      "inputs": [
        {
          "indexed": false,
          "internalType": "uint16",
          "name": "requestID",
          "type": "uint16"
        }
      ],
      "name": "DonateEvent",
      "type": "event"
    },
    {
      "anonymous": false,
      "inputs": [
        {
          "indexed": false,
          "internalType": "uint16",
          "name": "projectID",
          "type": "uint16"
        }
      ],
      "name": "RegisterEvent",
      "type": "event"
    },
    {
      "inputs": [
        {
          "internalType": "uint16",
          "name": "requestID",
          "type": "uint16"
        }
      ],
      "name": "requestDonate",
      "outputs": [],
      "stateMutability": "nonpayable",
      "type": "function"
    },
    {
      "inputs": [
        {
          "internalType": "uint16",
          "name": "projectID",
          "type": "uint16"
        }
      ],
      "name": "requestRegister",
      "outputs": [],
      "stateMutability": "nonpayable",
      "type": "function"
    },
    {
      "inputs": [
        {
          "internalType": "address",
          "name": "c",
          "type": "address"
        }
      ],
      "name": "updateCaller",
      "outputs": [],
      "stateMutability": "nonpayable",
      "type": "function"
    },
    {
      "inputs": [
        {
          "internalType": "uint16",
          "name": "projectID",
          "type": "uint16"
        },
        {
          "internalType": "address",
          "name": "addr",
          "type": "address"
        }
      ],
      "name": "replyRegister",
      "outputs": [],
      "stateMutability": "nonpayable",
      "type": "function"
    },
    {
      "inputs": [
        {
          "internalType": "uint16",
          "name": "projectID",
          "type": "uint16"
        },
        {
          "internalType": "uint16[]",
          "name": "deps",
          "type": "uint16[]"
        },
        {
          "internalType": "bool",
          "name": "isReplace",
          "type": "bool"
        }
      ],
      "name": "replySyncUpdateDeps",
      "outputs": [],
      "stateMutability": "nonpayable",
      "type": "function"
    },
    {
      "inputs": [
        {
          "internalType": "uint16",
          "name": "requestID",
          "type": "uint16"
        },
        {
          "internalType": "uint16",
          "name": "split",
          "type": "uint16"
        },
        {
          "internalType": "uint256",
          "name": "fromDepIdx",
          "type": "uint256"
        },
        {
          "internalType": "uint256",
          "name": "toDepIdx",
          "type": "uint256"
        }
      ],
      "name": "replySyncDistribute",
      "outputs": [],
      "stateMutability": "nonpayable",
      "type": "function"
    },
    {
      "inputs": [],
      "name": "shutdown",
      "outputs": [],
      "stateMutability": "nonpayable",
      "type": "function"
    }
  ],
  "bytecode": "0x608060405234801561001057600080fd5b50604051610be4380380610be48339818101604052810190610032919061011e565b80336000806101000a81548173ffffffffffffffffffffffffffffffffffffffff021916908373ffffffffffffffffffffffffffffffffffffffff16021790555080600160006101000a81548173ffffffffffffffffffffffffffffffffffffffff021916908373ffffffffffffffffffffffffffffffffffffffff160217905550505061014b565b600080fd5b600073ffffffffffffffffffffffffffffffffffffffff82169050919050565b60006100eb826100c0565b9050919050565b6100fb816100e0565b811461010657600080fd5b50565b600081519050610118816100f2565b92915050565b600060208284031215610134576101336100bb565b5b600061014284828501610109565b91505092915050565b610a8a8061015a6000396000f3fe608060405234801561001057600080fd5b506004361061007d5760003560e01c80639b9df99b1161005b5780639b9df99b146100d6578063ca9b2603146100f2578063e98e79461461010e578063fc0e74d11461012a5761007d565b8063811f880d146100825780638663cebe1461009e57806386670f2e146100ba575b600080fd5b61009c60048036038101906100979190610683565b610134565b005b6100b860048036038101906100b3919061072d565b610225565b005b6100d460048036038101906100cf9190610794565b610316565b005b6100f060048036038101906100eb919061081f565b610350565b005b61010c6004803603810190610107919061084c565b6103ec565b005b61012860048036038101906101239190610794565b6104d7565b005b610132610511565b005b60008054906101000a900473ffffffffffffffffffffffffffffffffffffffff1673ffffffffffffffffffffffffffffffffffffffff163373ffffffffffffffffffffffffffffffffffffffff161461018c57600080fd5b600160009054906101000a900473ffffffffffffffffffffffffffffffffffffffff1673ffffffffffffffffffffffffffffffffffffffff166311e48077858585856040518563ffffffff1660e01b81526004016101ed949392919061096d565b600060405180830381600087803b15801561020757600080fd5b505af115801561021b573d6000803e3d6000fd5b5050505050505050565b60008054906101000a900473ffffffffffffffffffffffffffffffffffffffff1673ffffffffffffffffffffffffffffffffffffffff163373ffffffffffffffffffffffffffffffffffffffff161461027d57600080fd5b600160009054906101000a900473ffffffffffffffffffffffffffffffffffffffff1673ffffffffffffffffffffffffffffffffffffffff1663ba3af6ed858585856040518563ffffffff1660e01b81526004016102de94939291906109bc565b600060405180830381600087803b1580156102f857600080fd5b505af115801561030c573d6000803e3d6000fd5b5050505050505050565b7fe4e666bebfe73907c152b79f4773434caa07407680d76809cd63b75bc4caac5d816040516103459190610a01565b60405180910390a150565b60008054906101000a900473ffffffffffffffffffffffffffffffffffffffff1673ffffffffffffffffffffffffffffffffffffffff163373ffffffffffffffffffffffffffffffffffffffff16146103a857600080fd5b80600160006101000a81548173ffffffffffffffffffffffffffffffffffffffff021916908373ffffffffffffffffffffffffffffffffffffffff16021790555050565b60008054906101000a900473ffffffffffffffffffffffffffffffffffffffff1673ffffffffffffffffffffffffffffffffffffffff163373ffffffffffffffffffffffffffffffffffffffff161461044457600080fd5b600160009054906101000a900473ffffffffffffffffffffffffffffffffffffffff1673ffffffffffffffffffffffffffffffffffffffff1663af64438c83836040518363ffffffff1660e01b81526004016104a1929190610a2b565b600060405180830381600087803b1580156104bb57600080fd5b505af11580156104cf573d6000803e3d6000fd5b505050505050565b7fda9ff91ffb3fb7ecc0fc804eb17887ce89c15d23f18cc63061444cea6924b8b8816040516105069190610a01565b60405180910390a150565b60008054906101000a900473ffffffffffffffffffffffffffffffffffffffff1673ffffffffffffffffffffffffffffffffffffffff163373ffffffffffffffffffffffffffffffffffffffff161461056957600080fd5b60008054906101000a900473ffffffffffffffffffffffffffffffffffffffff1673ffffffffffffffffffffffffffffffffffffffff16ff5b600080fd5b600080fd5b600061ffff82169050919050565b6105c3816105ac565b81146105ce57600080fd5b50565b6000813590506105e0816105ba565b92915050565b600080fd5b600080fd5b600080fd5b60008083601f84011261060b5761060a6105e6565b5b8235905067ffffffffffffffff811115610628576106276105eb565b5b602083019150836020820283011115610644576106436105f0565b5b9250929050565b60008115159050919050565b6106608161064b565b811461066b57600080fd5b50565b60008135905061067d81610657565b92915050565b6000806000806060858703121561069d5761069c6105a2565b5b60006106ab878288016105d1565b945050602085013567ffffffffffffffff8111156106cc576106cb6105a7565b5b6106d8878288016105f5565b935093505060406106eb8782880161066e565b91505092959194509250565b6000819050919050565b61070a816106f7565b811461071557600080fd5b50565b60008135905061072781610701565b92915050565b60008060008060808587031215610747576107466105a2565b5b6000610755878288016105d1565b9450506020610766878288016105d1565b935050604061077787828801610718565b925050606061078887828801610718565b91505092959194509250565b6000602082840312156107aa576107a96105a2565b5b60006107b8848285016105d1565b91505092915050565b600073ffffffffffffffffffffffffffffffffffffffff82169050919050565b60006107ec826107c1565b9050919050565b6107fc816107e1565b811461080757600080fd5b50565b600081359050610819816107f3565b92915050565b600060208284031215610835576108346105a2565b5b60006108438482850161080a565b91505092915050565b60008060408385031215610863576108626105a2565b5b6000610871858286016105d1565b92505060206108828582860161080a565b9150509250929050565b610895816105ac565b82525050565b600082825260208201905092915050565b6000819050919050565b6108bf816105ac565b82525050565b60006108d183836108b6565b60208301905092915050565b60006108ec60208401846105d1565b905092915050565b6000602082019050919050565b600061090d838561089b565b9350610918826108ac565b8060005b858110156109515761092e82846108dd565b61093888826108c5565b9750610943836108f4565b92505060018101905061091c565b5085925050509392505050565b6109678161064b565b82525050565b6000606082019050610982600083018761088c565b8181036020830152610995818587610901565b90506109a4604083018461095e565b95945050505050565b6109b6816106f7565b82525050565b60006080820190506109d1600083018761088c565b6109de602083018661088c565b6109eb60408301856109ad565b6109f860608301846109ad565b95945050505050565b6000602082019050610a16600083018461088c565b92915050565b610a25816107e1565b82525050565b6000604082019050610a40600083018561088c565b610a4d6020830184610a1c565b939250505056fea264697066735822122065754e04ac92ff22ecaf180fe9fe495104c8529448387c0383a998f161385c7464736f6c634300080f0033",
  "immutableReferences": {},
  "source": "// SPDX-License-Identifier: MIT\npragma solidity >=0.4.22 <0.9.0;\n\nimport \"./OSPOracle.sol\";\n\ncontract OpenSourcePizzaOracle is OSPOracle {\n  modifier onlyOwner {\n    require(msg.sender == owner);\n    _;\n  }\n\n  constructor(address caller) OSPOracle(caller) {}\n\n  function updateCaller(address c) external onlyOwner {\n    caller = c;\n  }\n\n  function replyRegister(uint16 projectID, address addr) override public onlyOwner {\n    OSPOracleClient(caller).registerProject(projectID, addr);\n  }\n\n  function replySyncUpdateDeps(uint16 projectID, uint16[] calldata deps, bool isReplace) override public onlyOwner {\n    OSPOracleClient(caller).updateDeps(projectID, deps, isReplace);\n  }\n\n  function replySyncDistribute(uint16 requestID, uint16 split, uint fromDepIdx, uint toDepIdx) override public onlyOwner {\n    OSPOracleClient(caller).distribute(requestID, split, fromDepIdx, toDepIdx);\n  }\n\n  function shutdown() external onlyOwner {\n    selfdestruct(payable(owner));\n  }\n}\n",
  "sourcePath": "/Users/yinlokwong/Documents/unsw/comp6452/project2/open-source-pizza/contracts/OpenSourcePizzaOracle.sol",
  "compiler": {
    "name": "solc",
    "version": "0.8.15+commit.e14f2714.Emscripten.clang"
  },
  "schemaVersion": "3.4.8",
  "updatedAt": "2022-07-18T11:15:12.049Z",
  "devdoc": {
    "kind": "dev",
    "methods": {},
    "version": 1
  },
  "userdoc": {
    "kind": "user",
    "methods": {},
    "version": 1
  }
}