{
  "contractName": "OpenSourcePizza",
  "abi": [
    {
      "inputs": [],
      "name": "disabled",
      "outputs": [
        {
          "internalType": "bool",
          "name": "",
          "type": "bool"
        }
      ],
      "stateMutability": "view",
      "type": "function"
    },
    {
      "inputs": [
        {
          "internalType": "uint32",
          "name": "",
          "type": "uint32"
        }
      ],
      "name": "distribution",
      "outputs": [
        {
          "internalType": "uint256",
          "name": "",
          "type": "uint256"
        }
      ],
      "stateMutability": "view",
      "type": "function"
    },
    {
      "inputs": [
        {
          "internalType": "uint32",
          "name": "",
          "type": "uint32"
        }
      ],
      "name": "distributionInProgress",
      "outputs": [
        {
          "internalType": "uint8",
          "name": "",
          "type": "uint8"
        }
      ],
      "stateMutability": "view",
      "type": "function"
    },
    {
      "inputs": [
        {
          "internalType": "uint32",
          "name": "",
          "type": "uint32"
        }
      ],
      "name": "fundMigrations",
      "outputs": [
        {
          "internalType": "address",
          "name": "",
          "type": "address"
        }
      ],
      "stateMutability": "view",
      "type": "function"
    },
    {
      "inputs": [],
      "name": "oracle",
      "outputs": [
        {
          "internalType": "address",
          "name": "",
          "type": "address"
        }
      ],
      "stateMutability": "view",
      "type": "function"
    },
    {
      "inputs": [],
      "name": "owner",
      "outputs": [
        {
          "internalType": "address",
          "name": "",
          "type": "address"
        }
      ],
      "stateMutability": "view",
      "type": "function"
    },
    {
      "inputs": [
        {
          "internalType": "uint32",
          "name": "",
          "type": "uint32"
        },
        {
          "internalType": "uint256",
          "name": "",
          "type": "uint256"
        }
      ],
      "name": "projectDependencies",
      "outputs": [
        {
          "internalType": "uint32",
          "name": "",
          "type": "uint32"
        }
      ],
      "stateMutability": "view",
      "type": "function"
    },
    {
      "inputs": [],
      "name": "projectOwnerWeight",
      "outputs": [
        {
          "internalType": "uint8",
          "name": "",
          "type": "uint8"
        }
      ],
      "stateMutability": "view",
      "type": "function"
    },
    {
      "inputs": [
        {
          "internalType": "uint32",
          "name": "",
          "type": "uint32"
        }
      ],
      "name": "projectOwners",
      "outputs": [
        {
          "internalType": "address",
          "name": "",
          "type": "address"
        }
      ],
      "stateMutability": "view",
      "type": "function"
    },
    {
      "inputs": [],
      "name": "singleCallMaxDepsSize",
      "outputs": [
        {
          "internalType": "uint256",
          "name": "",
          "type": "uint256"
        }
      ],
      "stateMutability": "view",
      "type": "function"
    },
    {
      "inputs": [
        {
          "internalType": "uint32",
          "name": "",
          "type": "uint32"
        }
      ],
      "name": "sponsorRequestAmounts",
      "outputs": [
        {
          "internalType": "uint256",
          "name": "",
          "type": "uint256"
        }
      ],
      "stateMutability": "view",
      "type": "function"
    },
    {
      "inputs": [
        {
          "internalType": "uint32",
          "name": "",
          "type": "uint32"
        }
      ],
      "name": "sponsorRequests",
      "outputs": [
        {
          "internalType": "uint32",
          "name": "",
          "type": "uint32"
        }
      ],
      "stateMutability": "view",
      "type": "function"
    },
    {
      "inputs": [
        {
          "internalType": "uint32",
          "name": "",
          "type": "uint32"
        }
      ],
      "name": "undistributedAmounts",
      "outputs": [
        {
          "internalType": "uint256",
          "name": "",
          "type": "uint256"
        }
      ],
      "stateMutability": "view",
      "type": "function"
    },
    {
      "inputs": [
        {
          "internalType": "address",
          "name": "oc",
          "type": "address"
        }
      ],
      "name": "updateOracle",
      "outputs": [],
      "stateMutability": "nonpayable",
      "type": "function"
    },
    {
      "inputs": [
        {
          "internalType": "uint256",
          "name": "size",
          "type": "uint256"
        }
      ],
      "name": "updateSingleCallMaxDepsSize",
      "outputs": [],
      "stateMutability": "nonpayable",
      "type": "function"
    },
    {
      "inputs": [],
      "name": "disableContract",
      "outputs": [],
      "stateMutability": "nonpayable",
      "type": "function"
    },
    {
      "inputs": [],
      "name": "enableContract",
      "outputs": [],
      "stateMutability": "nonpayable",
      "type": "function"
    },
    {
      "inputs": [
        {
          "internalType": "uint32",
          "name": "projectID",
          "type": "uint32"
        }
      ],
      "name": "register",
      "outputs": [],
      "stateMutability": "nonpayable",
      "type": "function"
    },
    {
      "inputs": [
        {
          "internalType": "uint32",
          "name": "projectID",
          "type": "uint32"
        },
        {
          "internalType": "uint32",
          "name": "requestID",
          "type": "uint32"
        }
      ],
      "name": "donateToProject",
      "outputs": [],
      "stateMutability": "payable",
      "type": "function"
    },
    {
      "inputs": [
        {
          "internalType": "uint32",
          "name": "projectID",
          "type": "uint32"
        }
      ],
      "name": "redeem",
      "outputs": [],
      "stateMutability": "payable",
      "type": "function"
    },
    {
      "inputs": [
        {
          "internalType": "uint32",
          "name": "projectID",
          "type": "uint32"
        },
        {
          "internalType": "address",
          "name": "addr",
          "type": "address"
        }
      ],
      "name": "registerProject",
      "outputs": [],
      "stateMutability": "nonpayable",
      "type": "function"
    },
    {
      "inputs": [
        {
          "internalType": "uint32",
          "name": "requestID",
          "type": "uint32"
        },
        {
          "internalType": "uint256",
          "name": "fromDepIdx",
          "type": "uint256"
        },
        {
          "internalType": "uint256",
          "name": "toDepIdx",
          "type": "uint256"
        }
      ],
      "name": "distribute",
      "outputs": [],
      "stateMutability": "nonpayable",
      "type": "function"
    },
    {
      "inputs": [
        {
          "internalType": "uint32",
          "name": "projectID",
          "type": "uint32"
        },
        {
          "internalType": "uint32[]",
          "name": "deps",
          "type": "uint32[]"
        },
        {
          "internalType": "bool",
          "name": "isReplace",
          "type": "bool"
        }
      ],
      "name": "updateDeps",
      "outputs": [],
      "stateMutability": "nonpayable",
      "type": "function"
    },
    {
      "inputs": [
        {
          "internalType": "uint32",
          "name": "projectID",
          "type": "uint32"
        },
        {
          "internalType": "address",
          "name": "mAddr",
          "type": "address"
        }
      ],
      "name": "updateMigrationAddress",
      "outputs": [],
      "stateMutability": "nonpayable",
      "type": "function"
    },
    {
      "inputs": [
        {
          "internalType": "uint32",
          "name": "requestID",
          "type": "uint32"
        }
      ],
      "name": "migrateFunds",
      "outputs": [],
      "stateMutability": "payable",
      "type": "function"
    }
  ],
  "bytecode": "0x608060405260018060146101000a81548160ff0219169083151502179055506032600160156101000a81548160ff021916908360ff160217905550606460025534801561004b57600080fd5b50336000806101000a81548173ffffffffffffffffffffffffffffffffffffffff021916908373ffffffffffffffffffffffffffffffffffffffff1602179055506133f88061009b6000396000f3fe6080604052600436106101665760003560e01c8063770ddbc7116100d1578063a5b308741161008a578063cadc53f411610064578063cadc53f41461050a578063cec33bcb14610526578063eac8072014610563578063ee070805146105a057610166565b8063a5b308741461049c578063b7407637146104c5578063c31c4dd3146104e157610166565b8063770ddbc7146103b257806378bcb623146103db5780637dc0d1d014610406578063894ba833146104315780638da5cb5b146104485780639aa4e3571461047357610166565b8063367edd3211610123578063367edd32146102905780634835404f146102a75780634de741d2146102e45780635695866a146103215780635cafb53d1461034a57806372583f981461037557610166565b8063035473861461016b57806305a7508b146101a8578063130d7906146101c45780631cb44dfc146101ed5780631e2dcf13146102165780633144229314610253575b600080fd5b34801561017757600080fd5b50610192600480360381019061018d9190612318565b6105cb565b60405161019f919061235e565b60405180910390f35b6101c260048036038101906101bd9190612318565b6105e3565b005b3480156101d057600080fd5b506101eb60048036038101906101e69190612318565b6108b8565b005b3480156101f957600080fd5b50610214600480360381019061020f91906123d7565b61091a565b005b34801561022257600080fd5b5061023d60048036038101906102389190612430565b6109ec565b60405161024a919061247f565b60405180910390f35b34801561025f57600080fd5b5061027a60048036038101906102759190612318565b610a35565b604051610287919061235e565b60405180910390f35b34801561029c57600080fd5b506102a5610a4d565b005b3480156102b357600080fd5b506102ce60048036038101906102c99190612318565b610b89565b6040516102db919061235e565b60405180910390f35b3480156102f057600080fd5b5061030b60048036038101906103069190612318565b610ba1565b60405161031891906124a9565b60405180910390f35b34801561032d57600080fd5b50610348600480360381019061034391906124c4565b610bd4565b005b34801561035657600080fd5b5061035f610d1c565b60405161036c9190612520565b60405180910390f35b34801561038157600080fd5b5061039c60048036038101906103979190612318565b610d2f565b6040516103a991906124a9565b60405180910390f35b3480156103be57600080fd5b506103d960048036038101906103d491906125d8565b610d62565b005b3480156103e757600080fd5b506103f0611024565b6040516103fd919061235e565b60405180910390f35b34801561041257600080fd5b5061041b61102a565b60405161042891906124a9565b60405180910390f35b34801561043d57600080fd5b50610446611050565b005b34801561045457600080fd5b5061045d6110fa565b60405161046a91906124a9565b60405180910390f35b34801561047f57600080fd5b5061049a600480360381019061049591906124c4565b61111e565b005b3480156104a857600080fd5b506104c360048036038101906104be919061264c565b61122f565b005b6104df60048036038101906104da9190612679565b6112c7565b005b3480156104ed57600080fd5b50610508600480360381019061050391906126b9565b61158a565b005b610524600480360381019061051f9190612318565b611cb6565b005b34801561053257600080fd5b5061054d60048036038101906105489190612318565b612032565b60405161055a919061247f565b60405180910390f35b34801561056f57600080fd5b5061058a60048036038101906105859190612318565b612055565b6040516105979190612520565b60405180910390f35b3480156105ac57600080fd5b506105b5612075565b6040516105c2919061271b565b60405180910390f35b60096020528060005260406000206000915090505481565b60001515600160149054906101000a900460ff16151514610639576040517f08c379a000000000000000000000000000000000000000000000000000000000815260040161063090612793565b60405180910390fd5b803373ffffffffffffffffffffffffffffffffffffffff16600460008363ffffffff1663ffffffff16815260200190815260200160002060009054906101000a900473ffffffffffffffffffffffffffffffffffffffff1673ffffffffffffffffffffffffffffffffffffffff16146106e7576040517f08c379a00000000000000000000000000000000000000000000000000000000081526004016106de906127ff565b60405180910390fd5b6000600960008463ffffffff1663ffffffff1681526020019081526020016000205411610749576040517f08c379a00000000000000000000000000000000000000000000000000000000081526004016107409061286b565b60405180910390fd5b6000600960008463ffffffff1663ffffffff168152602001908152602001600020549050600080610799600960008763ffffffff1663ffffffff1681526020019081526020016000205484612088565b91509150816107dd576040517f08c379a00000000000000000000000000000000000000000000000000000000081526004016107d4906128d7565b60405180910390fd5b80600960008763ffffffff1663ffffffff168152602001908152602001600020819055506000803373ffffffffffffffffffffffffffffffffffffffff168560405161082890612928565b60006040518083038185875af1925050503d8060008114610865576040519150601f19603f3d011682016040523d82523d6000602084013e61086a565b606091505b5091509150816108af576040517f08c379a00000000000000000000000000000000000000000000000000000000081526004016108a690612989565b60405180910390fd5b50505050505050565b60001515600160149054906101000a900460ff1615151461090e576040517f08c379a000000000000000000000000000000000000000000000000000000000815260040161090590612793565b60405180910390fd5b610917816120b0565b50565b60008054906101000a900473ffffffffffffffffffffffffffffffffffffffff1673ffffffffffffffffffffffffffffffffffffffff163373ffffffffffffffffffffffffffffffffffffffff16146109a8576040517f08c379a000000000000000000000000000000000000000000000000000000000815260040161099f906129f5565b60405180910390fd5b80600160006101000a81548173ffffffffffffffffffffffffffffffffffffffff021916908373ffffffffffffffffffffffffffffffffffffffff16021790555050565b60036020528160005260406000208181548110610a0857600080fd5b9060005260206000209060089182820401919006600402915091509054906101000a900463ffffffff1681565b60066020528060005260406000206000915090505481565b60008054906101000a900473ffffffffffffffffffffffffffffffffffffffff1673ffffffffffffffffffffffffffffffffffffffff163373ffffffffffffffffffffffffffffffffffffffff1614610adb576040517f08c379a0000000000000000000000000000000000000000000000000000000008152600401610ad2906129f5565b60405180910390fd5b600073ffffffffffffffffffffffffffffffffffffffff16600160009054906101000a900473ffffffffffffffffffffffffffffffffffffffff1673ffffffffffffffffffffffffffffffffffffffff1603610b6c576040517f08c379a0000000000000000000000000000000000000000000000000000000008152600401610b6390612a61565b60405180910390fd5b6000600160146101000a81548160ff021916908315150217905550565b60076020528060005260406000206000915090505481565b600a6020528060005260406000206000915054906101000a900473ffffffffffffffffffffffffffffffffffffffff1681565b600160009054906101000a900473ffffffffffffffffffffffffffffffffffffffff1673ffffffffffffffffffffffffffffffffffffffff163373ffffffffffffffffffffffffffffffffffffffff1614610c64576040517f08c379a0000000000000000000000000000000000000000000000000000000008152600401610c5b90612acd565b60405180910390fd5b60001515600160149054906101000a900460ff16151514610cba576040517f08c379a0000000000000000000000000000000000000000000000000000000008152600401610cb190612793565b60405180910390fd5b80600460008463ffffffff1663ffffffff16815260200190815260200160002060006101000a81548173ffffffffffffffffffffffffffffffffffffffff021916908373ffffffffffffffffffffffffffffffffffffffff1602179055505050565b600160159054906101000a900460ff1681565b60046020528060005260406000206000915054906101000a900473ffffffffffffffffffffffffffffffffffffffff1681565b600160009054906101000a900473ffffffffffffffffffffffffffffffffffffffff1673ffffffffffffffffffffffffffffffffffffffff163373ffffffffffffffffffffffffffffffffffffffff1614610df2576040517f08c379a0000000000000000000000000000000000000000000000000000000008152600401610de990612acd565b60405180910390fd5b60001515600160149054906101000a900460ff16151514610e48576040517f08c379a0000000000000000000000000000000000000000000000000000000008152600401610e3f90612793565b60405180910390fd5b600254838390501115610e90576040517f08c379a0000000000000000000000000000000000000000000000000000000008152600401610e8790612b39565b60405180910390fd5b6000600860008663ffffffff1663ffffffff16815260200190815260200160002060009054906101000a900460ff1660ff1614610f02576040517f08c379a0000000000000000000000000000000000000000000000000000000008152600401610ef990612bcb565b60405180910390fd5b8080610f3057506000600360008663ffffffff1663ffffffff16815260200190815260200160002080549050145b15610f69578282600360008763ffffffff1663ffffffff1681526020019081526020016000209190610f639291906121ff565b5061101e565b60005b8383905081101561101c57600360008663ffffffff1663ffffffff168152602001908152602001600020848483818110610fa957610fa8612beb565b5b9050602002016020810190610fbe9190612318565b90806001815401808255809150506001900390600052602060002090600891828204019190066004029091909190916101000a81548163ffffffff021916908363ffffffff160217905550808061101490612c49565b915050610f6c565b505b50505050565b60025481565b600160009054906101000a900473ffffffffffffffffffffffffffffffffffffffff1681565b60008054906101000a900473ffffffffffffffffffffffffffffffffffffffff1673ffffffffffffffffffffffffffffffffffffffff163373ffffffffffffffffffffffffffffffffffffffff16146110de576040517f08c379a00000000000000000000000000000000000000000000000000000000081526004016110d5906129f5565b60405180910390fd5b60018060146101000a81548160ff021916908315150217905550565b60008054906101000a900473ffffffffffffffffffffffffffffffffffffffff1681565b813373ffffffffffffffffffffffffffffffffffffffff16600460008363ffffffff1663ffffffff16815260200190815260200160002060009054906101000a900473ffffffffffffffffffffffffffffffffffffffff1673ffffffffffffffffffffffffffffffffffffffff16146111cc576040517f08c379a00000000000000000000000000000000000000000000000000000000081526004016111c3906127ff565b60405180910390fd5b81600a60008563ffffffff1663ffffffff16815260200190815260200160002060006101000a81548173ffffffffffffffffffffffffffffffffffffffff021916908373ffffffffffffffffffffffffffffffffffffffff160217905550505050565b60008054906101000a900473ffffffffffffffffffffffffffffffffffffffff1673ffffffffffffffffffffffffffffffffffffffff163373ffffffffffffffffffffffffffffffffffffffff16146112bd576040517f08c379a00000000000000000000000000000000000000000000000000000000081526004016112b4906129f5565b60405180910390fd5b8060028190555050565b60001515600160149054906101000a900460ff1615151461131d576040517f08c379a000000000000000000000000000000000000000000000000000000000815260040161131490612793565b60405180910390fd5b60003411611360576040517f08c379a000000000000000000000000000000000000000000000000000000000815260040161135790612cdd565b60405180910390fd5b60008263ffffffff16116113a9576040517f08c379a00000000000000000000000000000000000000000000000000000000081526004016113a090612d6f565b60405180910390fd5b600063ffffffff16600560008363ffffffff1663ffffffff16815260200190815260200160002060009054906101000a900463ffffffff1663ffffffff1614611427576040517f08c379a000000000000000000000000000000000000000000000000000000000815260040161141e90612ddb565b60405180910390fd5b600063ffffffff16600660008363ffffffff1663ffffffff168152602001908152602001600020541461148f576040517f08c379a000000000000000000000000000000000000000000000000000000000815260040161148690612ddb565b60405180910390fd5b600063ffffffff16600760008363ffffffff1663ffffffff16815260200190815260200160002054146114f7576040517f08c379a00000000000000000000000000000000000000000000000000000000081526004016114ee90612ddb565b60405180910390fd5b81600560008363ffffffff1663ffffffff16815260200190815260200160002060006101000a81548163ffffffff021916908363ffffffff16021790555034600660008363ffffffff1663ffffffff1681526020019081526020016000208190555034600760008363ffffffff1663ffffffff1681526020019081526020016000208190555061158681612140565b5050565b600160009054906101000a900473ffffffffffffffffffffffffffffffffffffffff1673ffffffffffffffffffffffffffffffffffffffff163373ffffffffffffffffffffffffffffffffffffffff161461161a576040517f08c379a000000000000000000000000000000000000000000000000000000000815260040161161190612acd565b60405180910390fd5b60001515600160149054906101000a900460ff16151514611670576040517f08c379a000000000000000000000000000000000000000000000000000000000815260040161166790612793565b60405180910390fd5b6000600560008563ffffffff1663ffffffff16815260200190815260200160002060009054906101000a900463ffffffff1663ffffffff16116116e8576040517f08c379a00000000000000000000000000000000000000000000000000000000081526004016116df90612e47565b60405180910390fd5b6000600660008563ffffffff1663ffffffff168152602001908152602001600020541161174a576040517f08c379a000000000000000000000000000000000000000000000000000000000815260040161174190612e47565b60405180910390fd5b6000600760008563ffffffff1663ffffffff16815260200190815260200160002054116117ac576040517f08c379a00000000000000000000000000000000000000000000000000000000081526004016117a390612e47565b60405180910390fd5b6000600560008563ffffffff1663ffffffff16815260200190815260200160002060009054906101000a900463ffffffff1690506000820361181e57600092506001600360008363ffffffff1663ffffffff1681526020019081526020016000208054905061181b9190612e67565b91505b6002546001848461182f9190612e67565b6118399190612e9b565b111561187a576040517f08c379a000000000000000000000000000000000000000000000000000000000815260040161187190612b39565b60405180910390fd5b6001600860008363ffffffff1663ffffffff16815260200190815260200160002060008282829054906101000a900460ff166118b69190612ef1565b92506101000a81548160ff021916908360ff1602179055506000600760008663ffffffff1663ffffffff1681526020019081526020016000205490506000600360008463ffffffff1663ffffffff168152602001908152602001600020805490506064600160159054906101000a900460ff1660646119359190612f28565b60ff16600660008a63ffffffff1663ffffffff168152602001908152602001600020546119629190612f5c565b61196c9190612fe5565b6119769190612fe5565b905060008590505b848111611ae0576000600360008663ffffffff1663ffffffff16815260200190815260200160002082815481106119b8576119b7612beb565b5b90600052602060002090600891828204019190066004029054906101000a900463ffffffff169050600080611a0c600960008563ffffffff1663ffffffff16815260200190815260200160002054866121d0565b9150915081611a50576040517f08c379a0000000000000000000000000000000000000000000000000000000008152600401611a4790613062565b60405180910390fd5b80600960008563ffffffff1663ffffffff16815260200190815260200160002081905550600080611a818888612088565b9150915081611ac5576040517f08c379a0000000000000000000000000000000000000000000000000000000008152600401611abc906130f4565b60405180910390fd5b80975050505050508080611ad890612c49565b91505061197e565b5081600760008863ffffffff1663ffffffff168152602001908152602001600020819055506001600360008563ffffffff1663ffffffff16815260200190815260200160002080549050611b349190612e67565b8403611cae57600080611b66600960008763ffffffff1663ffffffff16815260200190815260200160002054856121d0565b9150915081611baa576040517f08c379a0000000000000000000000000000000000000000000000000000000008152600401611ba190613186565b60405180910390fd5b80600960008763ffffffff1663ffffffff168152602001908152602001600020819055506000600560008a63ffffffff1663ffffffff16815260200190815260200160002060006101000a81548163ffffffff021916908363ffffffff1602179055506000600660008a63ffffffff1663ffffffff168152602001908152602001600020819055506000600760008a63ffffffff1663ffffffff168152602001908152602001600020819055506001600860008763ffffffff1663ffffffff16815260200190815260200160002060008282829054906101000a900460ff16611c939190612f28565b92506101000a81548160ff021916908360ff16021790555050505b505050505050565b60008054906101000a900473ffffffffffffffffffffffffffffffffffffffff1673ffffffffffffffffffffffffffffffffffffffff163373ffffffffffffffffffffffffffffffffffffffff1614611d44576040517f08c379a0000000000000000000000000000000000000000000000000000000008152600401611d3b906129f5565b60405180910390fd5b600160149054906101000a900460ff16611d93576040517f08c379a0000000000000000000000000000000000000000000000000000000008152600401611d8a906131f2565b60405180910390fd5b6000600560008363ffffffff1663ffffffff16815260200190815260200160002060009054906101000a900463ffffffff16905060008163ffffffff1611611e10576040517f08c379a0000000000000000000000000000000000000000000000000000000008152600401611e079061325e565b60405180910390fd5b6000600760008463ffffffff1663ffffffff1681526020019081526020016000205411611e72576040517f08c379a0000000000000000000000000000000000000000000000000000000008152600401611e69906132ca565b60405180910390fd5b600073ffffffffffffffffffffffffffffffffffffffff16600a60008363ffffffff1663ffffffff16815260200190815260200160002060009054906101000a900473ffffffffffffffffffffffffffffffffffffffff1673ffffffffffffffffffffffffffffffffffffffff1603611f20576040517f08c379a0000000000000000000000000000000000000000000000000000000008152600401611f1790613336565b60405180910390fd5b600080600a60008463ffffffff1663ffffffff16815260200190815260200160002060009054906101000a900473ffffffffffffffffffffffffffffffffffffffff1673ffffffffffffffffffffffffffffffffffffffff16600760008663ffffffff1663ffffffff16815260200190815260200160002054604051611fa590612928565b60006040518083038185875af1925050503d8060008114611fe2576040519150601f19603f3d011682016040523d82523d6000602084013e611fe7565b606091505b50915091508161202c576040517f08c379a0000000000000000000000000000000000000000000000000000000008152600401612023906133a2565b60405180910390fd5b50505050565b60056020528060005260406000206000915054906101000a900463ffffffff1681565b60086020528060005260406000206000915054906101000a900460ff1681565b600160149054906101000a900460ff1681565b6000808383111561209f57600080915091506120a9565b6001838503915091505b9250929050565b600160009054906101000a900473ffffffffffffffffffffffffffffffffffffffff1673ffffffffffffffffffffffffffffffffffffffff1663dc9fbad6826040518263ffffffff1660e01b815260040161210b919061247f565b600060405180830381600087803b15801561212557600080fd5b505af1158015612139573d6000803e3d6000fd5b5050505050565b600160009054906101000a900473ffffffffffffffffffffffffffffffffffffffff1673ffffffffffffffffffffffffffffffffffffffff1663c4276e06826040518263ffffffff1660e01b815260040161219b919061247f565b600060405180830381600087803b1580156121b557600080fd5b505af11580156121c9573d6000803e3d6000fd5b5050505050565b60008060008385019050848110156121ef5760008092509250506121f8565b60018192509250505b9250929050565b828054828255906000526020600020906007016008900481019282156122a45791602002820160005b8382111561227257833563ffffffff1683826101000a81548163ffffffff021916908363ffffffff1602179055509260200192600401602081600301049283019260010302612228565b80156122a25782816101000a81549063ffffffff0219169055600401602081600301049283019260010302612272565b505b5090506122b191906122b5565b5090565b5b808211156122ce5760008160009055506001016122b6565b5090565b600080fd5b600080fd5b600063ffffffff82169050919050565b6122f5816122dc565b811461230057600080fd5b50565b600081359050612312816122ec565b92915050565b60006020828403121561232e5761232d6122d2565b5b600061233c84828501612303565b91505092915050565b6000819050919050565b61235881612345565b82525050565b6000602082019050612373600083018461234f565b92915050565b600073ffffffffffffffffffffffffffffffffffffffff82169050919050565b60006123a482612379565b9050919050565b6123b481612399565b81146123bf57600080fd5b50565b6000813590506123d1816123ab565b92915050565b6000602082840312156123ed576123ec6122d2565b5b60006123fb848285016123c2565b91505092915050565b61240d81612345565b811461241857600080fd5b50565b60008135905061242a81612404565b92915050565b60008060408385031215612447576124466122d2565b5b600061245585828601612303565b92505060206124668582860161241b565b9150509250929050565b612479816122dc565b82525050565b60006020820190506124946000830184612470565b92915050565b6124a381612399565b82525050565b60006020820190506124be600083018461249a565b92915050565b600080604083850312156124db576124da6122d2565b5b60006124e985828601612303565b92505060206124fa858286016123c2565b9150509250929050565b600060ff82169050919050565b61251a81612504565b82525050565b60006020820190506125356000830184612511565b92915050565b600080fd5b600080fd5b600080fd5b60008083601f8401126125605761255f61253b565b5b8235905067ffffffffffffffff81111561257d5761257c612540565b5b60208301915083602082028301111561259957612598612545565b5b9250929050565b60008115159050919050565b6125b5816125a0565b81146125c057600080fd5b50565b6000813590506125d2816125ac565b92915050565b600080600080606085870312156125f2576125f16122d2565b5b600061260087828801612303565b945050602085013567ffffffffffffffff811115612621576126206122d7565b5b61262d8782880161254a565b93509350506040612640878288016125c3565b91505092959194509250565b600060208284031215612662576126616122d2565b5b60006126708482850161241b565b91505092915050565b600080604083850312156126905761268f6122d2565b5b600061269e85828601612303565b92505060206126af85828601612303565b9150509250929050565b6000806000606084860312156126d2576126d16122d2565b5b60006126e086828701612303565b93505060206126f18682870161241b565b92505060406127028682870161241b565b9150509250925092565b612715816125a0565b82525050565b6000602082019050612730600083018461270c565b92915050565b600082825260208201905092915050565b7f636f6e74726163742069732064697361626c6564000000000000000000000000600082015250565b600061277d601483612736565b915061278882612747565b602082019050919050565b600060208201905081810360008301526127ac81612770565b9050919050565b7f70726f6a656374206f776e6572206f6e6c790000000000000000000000000000600082015250565b60006127e9601283612736565b91506127f4826127b3565b602082019050919050565b60006020820190508181036000830152612818816127dc565b9050919050565b7f6e6f2066756e6420666f722070726f6a65637400000000000000000000000000600082015250565b6000612855601383612736565b91506128608261281f565b602082019050919050565b6000602082019050818103600083015261288481612848565b9050919050565b7f73756274726163742062616c616e6365206572726f7200000000000000000000600082015250565b60006128c1601683612736565b91506128cc8261288b565b602082019050919050565b600060208201905081810360008301526128f0816128b4565b9050919050565b600081905092915050565b50565b60006129126000836128f7565b915061291d82612902565b600082019050919050565b600061293382612905565b9150819050919050565b7f72656465656d207472616e73616374696f6e206572726f720000000000000000600082015250565b6000612973601883612736565b915061297e8261293d565b602082019050919050565b600060208201905081810360008301526129a281612966565b9050919050565b7f6f776e6572206f6e6c7900000000000000000000000000000000000000000000600082015250565b60006129df600a83612736565b91506129ea826129a9565b602082019050919050565b60006020820190508181036000830152612a0e816129d2565b9050919050565b7f6f7261636c65206973206d697373696e67000000000000000000000000000000600082015250565b6000612a4b601183612736565b9150612a5682612a15565b602082019050919050565b60006020820190508181036000830152612a7a81612a3e565b9050919050565b7f6f7261636c65206f6e6c79000000000000000000000000000000000000000000600082015250565b6000612ab7600b83612736565b9150612ac282612a81565b602082019050919050565b60006020820190508181036000830152612ae681612aaa565b9050919050565b7f6465702073697a65206973206f76657220616c6c6f7765642073697a65000000600082015250565b6000612b23601d83612736565b9150612b2e82612aed565b602082019050919050565b60006020820190508181036000830152612b5281612b16565b9050919050565b7f73706f6e736f727368697020646973747269627574696f6e20696e2070726f6760008201527f7265737320666f722070726f6a65637400000000000000000000000000000000602082015250565b6000612bb5603083612736565b9150612bc082612b59565b604082019050919050565b60006020820190508181036000830152612be481612ba8565b9050919050565b7f4e487b7100000000000000000000000000000000000000000000000000000000600052603260045260246000fd5b7f4e487b7100000000000000000000000000000000000000000000000000000000600052601160045260246000fd5b6000612c5482612345565b91507fffffffffffffffffffffffffffffffffffffffffffffffffffffffffffffffff8203612c8657612c85612c1a565b5b600182019050919050565b7f6e6f2066756e6420746f20646f6e617465000000000000000000000000000000600082015250565b6000612cc7601183612736565b9150612cd282612c91565b602082019050919050565b60006020820190508181036000830152612cf681612cba565b9050919050565b7f70726f6a65637449442073686f756c64206265206c6172676572207468616e2060008201527f3000000000000000000000000000000000000000000000000000000000000000602082015250565b6000612d59602183612736565b9150612d6482612cfd565b604082019050919050565b60006020820190508181036000830152612d8881612d4c565b9050919050565b7f6578697374696e672073706f6e736f7273686970207265717565737400000000600082015250565b6000612dc5601c83612736565b9150612dd082612d8f565b602082019050919050565b60006020820190508181036000830152612df481612db8565b9050919050565b7f696e76616c69642073706f6e736f727368697020726571756573740000000000600082015250565b6000612e31601b83612736565b9150612e3c82612dfb565b602082019050919050565b60006020820190508181036000830152612e6081612e24565b9050919050565b6000612e7282612345565b9150612e7d83612345565b925082821015612e9057612e8f612c1a565b5b828203905092915050565b6000612ea682612345565b9150612eb183612345565b9250827fffffffffffffffffffffffffffffffffffffffffffffffffffffffffffffffff03821115612ee657612ee5612c1a565b5b828201905092915050565b6000612efc82612504565b9150612f0783612504565b92508260ff03821115612f1d57612f1c612c1a565b5b828201905092915050565b6000612f3382612504565b9150612f3e83612504565b925082821015612f5157612f50612c1a565b5b828203905092915050565b6000612f6782612345565b9150612f7283612345565b9250817fffffffffffffffffffffffffffffffffffffffffffffffffffffffffffffffff0483118215151615612fab57612faa612c1a565b5b828202905092915050565b7f4e487b7100000000000000000000000000000000000000000000000000000000600052601260045260246000fd5b6000612ff082612345565b9150612ffb83612345565b92508261300b5761300a612fb6565b5b828204905092915050565b7f646973747269627574652062616c616e6365206572726f720000000000000000600082015250565b600061304c601883612736565b915061305782613016565b602082019050919050565b6000602082019050818103600083015261307b8161303f565b9050919050565b7f63616c63756c6174652072656d61696e696e672062616c616e6365206572726f60008201527f7200000000000000000000000000000000000000000000000000000000000000602082015250565b60006130de602183612736565b91506130e982613082565b604082019050919050565b6000602082019050818103600083015261310d816130d1565b9050919050565b7f646973747269627574652072656d61696e696e672062616c616e63652065727260008201527f6f72000000000000000000000000000000000000000000000000000000000000602082015250565b6000613170602283612736565b915061317b82613114565b604082019050919050565b6000602082019050818103600083015261319f81613163565b9050919050565b7f7768656e20636f6e74726163742069732064697361626c6564206f6e6c790000600082015250565b60006131dc601e83612736565b91506131e7826131a6565b602082019050919050565b6000602082019050818103600083015261320b816131cf565b9050919050565b7f6e6f2070726f6a65637420666f72207265717565737400000000000000000000600082015250565b6000613248601683612736565b915061325382613212565b602082019050919050565b600060208201905081810360008301526132778161323b565b9050919050565b7f6e6f206c6f636b65642066756e6420666f722072657175657374000000000000600082015250565b60006132b4601a83612736565b91506132bf8261327e565b602082019050919050565b600060208201905081810360008301526132e3816132a7565b9050919050565b7f696e76616c6964206d6967726174696f6e206164647265737300000000000000600082015250565b6000613320601983612736565b915061332b826132ea565b602082019050919050565b6000602082019050818103600083015261334f81613313565b9050919050565b7f66756e64206d6967726174696f6e206572726f72000000000000000000000000600082015250565b600061338c601483612736565b915061339782613356565b602082019050919050565b600060208201905081810360008301526133bb8161337f565b905091905056fea2646970667358221220c6d3ca71818b0bd1be164c4a3adae90373d00c7c87a4513719e3aba50a2fd8b064736f6c634300080f0033",
  "immutableReferences": {},
  "source": "// SPDX-License-Identifier: MIT\npragma solidity >=0.4.22 <0.9.0;\n\nimport \"./OSPOracle.sol\";\n\nimport \"@openzeppelin/contracts/utils/math/SafeMath.sol\";\n\ncontract OpenSourcePizza is OSPOracleClient {\n  bool public disabled = true;\n\n  uint8 public projectOwnerWeight = 50;\n  uint public singleCallMaxDepsSize = 100;\n\n  // projectID to projectIDs mapping for project dependencies.\n  mapping(uint32 => uint32[]) public projectDependencies;\n\n  /// projectID to project owner address mapping.\n  mapping(uint32 => address) public projectOwners;\n\n  /// requestID to projectID mapping.\n  mapping(uint32 => uint32) public sponsorRequests;\n  /// requestID to total sponsor amount mapping.\n  mapping(uint32 => uint256) public sponsorRequestAmounts;\n  /// requestID to remaining undistributed amount mapping.\n  mapping(uint32 => uint256) public undistributedAmounts;\n  /// projectIDs mapping for projects that are in the process of fund distribution, value in # of distribution currently in process.\n  mapping(uint32 => uint8) public distributionInProgress;\n\n  mapping(uint32 => uint256) public distribution;\n\n  /// Addresses for locked project fund to be transferred out in case of contract migration.\n  mapping(uint32 => address) public fundMigrations;\n\n  modifier onlyOwner {\n    require(msg.sender == owner, \"owner only\");\n    _;\n  }\n\n  modifier onlyOracle {\n    require(msg.sender == oracle, \"oracle only\");\n    _;\n  }\n\n  modifier onlyProjectOwner(uint32 projectID) {\n    require(projectOwners[projectID] == msg.sender, \"project owner only\");\n    _;\n  }\n\n  modifier onlyEnabled {\n    require(disabled == false, \"contract is disabled\");\n    _;\n  }\n\n  function updateOracle(address oc) override public onlyOwner {\n    oracle = oc;\n  }\n\n  function updateSingleCallMaxDepsSize(uint size) public onlyOwner {\n    singleCallMaxDepsSize = size;\n  }\n\n  function disableContract() public onlyOwner {\n    disabled = true;\n  }\n\n  function enableContract() public onlyOwner {\n    require(oracle != address(0), \"oracle is missing\");\n    disabled = false;\n  }\n\n  function register(uint32 projectID) public onlyEnabled {\n    requestRegisterFromOracle(projectID);\n  }\n\n  function donateToProject(uint32 projectID, uint32 requestID) public payable onlyEnabled {\n    require(msg.value > 0, \"no fund to donate\");\n    require(projectID > 0, \"projectID should be larger than 0\");\n    require(sponsorRequests[requestID] == uint32(0), \"existing sponsorship request\");\n    require(sponsorRequestAmounts[requestID] == uint32(0), \"existing sponsorship request\");\n    require(undistributedAmounts[requestID] == uint32(0), \"existing sponsorship request\");\n\n    sponsorRequests[requestID] = projectID;\n    sponsorRequestAmounts[requestID] = msg.value;\n    undistributedAmounts[requestID] = msg.value;\n    requestDonateFromOracle(requestID);\n  }\n\n  function redeem(uint32 projectID) public payable onlyEnabled onlyProjectOwner(projectID) {\n    require(distribution[projectID] > 0, \"no fund for project\");\n\n    uint256 transferValue = distribution[projectID];\n    (bool ok, uint256 newBalance) = SafeMath.trySub(distribution[projectID], transferValue);\n    require(ok, \"subtract balance error\");\n\n    distribution[projectID] = newBalance;\n    (bool redeemOK, bytes memory result) =  msg.sender.call{value: transferValue}(\"\");\n    require(redeemOK, \"redeem transaction error\");\n  }\n\n  function registerProject(uint32 projectID, address addr) public override onlyOracle onlyEnabled {\n    projectOwners[projectID] = addr;\n  }\n\n  /// Updates the distribution mapping from the sponsor request amount,\n  /// so that project owners can later redeem the fund.\n  /// This function may be called several times for a given sponsorship request,\n  /// in case the dependency list of the project is too large to be handled in a single transaction.\n  /// @param requestID is the request to distribute locked fund for.\n  /// @param fromDepIdx the starting index(inclusive) of the dependent projectID to distribute the fund to.\n  /// @param toDepIdx the ending index(inclusive) of the dependent projectID to distribute the fund to.\n  function distribute(uint32 requestID, uint fromDepIdx, uint toDepIdx) public override onlyOracle onlyEnabled {\n    // Make sure there's undistributed fund for this sponsor request.\n    require(sponsorRequests[requestID] > 0, \"invalid sponsorship request\");\n    require(sponsorRequestAmounts[requestID] > 0, \"invalid sponsorship request\");\n    require(undistributedAmounts[requestID] > 0, \"invalid sponsorship request\");\n\n    uint32 sourceProjectID = sponsorRequests[requestID];\n    if (toDepIdx == 0) {\n      // Distribute among the entire dependency list.\n      fromDepIdx = 0;\n      toDepIdx = projectDependencies[sourceProjectID].length - 1;\n    }\n    // Distribute to a maximum number of dependent projects in a single transaction.\n    require(toDepIdx - fromDepIdx + 1 <= singleCallMaxDepsSize, \"dep size is over allowed size\");\n    distributionInProgress[sourceProjectID] += 1;\n \n    uint256 remaining = undistributedAmounts[requestID];\n    uint256 singleDepShare = sponsorRequestAmounts[requestID] * (100 - projectOwnerWeight) / 100 / projectDependencies[sourceProjectID].length;\n    for (uint i = fromDepIdx; i <= toDepIdx; i++) {\n      uint32 depProjectID = projectDependencies[sourceProjectID][i];\n      (bool addOK, uint256 newDepBalance) = SafeMath.tryAdd(distribution[depProjectID], singleDepShare);\n      require(addOK, \"distribute balance error\");\n      distribution[depProjectID] = newDepBalance;\n\n      (bool subOK, uint256 newRemaining) = SafeMath.trySub(remaining, singleDepShare);\n      require(subOK, \"calculate remaining balance error\");\n      remaining = newRemaining;\n    }\n    undistributedAmounts[requestID] = remaining;\n\n    // Only distributes to source project when all dependent funds have been distributed.\n    if (toDepIdx == projectDependencies[sourceProjectID].length - 1) {\n      // Give source project the remaining fund, only if distribution among dependents are successful.\n      (bool ok, uint256 newBalance) = SafeMath.tryAdd(distribution[sourceProjectID], remaining);\n      require(ok, \"distribute remaining balance error\");\n      distribution[sourceProjectID] = newBalance;\n\n      // Reset request params.\n      sponsorRequests[requestID] = 0;\n      sponsorRequestAmounts[requestID] = 0;\n      undistributedAmounts[requestID] = 0;\n      distributionInProgress[sourceProjectID] -= 1;\n    }\n  }\n\n  function updateDeps(\n    uint32 projectID,\n    uint32[] calldata deps,\n    bool isReplace\n  ) external override onlyOracle onlyEnabled {\n    require(deps.length <= singleCallMaxDepsSize, \"dep size is over allowed size\");\n    require(distributionInProgress[projectID] == 0, \"sponsorship distribution in progress for project\");\n\n    // Replace dependencies.\n    if (isReplace || projectDependencies[projectID].length == 0) {\n      projectDependencies[projectID] = deps;\n      return;\n    }\n\n    // Append to existing dependencies\n    for (uint i = 0; i < deps.length; i++) {\n      projectDependencies[projectID].push(deps[i]);\n    }\n  }\n\n  // Set up migration addresses for locked fund to be transferred out.\n  function updateMigrationAddress(uint32 projectID, address mAddr) public onlyProjectOwner(projectID) {\n    fundMigrations[projectID] = mAddr;\n  }\n\n  // Transfer locked fund in case of contract migration.\n  function migrateFunds(uint32 requestID) public payable onlyOwner {\n    require(disabled, \"when contract is disabled only\");\n    uint32 projectID = sponsorRequests[requestID];\n    require(projectID > 0, \"no project for request\");\n    require(undistributedAmounts[requestID] > 0, \"no locked fund for request\");\n    require(fundMigrations[projectID] != address(0), \"invalid migration address\");\n\n    (bool ok, bytes memory result) = payable(payable(fundMigrations[projectID])).call{value: undistributedAmounts[requestID]}(\"\");\n    require(ok, \"fund migration error\");\n  }\n}\n",
  "sourcePath": "/Users/yinlokwong/Documents/unsw/comp6452/project2/open-source-pizza/contracts/OpenSourcePizza.sol",
  "compiler": {
    "name": "solc",
    "version": "0.8.15+commit.e14f2714.Emscripten.clang"
  },
  "schemaVersion": "3.4.8",
  "updatedAt": "2022-07-24T06:46:01.811Z",
  "devdoc": {
    "kind": "dev",
    "methods": {
      "distribute(uint32,uint256,uint256)": {
        "params": {
          "fromDepIdx": "the starting index(inclusive) of the dependent projectID to distribute the fund to.",
          "requestID": "is the request to distribute locked fund for.",
          "toDepIdx": "the ending index(inclusive) of the dependent projectID to distribute the fund to."
        }
      }
    },
    "version": 1
  },
  "userdoc": {
    "kind": "user",
    "methods": {
      "distribute(uint32,uint256,uint256)": {
        "notice": "Updates the distribution mapping from the sponsor request amount, so that project owners can later redeem the fund. This function may be called several times for a given sponsorship request, in case the dependency list of the project is too large to be handled in a single transaction."
      },
      "distributionInProgress(uint32)": {
        "notice": "projectIDs mapping for projects that are in the process of fund distribution, value in # of distribution currently in process."
      },
      "fundMigrations(uint32)": {
        "notice": "Addresses for locked project fund to be transferred out in case of contract migration."
      },
      "projectOwners(uint32)": {
        "notice": "projectID to project owner address mapping."
      },
      "sponsorRequestAmounts(uint32)": {
        "notice": "requestID to total sponsor amount mapping."
      },
      "sponsorRequests(uint32)": {
        "notice": "requestID to projectID mapping."
      },
      "undistributedAmounts(uint32)": {
        "notice": "requestID to remaining undistributed amount mapping."
      }
    },
    "version": 1
  }
}