{
  "contractName": "OpenSourcePizza",
  "abi": [
    {
      "inputs": [],
      "name": "disabled",
      "outputs": [
        {
          "internalType": "bool",
          "name": "",
          "type": "bool"
        }
      ],
      "stateMutability": "view",
      "type": "function"
    },
    {
      "inputs": [
        {
          "internalType": "uint16",
          "name": "",
          "type": "uint16"
        }
      ],
      "name": "distribution",
      "outputs": [
        {
          "internalType": "uint256",
          "name": "",
          "type": "uint256"
        }
      ],
      "stateMutability": "view",
      "type": "function"
    },
    {
      "inputs": [
        {
          "internalType": "uint16",
          "name": "",
          "type": "uint16"
        }
      ],
      "name": "distributionInProgress",
      "outputs": [
        {
          "internalType": "bool",
          "name": "",
          "type": "bool"
        }
      ],
      "stateMutability": "view",
      "type": "function"
    },
    {
      "inputs": [
        {
          "internalType": "uint16",
          "name": "",
          "type": "uint16"
        }
      ],
      "name": "fundMigrations",
      "outputs": [
        {
          "internalType": "address",
          "name": "",
          "type": "address"
        }
      ],
      "stateMutability": "view",
      "type": "function"
    },
    {
      "inputs": [],
      "name": "oracle",
      "outputs": [
        {
          "internalType": "address",
          "name": "",
          "type": "address"
        }
      ],
      "stateMutability": "view",
      "type": "function"
    },
    {
      "inputs": [],
      "name": "owner",
      "outputs": [
        {
          "internalType": "address",
          "name": "",
          "type": "address"
        }
      ],
      "stateMutability": "view",
      "type": "function"
    },
    {
      "inputs": [
        {
          "internalType": "uint16",
          "name": "",
          "type": "uint16"
        },
        {
          "internalType": "uint256",
          "name": "",
          "type": "uint256"
        }
      ],
      "name": "projectDependencies",
      "outputs": [
        {
          "internalType": "uint16",
          "name": "",
          "type": "uint16"
        }
      ],
      "stateMutability": "view",
      "type": "function"
    },
    {
      "inputs": [],
      "name": "projectOwnerWeight",
      "outputs": [
        {
          "internalType": "uint8",
          "name": "",
          "type": "uint8"
        }
      ],
      "stateMutability": "view",
      "type": "function"
    },
    {
      "inputs": [
        {
          "internalType": "uint16",
          "name": "",
          "type": "uint16"
        }
      ],
      "name": "projectOwners",
      "outputs": [
        {
          "internalType": "address",
          "name": "",
          "type": "address"
        }
      ],
      "stateMutability": "view",
      "type": "function"
    },
    {
      "inputs": [],
      "name": "singleCallMaxDepsSize",
      "outputs": [
        {
          "internalType": "uint256",
          "name": "",
          "type": "uint256"
        }
      ],
      "stateMutability": "view",
      "type": "function"
    },
    {
      "inputs": [
        {
          "internalType": "uint16",
          "name": "",
          "type": "uint16"
        }
      ],
      "name": "sponsorRequestAmounts",
      "outputs": [
        {
          "internalType": "uint256",
          "name": "",
          "type": "uint256"
        }
      ],
      "stateMutability": "view",
      "type": "function"
    },
    {
      "inputs": [
        {
          "internalType": "uint16",
          "name": "",
          "type": "uint16"
        }
      ],
      "name": "sponsorRequests",
      "outputs": [
        {
          "internalType": "uint16",
          "name": "",
          "type": "uint16"
        }
      ],
      "stateMutability": "view",
      "type": "function"
    },
    {
      "inputs": [
        {
          "internalType": "uint16",
          "name": "",
          "type": "uint16"
        }
      ],
      "name": "undistributedAmounts",
      "outputs": [
        {
          "internalType": "uint256",
          "name": "",
          "type": "uint256"
        }
      ],
      "stateMutability": "view",
      "type": "function"
    },
    {
      "inputs": [
        {
          "internalType": "address",
          "name": "oc",
          "type": "address"
        }
      ],
      "name": "updateOracle",
      "outputs": [],
      "stateMutability": "nonpayable",
      "type": "function"
    },
    {
      "inputs": [
        {
          "internalType": "uint256",
          "name": "size",
          "type": "uint256"
        }
      ],
      "name": "updateSingleCallMaxDepsSize",
      "outputs": [],
      "stateMutability": "nonpayable",
      "type": "function"
    },
    {
      "inputs": [],
      "name": "disableContract",
      "outputs": [],
      "stateMutability": "nonpayable",
      "type": "function"
    },
    {
      "inputs": [],
      "name": "enableContract",
      "outputs": [],
      "stateMutability": "nonpayable",
      "type": "function"
    },
    {
      "inputs": [
        {
          "internalType": "uint16",
          "name": "projectID",
          "type": "uint16"
        }
      ],
      "name": "register",
      "outputs": [],
      "stateMutability": "nonpayable",
      "type": "function"
    },
    {
      "inputs": [
        {
          "internalType": "uint16",
          "name": "projectID",
          "type": "uint16"
        },
        {
          "internalType": "uint16",
          "name": "requestID",
          "type": "uint16"
        }
      ],
      "name": "donateToProject",
      "outputs": [],
      "stateMutability": "payable",
      "type": "function"
    },
    {
      "inputs": [
        {
          "internalType": "uint16",
          "name": "projectID",
          "type": "uint16"
        }
      ],
      "name": "redeem",
      "outputs": [],
      "stateMutability": "payable",
      "type": "function"
    },
    {
      "inputs": [
        {
          "internalType": "uint16",
          "name": "projectID",
          "type": "uint16"
        },
        {
          "internalType": "address",
          "name": "addr",
          "type": "address"
        }
      ],
      "name": "registerProject",
      "outputs": [],
      "stateMutability": "nonpayable",
      "type": "function"
    },
    {
      "inputs": [
        {
          "internalType": "uint16",
          "name": "requestID",
          "type": "uint16"
        },
        {
          "internalType": "uint256",
          "name": "fromDepIdx",
          "type": "uint256"
        },
        {
          "internalType": "uint256",
          "name": "toDepIdx",
          "type": "uint256"
        }
      ],
      "name": "distribute",
      "outputs": [],
      "stateMutability": "nonpayable",
      "type": "function"
    },
    {
      "inputs": [
        {
          "internalType": "uint16",
          "name": "projectID",
          "type": "uint16"
        },
        {
          "internalType": "uint16[]",
          "name": "deps",
          "type": "uint16[]"
        },
        {
          "internalType": "bool",
          "name": "isReplace",
          "type": "bool"
        }
      ],
      "name": "updateDeps",
      "outputs": [],
      "stateMutability": "nonpayable",
      "type": "function"
    },
    {
      "inputs": [
        {
          "internalType": "uint16",
          "name": "projectID",
          "type": "uint16"
        },
        {
          "internalType": "address",
          "name": "mAddr",
          "type": "address"
        }
      ],
      "name": "updateMigrationAddress",
      "outputs": [],
      "stateMutability": "nonpayable",
      "type": "function"
    },
    {
      "inputs": [
        {
          "internalType": "uint16",
          "name": "projectID",
          "type": "uint16"
        }
      ],
      "name": "migrateFunds",
      "outputs": [],
      "stateMutability": "nonpayable",
      "type": "function"
    }
  ],
  "bytecode": "0x608060405260018060146101000a81548160ff0219169083151502179055506032600160156101000a81548160ff021916908360ff160217905550606460025534801561004b57600080fd5b50336000806101000a81548173ffffffffffffffffffffffffffffffffffffffff021916908373ffffffffffffffffffffffffffffffffffffffff1602179055506130b88061009b6000396000f3fe6080604052600436106101665760003560e01c80638da5cb5b116100d1578063b8d7a6241161008a578063c669fa9911610064578063c669fa991461050a578063e5eee3b714610547578063ed007ebb14610570578063ee070805146105ad57610166565b8063b8d7a62414610488578063b95bdf91146104c5578063bb80edb9146104e157610166565b80638da5cb5b146103545780638ec7ee801461037f5780638fa6abbc146103bc5780639a2f16f7146103f9578063a5b3087414610436578063af64438c1461045f57610166565b8063442e4e1311610123578063442e4e13146102565780635cafb53d1461027f5780636a8d7a20146102aa57806378bcb623146102e75780637dc0d1d014610312578063894ba8331461033d57610166565b806307ef7ccc1461016b57806311e48077146101a8578063161231db146101d15780631cb44dfc146101fa578063367edd3214610223578063415814231461023a575b600080fd5b34801561017757600080fd5b50610192600480360381019061018d9190612153565b6105d8565b60405161019f91906121c1565b60405180910390f35b3480156101b457600080fd5b506101cf60048036038101906101ca9190612279565b61060b565b005b3480156101dd57600080fd5b506101f860048036038101906101f39190612319565b6108ba565b005b34801561020657600080fd5b50610221600480360381019061021c9190612359565b6109c3565b005b34801561022f57600080fd5b50610238610a95565b005b610254600480360381019061024f9190612386565b610bd1565b005b34801561026257600080fd5b5061027d600480360381019061027891906123fc565b610e25565b005b34801561028b57600080fd5b506102946114bd565b6040516102a1919061246b565b60405180910390f35b3480156102b657600080fd5b506102d160048036038101906102cc9190612153565b6114d0565b6040516102de9190612495565b60405180910390f35b3480156102f357600080fd5b506102fc6114e8565b6040516103099190612495565b60405180910390f35b34801561031e57600080fd5b506103276114ee565b60405161033491906121c1565b60405180910390f35b34801561034957600080fd5b50610352611514565b005b34801561036057600080fd5b506103696115be565b60405161037691906121c1565b60405180910390f35b34801561038b57600080fd5b506103a660048036038101906103a19190612153565b6115e2565b6040516103b391906124bf565b60405180910390f35b3480156103c857600080fd5b506103e360048036038101906103de9190612153565b611603565b6040516103f091906121c1565b60405180910390f35b34801561040557600080fd5b50610420600480360381019061041b9190612153565b611636565b60405161042d9190612495565b60405180910390f35b34801561044257600080fd5b5061045d600480360381019061045891906124da565b61164e565b005b34801561046b57600080fd5b5061048660048036038101906104819190612319565b6116e6565b005b34801561049457600080fd5b506104af60048036038101906104aa9190612153565b61182a565b6040516104bc9190612495565b60405180910390f35b6104df60048036038101906104da9190612153565b611842565b005b3480156104ed57600080fd5b5061050860048036038101906105039190612153565b611b03565b005b34801561051657600080fd5b50610531600480360381019061052c9190612153565b611b65565b60405161053e9190612516565b60405180910390f35b34801561055357600080fd5b5061056e60048036038101906105699190612153565b611b85565b005b34801561057c57600080fd5b5061059760048036038101906105929190612531565b611e73565b6040516105a491906124bf565b60405180910390f35b3480156105b957600080fd5b506105c2611eba565b6040516105cf9190612516565b60405180910390f35b600a6020528060005260406000206000915054906101000a900473ffffffffffffffffffffffffffffffffffffffff1681565b600160009054906101000a900473ffffffffffffffffffffffffffffffffffffffff1673ffffffffffffffffffffffffffffffffffffffff163373ffffffffffffffffffffffffffffffffffffffff161461069b576040517f08c379a0000000000000000000000000000000000000000000000000000000008152600401610692906125ce565b60405180910390fd5b60001515600160149054906101000a900460ff161515146106f1576040517f08c379a00000000000000000000000000000000000000000000000000000000081526004016106e89061263a565b60405180910390fd5b600254838390501115610739576040517f08c379a0000000000000000000000000000000000000000000000000000000008152600401610730906126a6565b60405180910390fd5b60001515600860008661ffff1661ffff16815260200190815260200160002060009054906101000a900460ff161515146107a8576040517f08c379a000000000000000000000000000000000000000000000000000000000815260040161079f90612738565b60405180910390fd5b80806107d257506000600360008661ffff1661ffff16815260200190815260200160002080549050145b15610807578282600360008761ffff1661ffff1681526020019081526020016000209190610801929190612044565b506108b4565b60005b838390508110156108b257600360008661ffff1661ffff16815260200190815260200160002084848381811061084357610842612758565b5b90506020020160208101906108589190612153565b90806001815401808255809150506001900390600052602060002090601091828204019190066002029091909190916101000a81548161ffff021916908361ffff16021790555080806108aa906127b6565b91505061080a565b505b50505050565b813373ffffffffffffffffffffffffffffffffffffffff16600460008361ffff1661ffff16815260200190815260200160002060009054906101000a900473ffffffffffffffffffffffffffffffffffffffff1673ffffffffffffffffffffffffffffffffffffffff1614610964576040517f08c379a000000000000000000000000000000000000000000000000000000000815260040161095b9061284a565b60405180910390fd5b81600a60008561ffff1661ffff16815260200190815260200160002060006101000a81548173ffffffffffffffffffffffffffffffffffffffff021916908373ffffffffffffffffffffffffffffffffffffffff160217905550505050565b60008054906101000a900473ffffffffffffffffffffffffffffffffffffffff1673ffffffffffffffffffffffffffffffffffffffff163373ffffffffffffffffffffffffffffffffffffffff1614610a51576040517f08c379a0000000000000000000000000000000000000000000000000000000008152600401610a48906128b6565b60405180910390fd5b80600160006101000a81548173ffffffffffffffffffffffffffffffffffffffff021916908373ffffffffffffffffffffffffffffffffffffffff16021790555050565b60008054906101000a900473ffffffffffffffffffffffffffffffffffffffff1673ffffffffffffffffffffffffffffffffffffffff163373ffffffffffffffffffffffffffffffffffffffff1614610b23576040517f08c379a0000000000000000000000000000000000000000000000000000000008152600401610b1a906128b6565b60405180910390fd5b600073ffffffffffffffffffffffffffffffffffffffff16600160009054906101000a900473ffffffffffffffffffffffffffffffffffffffff1673ffffffffffffffffffffffffffffffffffffffff1603610bb4576040517f08c379a0000000000000000000000000000000000000000000000000000000008152600401610bab90612948565b60405180910390fd5b6000600160146101000a81548160ff021916908315150217905550565b60001515600160149054906101000a900460ff16151514610c27576040517f08c379a0000000000000000000000000000000000000000000000000000000008152600401610c1e9061263a565b60405180910390fd5b60003411610c6a576040517f08c379a0000000000000000000000000000000000000000000000000000000008152600401610c61906129b4565b60405180910390fd5b600061ffff16600560008361ffff1661ffff16815260200190815260200160002060009054906101000a900461ffff1661ffff1614610cde576040517f08c379a0000000000000000000000000000000000000000000000000000000008152600401610cd590612a20565b60405180910390fd5b600061ffff16600660008361ffff1661ffff1681526020019081526020016000205414610d40576040517f08c379a0000000000000000000000000000000000000000000000000000000008152600401610d3790612a20565b60405180910390fd5b600061ffff16600760008361ffff1661ffff1681526020019081526020016000205414610da2576040517f08c379a0000000000000000000000000000000000000000000000000000000008152600401610d9990612a20565b60405180910390fd5b81600560008361ffff1661ffff16815260200190815260200160002060006101000a81548161ffff021916908361ffff16021790555034600660008361ffff1661ffff1681526020019081526020016000208190555034600760008361ffff1661ffff16815260200190815260200160002081905550610e2181611ecd565b5050565b600160009054906101000a900473ffffffffffffffffffffffffffffffffffffffff1673ffffffffffffffffffffffffffffffffffffffff163373ffffffffffffffffffffffffffffffffffffffff1614610eb5576040517f08c379a0000000000000000000000000000000000000000000000000000000008152600401610eac906125ce565b60405180910390fd5b60001515600160149054906101000a900460ff16151514610f0b576040517f08c379a0000000000000000000000000000000000000000000000000000000008152600401610f029061263a565b60405180910390fd5b6000600560008561ffff1661ffff16815260200190815260200160002060009054906101000a900461ffff1661ffff1611610f7b576040517f08c379a0000000000000000000000000000000000000000000000000000000008152600401610f7290612a8c565b60405180910390fd5b6000600660008561ffff1661ffff1681526020019081526020016000205411610fd9576040517f08c379a0000000000000000000000000000000000000000000000000000000008152600401610fd090612a8c565b60405180910390fd5b6000600760008561ffff1661ffff1681526020019081526020016000205411611037576040517f08c379a000000000000000000000000000000000000000000000000000000000815260040161102e90612a8c565b60405180910390fd5b6000600560008561ffff1661ffff16815260200190815260200160002060009054906101000a900461ffff1690506000820361109f57600092506001600360008361ffff1661ffff1681526020019081526020016000208054905061109c9190612aac565b91505b600254600184846110b09190612aac565b6110ba9190612ae0565b11156110fb576040517f08c379a00000000000000000000000000000000000000000000000000000000081526004016110f2906126a6565b60405180910390fd5b6001600860008661ffff1661ffff16815260200190815260200160002060006101000a81548160ff0219169083151502179055506000600760008661ffff1661ffff1681526020019081526020016000205490506000600360008461ffff1661ffff168152602001908152602001600020805490506064600160159054906101000a900460ff16606461118e9190612b36565b60ff16600660008a61ffff1661ffff168152602001908152602001600020546111b79190612b6a565b6111c19190612bf3565b6111cb9190612bf3565b905060008590505b848111611327576000600360008661ffff1661ffff168152602001908152602001600020828154811061120957611208612758565b5b90600052602060002090601091828204019190066002029054906101000a900461ffff169050600080611257600960008561ffff1661ffff1681526020019081526020016000205486611f5d565b915091508161129b576040517f08c379a000000000000000000000000000000000000000000000000000000000815260040161129290612c70565b60405180910390fd5b80600960008561ffff1661ffff168152602001908152602001600020819055506000806112c88888611f8c565b915091508161130c576040517f08c379a000000000000000000000000000000000000000000000000000000000815260040161130390612d02565b60405180910390fd5b8097505050505050808061131f906127b6565b9150506111d3565b5081600760008861ffff1661ffff168152602001908152602001600020819055506001600360008561ffff1661ffff168152602001908152602001600020805490506113739190612aac565b84036114b5576000806113a1600960008761ffff1661ffff1681526020019081526020016000205485611f5d565b91509150816113e5576040517f08c379a00000000000000000000000000000000000000000000000000000000081526004016113dc90612d94565b60405180910390fd5b80600960008761ffff1661ffff168152602001908152602001600020819055506000600560008a61ffff1661ffff16815260200190815260200160002060006101000a81548161ffff021916908361ffff1602179055506000600660008a61ffff1661ffff168152602001908152602001600020819055506000600760008a61ffff1661ffff168152602001908152602001600020819055506000600860008a61ffff1661ffff16815260200190815260200160002060006101000a81548160ff02191690831515021790555050505b505050505050565b600160159054906101000a900460ff1681565b60096020528060005260406000206000915090505481565b60025481565b600160009054906101000a900473ffffffffffffffffffffffffffffffffffffffff1681565b60008054906101000a900473ffffffffffffffffffffffffffffffffffffffff1673ffffffffffffffffffffffffffffffffffffffff163373ffffffffffffffffffffffffffffffffffffffff16146115a2576040517f08c379a0000000000000000000000000000000000000000000000000000000008152600401611599906128b6565b60405180910390fd5b60018060146101000a81548160ff021916908315150217905550565b60008054906101000a900473ffffffffffffffffffffffffffffffffffffffff1681565b60056020528060005260406000206000915054906101000a900461ffff1681565b60046020528060005260406000206000915054906101000a900473ffffffffffffffffffffffffffffffffffffffff1681565b60066020528060005260406000206000915090505481565b60008054906101000a900473ffffffffffffffffffffffffffffffffffffffff1673ffffffffffffffffffffffffffffffffffffffff163373ffffffffffffffffffffffffffffffffffffffff16146116dc576040517f08c379a00000000000000000000000000000000000000000000000000000000081526004016116d3906128b6565b60405180910390fd5b8060028190555050565b600160009054906101000a900473ffffffffffffffffffffffffffffffffffffffff1673ffffffffffffffffffffffffffffffffffffffff163373ffffffffffffffffffffffffffffffffffffffff1614611776576040517f08c379a000000000000000000000000000000000000000000000000000000000815260040161176d906125ce565b60405180910390fd5b60001515600160149054906101000a900460ff161515146117cc576040517f08c379a00000000000000000000000000000000000000000000000000000000081526004016117c39061263a565b60405180910390fd5b80600460008461ffff1661ffff16815260200190815260200160002060006101000a81548173ffffffffffffffffffffffffffffffffffffffff021916908373ffffffffffffffffffffffffffffffffffffffff1602179055505050565b60076020528060005260406000206000915090505481565b60001515600160149054906101000a900460ff16151514611898576040517f08c379a000000000000000000000000000000000000000000000000000000000815260040161188f9061263a565b60405180910390fd5b803373ffffffffffffffffffffffffffffffffffffffff16600460008361ffff1661ffff16815260200190815260200160002060009054906101000a900473ffffffffffffffffffffffffffffffffffffffff1673ffffffffffffffffffffffffffffffffffffffff1614611942576040517f08c379a00000000000000000000000000000000000000000000000000000000081526004016119399061284a565b60405180910390fd5b6000600960008461ffff1661ffff16815260200190815260200160002054116119a0576040517f08c379a000000000000000000000000000000000000000000000000000000000815260040161199790612e00565b60405180910390fd5b6000600960008461ffff1661ffff1681526020019081526020016000205490506000806119e8600960008761ffff1661ffff1681526020019081526020016000205484611f8c565b9150915081611a2c576040517f08c379a0000000000000000000000000000000000000000000000000000000008152600401611a2390612e6c565b60405180910390fd5b80600960008761ffff1661ffff168152602001908152602001600020819055506000803373ffffffffffffffffffffffffffffffffffffffff1685604051611a7390612ebd565b60006040518083038185875af1925050503d8060008114611ab0576040519150601f19603f3d011682016040523d82523d6000602084013e611ab5565b606091505b509150915081611afa576040517f08c379a0000000000000000000000000000000000000000000000000000000008152600401611af190612f1e565b60405180910390fd5b50505050505050565b60001515600160149054906101000a900460ff16151514611b59576040517f08c379a0000000000000000000000000000000000000000000000000000000008152600401611b509061263a565b60405180910390fd5b611b6281611fb4565b50565b60086020528060005260406000206000915054906101000a900460ff1681565b60008054906101000a900473ffffffffffffffffffffffffffffffffffffffff1673ffffffffffffffffffffffffffffffffffffffff163373ffffffffffffffffffffffffffffffffffffffff1614611c13576040517f08c379a0000000000000000000000000000000000000000000000000000000008152600401611c0a906128b6565b60405180910390fd5b600160149054906101000a900460ff16611c62576040517f08c379a0000000000000000000000000000000000000000000000000000000008152600401611c5990612f8a565b60405180910390fd5b6000600960008361ffff1661ffff1681526020019081526020016000205411611cc0576040517f08c379a0000000000000000000000000000000000000000000000000000000008152600401611cb790612e00565b60405180910390fd5b600073ffffffffffffffffffffffffffffffffffffffff16600a60008361ffff1661ffff16815260200190815260200160002060009054906101000a900473ffffffffffffffffffffffffffffffffffffffff1673ffffffffffffffffffffffffffffffffffffffff1603611d6a576040517f08c379a0000000000000000000000000000000000000000000000000000000008152600401611d6190612ff6565b60405180910390fd5b600080600a60008461ffff1661ffff16815260200190815260200160002060009054906101000a900473ffffffffffffffffffffffffffffffffffffffff1673ffffffffffffffffffffffffffffffffffffffff16600960008561ffff1661ffff16815260200190815260200160002054604051611de790612ebd565b60006040518083038185875af1925050503d8060008114611e24576040519150601f19603f3d011682016040523d82523d6000602084013e611e29565b606091505b509150915081611e6e576040517f08c379a0000000000000000000000000000000000000000000000000000000008152600401611e6590613062565b60405180910390fd5b505050565b60036020528160005260406000208181548110611e8f57600080fd5b9060005260206000209060109182820401919006600202915091509054906101000a900461ffff1681565b600160149054906101000a900460ff1681565b600160009054906101000a900473ffffffffffffffffffffffffffffffffffffffff1673ffffffffffffffffffffffffffffffffffffffff166386670f2e826040518263ffffffff1660e01b8152600401611f2891906124bf565b600060405180830381600087803b158015611f4257600080fd5b505af1158015611f56573d6000803e3d6000fd5b5050505050565b6000806000838501905084811015611f7c576000809250925050611f85565b60018192509250505b9250929050565b60008083831115611fa35760008091509150611fad565b6001838503915091505b9250929050565b600160009054906101000a900473ffffffffffffffffffffffffffffffffffffffff1673ffffffffffffffffffffffffffffffffffffffff1663e98e7946826040518263ffffffff1660e01b815260040161200f91906124bf565b600060405180830381600087803b15801561202957600080fd5b505af115801561203d573d6000803e3d6000fd5b5050505050565b82805482825590600052602060002090600f016010900481019282156120e15791602002820160005b838211156120b157833561ffff1683826101000a81548161ffff021916908361ffff160217905550926020019260020160208160010104928301926001030261206d565b80156120df5782816101000a81549061ffff02191690556002016020816001010492830192600103026120b1565b505b5090506120ee91906120f2565b5090565b5b8082111561210b5760008160009055506001016120f3565b5090565b600080fd5b600080fd5b600061ffff82169050919050565b61213081612119565b811461213b57600080fd5b50565b60008135905061214d81612127565b92915050565b6000602082840312156121695761216861210f565b5b60006121778482850161213e565b91505092915050565b600073ffffffffffffffffffffffffffffffffffffffff82169050919050565b60006121ab82612180565b9050919050565b6121bb816121a0565b82525050565b60006020820190506121d660008301846121b2565b92915050565b600080fd5b600080fd5b600080fd5b60008083601f840112612201576122006121dc565b5b8235905067ffffffffffffffff81111561221e5761221d6121e1565b5b60208301915083602082028301111561223a576122396121e6565b5b9250929050565b60008115159050919050565b61225681612241565b811461226157600080fd5b50565b6000813590506122738161224d565b92915050565b600080600080606085870312156122935761229261210f565b5b60006122a18782880161213e565b945050602085013567ffffffffffffffff8111156122c2576122c1612114565b5b6122ce878288016121eb565b935093505060406122e187828801612264565b91505092959194509250565b6122f6816121a0565b811461230157600080fd5b50565b600081359050612313816122ed565b92915050565b600080604083850312156123305761232f61210f565b5b600061233e8582860161213e565b925050602061234f85828601612304565b9150509250929050565b60006020828403121561236f5761236e61210f565b5b600061237d84828501612304565b91505092915050565b6000806040838503121561239d5761239c61210f565b5b60006123ab8582860161213e565b92505060206123bc8582860161213e565b9150509250929050565b6000819050919050565b6123d9816123c6565b81146123e457600080fd5b50565b6000813590506123f6816123d0565b92915050565b6000806000606084860312156124155761241461210f565b5b60006124238682870161213e565b9350506020612434868287016123e7565b9250506040612445868287016123e7565b9150509250925092565b600060ff82169050919050565b6124658161244f565b82525050565b6000602082019050612480600083018461245c565b92915050565b61248f816123c6565b82525050565b60006020820190506124aa6000830184612486565b92915050565b6124b981612119565b82525050565b60006020820190506124d460008301846124b0565b92915050565b6000602082840312156124f0576124ef61210f565b5b60006124fe848285016123e7565b91505092915050565b61251081612241565b82525050565b600060208201905061252b6000830184612507565b92915050565b600080604083850312156125485761254761210f565b5b60006125568582860161213e565b9250506020612567858286016123e7565b9150509250929050565b600082825260208201905092915050565b7f6f7261636c65206f6e6c79000000000000000000000000000000000000000000600082015250565b60006125b8600b83612571565b91506125c382612582565b602082019050919050565b600060208201905081810360008301526125e7816125ab565b9050919050565b7f636f6e74726163742069732064697361626c6564000000000000000000000000600082015250565b6000612624601483612571565b915061262f826125ee565b602082019050919050565b6000602082019050818103600083015261265381612617565b9050919050565b7f6465702073697a65206973206f76657220616c6c6f7765642073697a65000000600082015250565b6000612690601d83612571565b915061269b8261265a565b602082019050919050565b600060208201905081810360008301526126bf81612683565b9050919050565b7f616e6f7468657220646973747269627574696f6e20696e2070726f677265737360008201527f20666f722070726f6a6563740000000000000000000000000000000000000000602082015250565b6000612722602c83612571565b915061272d826126c6565b604082019050919050565b6000602082019050818103600083015261275181612715565b9050919050565b7f4e487b7100000000000000000000000000000000000000000000000000000000600052603260045260246000fd5b7f4e487b7100000000000000000000000000000000000000000000000000000000600052601160045260246000fd5b60006127c1826123c6565b91507fffffffffffffffffffffffffffffffffffffffffffffffffffffffffffffffff82036127f3576127f2612787565b5b600182019050919050565b7f70726f6a656374206f776e6572206f6e6c790000000000000000000000000000600082015250565b6000612834601283612571565b915061283f826127fe565b602082019050919050565b6000602082019050818103600083015261286381612827565b9050919050565b7f6f776e6572206f6e6c7900000000000000000000000000000000000000000000600082015250565b60006128a0600a83612571565b91506128ab8261286a565b602082019050919050565b600060208201905081810360008301526128cf81612893565b9050919050565b7f6f7261636c652073686f756c6420626520646966666572656e742066726f6d2060008201527f6f776e6572000000000000000000000000000000000000000000000000000000602082015250565b6000612932602583612571565b915061293d826128d6565b604082019050919050565b6000602082019050818103600083015261296181612925565b9050919050565b7f6e6f2066756e6420746f20646f6e617465000000000000000000000000000000600082015250565b600061299e601183612571565b91506129a982612968565b602082019050919050565b600060208201905081810360008301526129cd81612991565b9050919050565b7f6578697374696e672073706f6e736f7273686970207265717565737400000000600082015250565b6000612a0a601c83612571565b9150612a15826129d4565b602082019050919050565b60006020820190508181036000830152612a39816129fd565b9050919050565b7f696e76616c69642073706f6e736f727368697020726571756573740000000000600082015250565b6000612a76601b83612571565b9150612a8182612a40565b602082019050919050565b60006020820190508181036000830152612aa581612a69565b9050919050565b6000612ab7826123c6565b9150612ac2836123c6565b925082821015612ad557612ad4612787565b5b828203905092915050565b6000612aeb826123c6565b9150612af6836123c6565b9250827fffffffffffffffffffffffffffffffffffffffffffffffffffffffffffffffff03821115612b2b57612b2a612787565b5b828201905092915050565b6000612b418261244f565b9150612b4c8361244f565b925082821015612b5f57612b5e612787565b5b828203905092915050565b6000612b75826123c6565b9150612b80836123c6565b9250817fffffffffffffffffffffffffffffffffffffffffffffffffffffffffffffffff0483118215151615612bb957612bb8612787565b5b828202905092915050565b7f4e487b7100000000000000000000000000000000000000000000000000000000600052601260045260246000fd5b6000612bfe826123c6565b9150612c09836123c6565b925082612c1957612c18612bc4565b5b828204905092915050565b7f646973747269627574652062616c616e6365206572726f720000000000000000600082015250565b6000612c5a601883612571565b9150612c6582612c24565b602082019050919050565b60006020820190508181036000830152612c8981612c4d565b9050919050565b7f63616c63756c6174652072656d61696e696e672062616c616e6365206572726f60008201527f7200000000000000000000000000000000000000000000000000000000000000602082015250565b6000612cec602183612571565b9150612cf782612c90565b604082019050919050565b60006020820190508181036000830152612d1b81612cdf565b9050919050565b7f646973747269627574652072656d61696e696e672062616c616e63652065727260008201527f6f72000000000000000000000000000000000000000000000000000000000000602082015250565b6000612d7e602283612571565b9150612d8982612d22565b604082019050919050565b60006020820190508181036000830152612dad81612d71565b9050919050565b7f6e6f2066756e6420666f722070726f6a65637400000000000000000000000000600082015250565b6000612dea601383612571565b9150612df582612db4565b602082019050919050565b60006020820190508181036000830152612e1981612ddd565b9050919050565b7f73756274726163742062616c616e6365206572726f7200000000000000000000600082015250565b6000612e56601683612571565b9150612e6182612e20565b602082019050919050565b60006020820190508181036000830152612e8581612e49565b9050919050565b600081905092915050565b50565b6000612ea7600083612e8c565b9150612eb282612e97565b600082019050919050565b6000612ec882612e9a565b9150819050919050565b7f72656465656d207472616e73616374696f6e206572726f720000000000000000600082015250565b6000612f08601883612571565b9150612f1382612ed2565b602082019050919050565b60006020820190508181036000830152612f3781612efb565b9050919050565b7f7768656e20636f6e74726163742069732064697361626c6564206f6e6c790000600082015250565b6000612f74601e83612571565b9150612f7f82612f3e565b602082019050919050565b60006020820190508181036000830152612fa381612f67565b9050919050565b7f696e76616c6964206d6967726174696f6e206164647265737300000000000000600082015250565b6000612fe0601983612571565b9150612feb82612faa565b602082019050919050565b6000602082019050818103600083015261300f81612fd3565b9050919050565b7f66756e64206d6967726174696f6e206572726f72000000000000000000000000600082015250565b600061304c601483612571565b915061305782613016565b602082019050919050565b6000602082019050818103600083015261307b8161303f565b905091905056fea264697066735822122093a70f3a66b6cba88b68ce30d52e066f2515895806d5a7c5abe6ded67768c9d564736f6c634300080f0033",
  "immutableReferences": {},
  "source": "// SPDX-License-Identifier: MIT\npragma solidity >=0.4.22 <0.9.0;\n\nimport \"./OSPOracle.sol\";\n\nimport \"@openzeppelin/contracts/utils/math/SafeMath.sol\";\n\ncontract OpenSourcePizza is OSPOracleClient {\n  bool public disabled = true;\n\n  uint8 public projectOwnerWeight = 50;\n  uint public singleCallMaxDepsSize = 100;\n\n  // projectID to projectIDs mapping for project dependencies.\n  mapping(uint16 => uint16[]) public projectDependencies;\n\n  /// projectID to project owner address mapping.\n  mapping(uint16 => address) public projectOwners;\n\n  /// requestID to projectID mapping.\n  mapping(uint16 => uint16) public sponsorRequests;\n  /// requestID to total sponsor amount mapping.\n  mapping(uint16 => uint256) public sponsorRequestAmounts;\n  /// requestID to remaining undistributed amount mapping.\n  mapping(uint16 => uint256) public undistributedAmounts;\n  /// projectIDs mapping for projects that are in the process of fund distribution.\n  mapping(uint16 => bool) public distributionInProgress;\n\n  mapping(uint16 => uint256) public distribution;\n\n  /// Addresses for locked project fund to be transferred out in case of contract migration.\n  mapping(uint16 => address) public fundMigrations;\n\n  modifier onlyOwner {\n    require(msg.sender == owner, \"owner only\");\n    _;\n  }\n\n  modifier onlyOracle {\n    require(msg.sender == oracle, \"oracle only\");\n    _;\n  }\n\n  modifier onlyProjectOwner(uint16 projectID) {\n    require(projectOwners[projectID] == msg.sender, \"project owner only\");\n    _;\n  }\n\n  modifier onlyEnabled {\n    require(disabled == false, \"contract is disabled\");\n    _;\n  }\n\n  function updateOracle(address oc) override public onlyOwner {\n    oracle = oc;\n  }\n\n  function updateSingleCallMaxDepsSize(uint size) public onlyOwner {\n    singleCallMaxDepsSize = size;\n  }\n\n  function disableContract() public onlyOwner {\n    disabled = true;\n  }\n\n  function enableContract() public onlyOwner {\n    require(oracle != address(0), \"oracle should be different from owner\");\n    disabled = false;\n  }\n\n  function register(uint16 projectID) public onlyEnabled {\n    requestRegisterFromOracle(projectID);\n  }\n\n  function donateToProject(uint16 projectID, uint16 requestID) public payable onlyEnabled {\n    require(msg.value > 0, \"no fund to donate\");\n    require(sponsorRequests[requestID] == uint16(0), \"existing sponsorship request\");\n    require(sponsorRequestAmounts[requestID] == uint16(0), \"existing sponsorship request\");\n    require(undistributedAmounts[requestID] == uint16(0), \"existing sponsorship request\");\n\n    sponsorRequests[requestID] = projectID;\n    sponsorRequestAmounts[requestID] = msg.value;\n    undistributedAmounts[requestID] = msg.value;\n    requestDonateFromOracle(requestID);\n  }\n\n  function redeem(uint16 projectID) public payable onlyEnabled onlyProjectOwner(projectID) {\n    require(distribution[projectID] > 0, \"no fund for project\");\n\n    uint256 transferValue = distribution[projectID];\n    (bool ok, uint256 newBalance) = SafeMath.trySub(distribution[projectID], transferValue);\n    require(ok, \"subtract balance error\");\n\n    distribution[projectID] = newBalance;\n    (bool redeemOK, bytes memory result) =  msg.sender.call{value: transferValue}(\"\");\n    require(redeemOK, \"redeem transaction error\");\n  }\n\n  function registerProject(uint16 projectID, address addr) public override onlyOracle onlyEnabled {\n    projectOwners[projectID] = addr;\n  }\n\n  /// Updates the distribution mapping from the sponsor request amount,\n  /// so that project owners can later redeem the fund.\n  /// This function may be called several times for a given sponsorship request,\n  /// in case the dependency list of the project is too large to be handled in a single transaction.\n  /// @param requestID is the request to distribute locked fund for.\n  /// @param fromDepIdx the starting index(inclusive) of the dependent projectID to distribute the fund to.\n  /// @param toDepIdx the ending index(inclusive) of the dependent projectID to distribute the fund to.\n  function distribute(uint16 requestID, uint fromDepIdx, uint toDepIdx) public override onlyOracle onlyEnabled {\n    // Make sure there's undistributed fund for this sponsor request.\n    require(sponsorRequests[requestID] > 0, \"invalid sponsorship request\");\n    require(sponsorRequestAmounts[requestID] > 0, \"invalid sponsorship request\");\n    require(undistributedAmounts[requestID] > 0, \"invalid sponsorship request\");\n\n    uint16 sourceProjectID = sponsorRequests[requestID];\n    if (toDepIdx == 0) {\n      // Distribute among the entire dependency list.\n      fromDepIdx = 0;\n      toDepIdx = projectDependencies[sourceProjectID].length - 1;\n    }\n    // Distribute to a maximum number of dependent projects in a single transaction.\n    require(toDepIdx - fromDepIdx + 1 <= singleCallMaxDepsSize, \"dep size is over allowed size\");\n    distributionInProgress[requestID] = true;\n \n    uint256 remaining = undistributedAmounts[requestID];\n    uint256 singleDepShare = sponsorRequestAmounts[requestID] * (100 - projectOwnerWeight) / 100 / projectDependencies[sourceProjectID].length;\n    for (uint i = fromDepIdx; i <= toDepIdx; i++) {\n      uint16 depProjectID = projectDependencies[sourceProjectID][i];\n      (bool addOK, uint256 newDepBalance) = SafeMath.tryAdd(distribution[depProjectID], singleDepShare);\n      require(addOK, \"distribute balance error\");\n      distribution[depProjectID] = newDepBalance;\n\n      (bool subOK, uint256 newRemaining) = SafeMath.trySub(remaining, singleDepShare);\n      require(subOK, \"calculate remaining balance error\");\n      remaining = newRemaining;\n    }\n    undistributedAmounts[requestID] = remaining;\n\n    // Only distributes to source project when all dependent funds have been distributed.\n    if (toDepIdx == projectDependencies[sourceProjectID].length - 1) {\n      // Give source project the remaining fund, only if distribution among dependents are successful.\n      (bool ok, uint256 newBalance) = SafeMath.tryAdd(distribution[sourceProjectID], remaining);\n      require(ok, \"distribute remaining balance error\");\n      distribution[sourceProjectID] = newBalance;\n\n      // Reset request params.\n      sponsorRequests[requestID] = 0;\n      sponsorRequestAmounts[requestID] = 0;\n      undistributedAmounts[requestID] = 0;\n      distributionInProgress[requestID] = false;\n    }\n  }\n\n  function updateDeps(\n    uint16 projectID,\n    uint16[] calldata deps,\n    bool isReplace\n  ) external override onlyOracle onlyEnabled {\n    require(deps.length <= singleCallMaxDepsSize, \"dep size is over allowed size\");\n    require(distributionInProgress[projectID] == false, \"another distribution in progress for project\");\n\n    // Replace dependencies.\n    if (isReplace || projectDependencies[projectID].length == 0) {\n      projectDependencies[projectID] = deps;\n      return;\n    }\n\n    // Append to existing dependencies\n    for (uint i = 0; i < deps.length; i++) {\n      projectDependencies[projectID].push(deps[i]);\n    }\n  }\n\n  // Set up migration addresses for locked fund to be transferred out.\n  function updateMigrationAddress(uint16 projectID, address mAddr) public onlyProjectOwner(projectID) {\n    fundMigrations[projectID] = mAddr;\n  }\n\n  // Transfer locked fund in case of contract migration.\n  function migrateFunds(uint16 projectID) public onlyOwner {\n    require(disabled, \"when contract is disabled only\");\n    require(distribution[projectID] > 0, \"no fund for project\");\n    require(fundMigrations[projectID] != address(0), \"invalid migration address\");\n\n    (bool ok, bytes memory result) = payable(fundMigrations[projectID]).call{value: distribution[projectID]}(\"\");\n    require(ok, \"fund migration error\");\n  }\n}\n",
  "sourcePath": "/Users/yinlokwong/Documents/unsw/comp6452/project2/open-source-pizza/contracts/OpenSourcePizza.sol",
  "compiler": {
    "name": "solc",
    "version": "0.8.15+commit.e14f2714.Emscripten.clang"
  },
  "schemaVersion": "3.4.8",
  "updatedAt": "2022-07-20T01:30:30.198Z",
  "devdoc": {
    "kind": "dev",
    "methods": {
      "distribute(uint16,uint256,uint256)": {
        "params": {
          "fromDepIdx": "the starting index(inclusive) of the dependent projectID to distribute the fund to.",
          "requestID": "is the request to distribute locked fund for.",
          "toDepIdx": "the ending index(inclusive) of the dependent projectID to distribute the fund to."
        }
      }
    },
    "version": 1
  },
  "userdoc": {
    "kind": "user",
    "methods": {
      "distribute(uint16,uint256,uint256)": {
        "notice": "Updates the distribution mapping from the sponsor request amount, so that project owners can later redeem the fund. This function may be called several times for a given sponsorship request, in case the dependency list of the project is too large to be handled in a single transaction."
      },
      "distributionInProgress(uint16)": {
        "notice": "projectIDs mapping for projects that are in the process of fund distribution."
      },
      "fundMigrations(uint16)": {
        "notice": "Addresses for locked project fund to be transferred out in case of contract migration."
      },
      "projectOwners(uint16)": {
        "notice": "projectID to project owner address mapping."
      },
      "sponsorRequestAmounts(uint16)": {
        "notice": "requestID to total sponsor amount mapping."
      },
      "sponsorRequests(uint16)": {
        "notice": "requestID to projectID mapping."
      },
      "undistributedAmounts(uint16)": {
        "notice": "requestID to remaining undistributed amount mapping."
      }
    },
    "version": 1
  }
}