{
  "contractName": "OpenSourcePizzaOracle",
  "abi": [
    {
      "inputs": [
        {
          "internalType": "address",
          "name": "caller",
          "type": "address"
        }
      ],
      "stateMutability": "nonpayable",
      "type": "constructor"
    },
    {
      "anonymous": false,
      "inputs": [
        {
          "indexed": false,
          "internalType": "uint16",
          "name": "requestID",
          "type": "uint16"
        }
      ],
      "name": "DonateEvent",
      "type": "event"
    },
    {
      "anonymous": false,
      "inputs": [
        {
          "indexed": false,
          "internalType": "uint16",
          "name": "projectID",
          "type": "uint16"
        }
      ],
      "name": "RegisterEvent",
      "type": "event"
    },
    {
      "inputs": [
        {
          "internalType": "uint16",
          "name": "requestID",
          "type": "uint16"
        }
      ],
      "name": "requestDonate",
      "outputs": [],
      "stateMutability": "nonpayable",
      "type": "function"
    },
    {
      "inputs": [
        {
          "internalType": "uint16",
          "name": "projectID",
          "type": "uint16"
        }
      ],
      "name": "requestRegister",
      "outputs": [],
      "stateMutability": "nonpayable",
      "type": "function"
    },
    {
      "inputs": [
        {
          "internalType": "address",
          "name": "c",
          "type": "address"
        }
      ],
      "name": "updateCaller",
      "outputs": [],
      "stateMutability": "nonpayable",
      "type": "function"
    },
    {
      "inputs": [
        {
          "internalType": "uint16",
          "name": "projectID",
          "type": "uint16"
        },
        {
          "internalType": "address",
          "name": "addr",
          "type": "address"
        }
      ],
      "name": "replyRegister",
      "outputs": [],
      "stateMutability": "nonpayable",
      "type": "function"
    },
    {
      "inputs": [
        {
          "internalType": "uint16",
          "name": "projectID",
          "type": "uint16"
        },
        {
          "internalType": "uint16[]",
          "name": "deps",
          "type": "uint16[]"
        },
        {
          "internalType": "bool",
          "name": "isReplace",
          "type": "bool"
        }
      ],
      "name": "replySyncUpdateDeps",
      "outputs": [],
      "stateMutability": "nonpayable",
      "type": "function"
    },
    {
      "inputs": [
        {
          "internalType": "uint16",
          "name": "requestID",
          "type": "uint16"
        },
        {
          "internalType": "uint16",
          "name": "split",
          "type": "uint16"
        },
        {
          "internalType": "uint256",
          "name": "fromDepIdx",
          "type": "uint256"
        },
        {
          "internalType": "uint256",
          "name": "toDepIdx",
          "type": "uint256"
        }
      ],
      "name": "replySyncDistribute",
      "outputs": [],
      "stateMutability": "nonpayable",
      "type": "function"
    },
    {
      "inputs": [],
      "name": "shutdown",
      "outputs": [],
      "stateMutability": "nonpayable",
      "type": "function"
    }
  ],
  "bytecode": "0x608060405234801561001057600080fd5b50604051610be9380380610be98339818101604052810190610032919061011e565b80806000806101000a81548173ffffffffffffffffffffffffffffffffffffffff021916908373ffffffffffffffffffffffffffffffffffffffff1602179055505033600160006101000a81548173ffffffffffffffffffffffffffffffffffffffff021916908373ffffffffffffffffffffffffffffffffffffffff1602179055505061014b565b600080fd5b600073ffffffffffffffffffffffffffffffffffffffff82169050919050565b60006100eb826100c0565b9050919050565b6100fb816100e0565b811461010657600080fd5b50565b600081519050610118816100f2565b92915050565b600060208284031215610134576101336100bb565b5b600061014284828501610109565b91505092915050565b610a8f8061015a6000396000f3fe608060405234801561001057600080fd5b506004361061007d5760003560e01c80639b9df99b1161005b5780639b9df99b146100d6578063ca9b2603146100f2578063e98e79461461010e578063fc0e74d11461012a5761007d565b8063811f880d146100825780638663cebe1461009e57806386670f2e146100ba575b600080fd5b61009c60048036038101906100979190610688565b610134565b005b6100b860048036038101906100b39190610732565b610225565b005b6100d460048036038101906100cf9190610799565b610316565b005b6100f060048036038101906100eb9190610824565b610350565b005b61010c60048036038101906101079190610851565b6103ed565b005b61012860048036038101906101239190610799565b6104d8565b005b610132610512565b005b600160009054906101000a900473ffffffffffffffffffffffffffffffffffffffff1673ffffffffffffffffffffffffffffffffffffffff163373ffffffffffffffffffffffffffffffffffffffff161461018e57600080fd5b60008054906101000a900473ffffffffffffffffffffffffffffffffffffffff1673ffffffffffffffffffffffffffffffffffffffff166311e48077858585856040518563ffffffff1660e01b81526004016101ed9493929190610972565b600060405180830381600087803b15801561020757600080fd5b505af115801561021b573d6000803e3d6000fd5b5050505050505050565b600160009054906101000a900473ffffffffffffffffffffffffffffffffffffffff1673ffffffffffffffffffffffffffffffffffffffff163373ffffffffffffffffffffffffffffffffffffffff161461027f57600080fd5b60008054906101000a900473ffffffffffffffffffffffffffffffffffffffff1673ffffffffffffffffffffffffffffffffffffffff1663ba3af6ed858585856040518563ffffffff1660e01b81526004016102de94939291906109c1565b600060405180830381600087803b1580156102f857600080fd5b505af115801561030c573d6000803e3d6000fd5b5050505050505050565b7fe4e666bebfe73907c152b79f4773434caa07407680d76809cd63b75bc4caac5d816040516103459190610a06565b60405180910390a150565b600160009054906101000a900473ffffffffffffffffffffffffffffffffffffffff1673ffffffffffffffffffffffffffffffffffffffff163373ffffffffffffffffffffffffffffffffffffffff16146103aa57600080fd5b806000806101000a81548173ffffffffffffffffffffffffffffffffffffffff021916908373ffffffffffffffffffffffffffffffffffffffff16021790555050565b600160009054906101000a900473ffffffffffffffffffffffffffffffffffffffff1673ffffffffffffffffffffffffffffffffffffffff163373ffffffffffffffffffffffffffffffffffffffff161461044757600080fd5b60008054906101000a900473ffffffffffffffffffffffffffffffffffffffff1673ffffffffffffffffffffffffffffffffffffffff1663af64438c83836040518363ffffffff1660e01b81526004016104a2929190610a30565b600060405180830381600087803b1580156104bc57600080fd5b505af11580156104d0573d6000803e3d6000fd5b505050505050565b7fda9ff91ffb3fb7ecc0fc804eb17887ce89c15d23f18cc63061444cea6924b8b8816040516105079190610a06565b60405180910390a150565b600160009054906101000a900473ffffffffffffffffffffffffffffffffffffffff1673ffffffffffffffffffffffffffffffffffffffff163373ffffffffffffffffffffffffffffffffffffffff161461056c57600080fd5b600160009054906101000a900473ffffffffffffffffffffffffffffffffffffffff1673ffffffffffffffffffffffffffffffffffffffff16ff5b600080fd5b600080fd5b600061ffff82169050919050565b6105c8816105b1565b81146105d357600080fd5b50565b6000813590506105e5816105bf565b92915050565b600080fd5b600080fd5b600080fd5b60008083601f8401126106105761060f6105eb565b5b8235905067ffffffffffffffff81111561062d5761062c6105f0565b5b602083019150836020820283011115610649576106486105f5565b5b9250929050565b60008115159050919050565b61066581610650565b811461067057600080fd5b50565b6000813590506106828161065c565b92915050565b600080600080606085870312156106a2576106a16105a7565b5b60006106b0878288016105d6565b945050602085013567ffffffffffffffff8111156106d1576106d06105ac565b5b6106dd878288016105fa565b935093505060406106f087828801610673565b91505092959194509250565b6000819050919050565b61070f816106fc565b811461071a57600080fd5b50565b60008135905061072c81610706565b92915050565b6000806000806080858703121561074c5761074b6105a7565b5b600061075a878288016105d6565b945050602061076b878288016105d6565b935050604061077c8782880161071d565b925050606061078d8782880161071d565b91505092959194509250565b6000602082840312156107af576107ae6105a7565b5b60006107bd848285016105d6565b91505092915050565b600073ffffffffffffffffffffffffffffffffffffffff82169050919050565b60006107f1826107c6565b9050919050565b610801816107e6565b811461080c57600080fd5b50565b60008135905061081e816107f8565b92915050565b60006020828403121561083a576108396105a7565b5b60006108488482850161080f565b91505092915050565b60008060408385031215610868576108676105a7565b5b6000610876858286016105d6565b92505060206108878582860161080f565b9150509250929050565b61089a816105b1565b82525050565b600082825260208201905092915050565b6000819050919050565b6108c4816105b1565b82525050565b60006108d683836108bb565b60208301905092915050565b60006108f160208401846105d6565b905092915050565b6000602082019050919050565b600061091283856108a0565b935061091d826108b1565b8060005b858110156109565761093382846108e2565b61093d88826108ca565b9750610948836108f9565b925050600181019050610921565b5085925050509392505050565b61096c81610650565b82525050565b60006060820190506109876000830187610891565b818103602083015261099a818587610906565b90506109a96040830184610963565b95945050505050565b6109bb816106fc565b82525050565b60006080820190506109d66000830187610891565b6109e36020830186610891565b6109f060408301856109b2565b6109fd60608301846109b2565b95945050505050565b6000602082019050610a1b6000830184610891565b92915050565b610a2a816107e6565b82525050565b6000604082019050610a456000830185610891565b610a526020830184610a21565b939250505056fea2646970667358221220aab3c21774c689f2e3c615897a58753ab263a04f7ac791ec34ca434b4a01a01464736f6c634300080f0033",
  "immutableReferences": {},
  "source": "// SPDX-License-Identifier: MIT\npragma solidity >=0.4.22 <0.9.0;\n\nimport \"./OSPOracle.sol\";\n\ncontract OpenSourcePizzaOracle is OSPOracle {\n  address owner;\n\n  modifier onlyOwner {\n    require(msg.sender == owner);\n    _;\n  }\n\n  constructor(address caller) OSPOracle(caller) {\n    owner = msg.sender;\n  }\n\n  function updateCaller(address c) external onlyOwner {\n    caller = c;\n  }\n\n  function replyRegister(uint16 projectID, address addr) override public onlyOwner {\n    OSPOracleClient(caller).registerProject(projectID, addr);\n  }\n\n  function replySyncUpdateDeps(uint16 projectID, uint16[] calldata deps, bool isReplace) override public onlyOwner {\n    OSPOracleClient(caller).updateDeps(projectID, deps, isReplace);\n  }\n\n  function replySyncDistribute(uint16 requestID, uint16 split, uint fromDepIdx, uint toDepIdx) override public onlyOwner {\n    OSPOracleClient(caller).distribute(requestID, split, fromDepIdx, toDepIdx);\n  }\n\n  function shutdown() external onlyOwner {\n    selfdestruct(payable(owner));\n  }\n}\n",
  "sourcePath": "/Users/yinlokwong/Documents/unsw/comp6452/project2/open-source-pizza/contracts/OpenSourcePizzaOracle.sol",
  "compiler": {
    "name": "solc",
    "version": "0.8.15+commit.e14f2714.Emscripten.clang"
  },
  "schemaVersion": "3.4.8",
  "updatedAt": "2022-07-18T00:55:25.676Z",
  "devdoc": {
    "kind": "dev",
    "methods": {},
    "version": 1
  },
  "userdoc": {
    "kind": "user",
    "methods": {},
    "version": 1
  }
}