{
  "contractName": "OpenSourcePizzaOracle",
  "abi": [
    {
      "inputs": [
        {
          "internalType": "address",
          "name": "caller",
          "type": "address"
        }
      ],
      "stateMutability": "nonpayable",
      "type": "constructor"
    },
    {
      "anonymous": false,
      "inputs": [
        {
          "indexed": false,
          "internalType": "uint32",
          "name": "requestID",
          "type": "uint32"
        }
      ],
      "name": "DonateEvent",
      "type": "event"
    },
    {
      "anonymous": false,
      "inputs": [
        {
          "indexed": false,
          "internalType": "uint32",
          "name": "projectID",
          "type": "uint32"
        }
      ],
      "name": "RegisterEvent",
      "type": "event"
    },
    {
      "inputs": [],
      "name": "caller",
      "outputs": [
        {
          "internalType": "address",
          "name": "",
          "type": "address"
        }
      ],
      "stateMutability": "view",
      "type": "function"
    },
    {
      "inputs": [],
      "name": "owner",
      "outputs": [
        {
          "internalType": "address",
          "name": "",
          "type": "address"
        }
      ],
      "stateMutability": "view",
      "type": "function"
    },
    {
      "inputs": [
        {
          "internalType": "uint32",
          "name": "requestID",
          "type": "uint32"
        }
      ],
      "name": "requestDonate",
      "outputs": [],
      "stateMutability": "nonpayable",
      "type": "function"
    },
    {
      "inputs": [
        {
          "internalType": "uint32",
          "name": "projectID",
          "type": "uint32"
        }
      ],
      "name": "requestRegister",
      "outputs": [],
      "stateMutability": "nonpayable",
      "type": "function"
    },
    {
      "inputs": [
        {
          "internalType": "address",
          "name": "c",
          "type": "address"
        }
      ],
      "name": "updateCaller",
      "outputs": [],
      "stateMutability": "nonpayable",
      "type": "function"
    },
    {
      "inputs": [
        {
          "internalType": "uint32",
          "name": "projectID",
          "type": "uint32"
        },
        {
          "internalType": "address",
          "name": "addr",
          "type": "address"
        }
      ],
      "name": "replyRegister",
      "outputs": [],
      "stateMutability": "nonpayable",
      "type": "function"
    },
    {
      "inputs": [
        {
          "internalType": "uint32",
          "name": "projectID",
          "type": "uint32"
        },
        {
          "internalType": "uint32[]",
          "name": "deps",
          "type": "uint32[]"
        },
        {
          "internalType": "bool",
          "name": "isReplace",
          "type": "bool"
        }
      ],
      "name": "replyDonateUpdateDeps",
      "outputs": [],
      "stateMutability": "nonpayable",
      "type": "function"
    },
    {
      "inputs": [
        {
          "internalType": "uint32",
          "name": "requestID",
          "type": "uint32"
        },
        {
          "internalType": "uint256",
          "name": "fromDepIdx",
          "type": "uint256"
        },
        {
          "internalType": "uint256",
          "name": "toDepIdx",
          "type": "uint256"
        }
      ],
      "name": "replyDonateDistribute",
      "outputs": [],
      "stateMutability": "nonpayable",
      "type": "function"
    },
    {
      "inputs": [],
      "name": "shutdown",
      "outputs": [],
      "stateMutability": "nonpayable",
      "type": "function"
    }
  ],
  "bytecode": "0x608060405234801561001057600080fd5b50604051610e03380380610e038339818101604052810190610032919061011e565b80336000806101000a81548173ffffffffffffffffffffffffffffffffffffffff021916908373ffffffffffffffffffffffffffffffffffffffff16021790555080600160006101000a81548173ffffffffffffffffffffffffffffffffffffffff021916908373ffffffffffffffffffffffffffffffffffffffff160217905550505061014b565b600080fd5b600073ffffffffffffffffffffffffffffffffffffffff82169050919050565b60006100eb826100c0565b9050919050565b6100fb816100e0565b811461010657600080fd5b50565b600081519050610118816100f2565b92915050565b600060208284031215610134576101336100bb565b5b600061014284828501610109565b91505092915050565b610ca98061015a6000396000f3fe608060405234801561001057600080fd5b50600436106100935760003560e01c80639d72237a116100665780639d72237a1461010a578063c4276e0614610126578063dc9fbad614610142578063fc0e74d11461015e578063fc9c8d391461016857610093565b80637d8e112b146100985780638da5cb5b146100b4578063912e36b1146100d25780639b9df99b146100ee575b600080fd5b6100b260048036038101906100ad919061082c565b610186565b005b6100bc6102ad565b6040516100c991906108e1565b60405180910390f35b6100ec60048036038101906100e79190610928565b6102d1565b005b61010860048036038101906101039190610968565b6103f2565b005b610124600480360381019061011f91906109cb565b6104c4565b005b610140600480360381019061013b9190610a1e565b6105e8565b005b61015c60048036038101906101579190610a1e565b610622565b005b61016661065c565b005b610170610723565b60405161017d91906108e1565b60405180910390f35b60008054906101000a900473ffffffffffffffffffffffffffffffffffffffff1673ffffffffffffffffffffffffffffffffffffffff163373ffffffffffffffffffffffffffffffffffffffff1614610214576040517f08c379a000000000000000000000000000000000000000000000000000000000815260040161020b90610aa8565b60405180910390fd5b600160009054906101000a900473ffffffffffffffffffffffffffffffffffffffff1673ffffffffffffffffffffffffffffffffffffffff1663770ddbc7858585856040518563ffffffff1660e01b81526004016102759493929190610ba9565b600060405180830381600087803b15801561028f57600080fd5b505af11580156102a3573d6000803e3d6000fd5b5050505050505050565b60008054906101000a900473ffffffffffffffffffffffffffffffffffffffff1681565b60008054906101000a900473ffffffffffffffffffffffffffffffffffffffff1673ffffffffffffffffffffffffffffffffffffffff163373ffffffffffffffffffffffffffffffffffffffff161461035f576040517f08c379a000000000000000000000000000000000000000000000000000000000815260040161035690610aa8565b60405180910390fd5b600160009054906101000a900473ffffffffffffffffffffffffffffffffffffffff1673ffffffffffffffffffffffffffffffffffffffff16635695866a83836040518363ffffffff1660e01b81526004016103bc929190610be9565b600060405180830381600087803b1580156103d657600080fd5b505af11580156103ea573d6000803e3d6000fd5b505050505050565b60008054906101000a900473ffffffffffffffffffffffffffffffffffffffff1673ffffffffffffffffffffffffffffffffffffffff163373ffffffffffffffffffffffffffffffffffffffff1614610480576040517f08c379a000000000000000000000000000000000000000000000000000000000815260040161047790610aa8565b60405180910390fd5b80600160006101000a81548173ffffffffffffffffffffffffffffffffffffffff021916908373ffffffffffffffffffffffffffffffffffffffff16021790555050565b60008054906101000a900473ffffffffffffffffffffffffffffffffffffffff1673ffffffffffffffffffffffffffffffffffffffff163373ffffffffffffffffffffffffffffffffffffffff1614610552576040517f08c379a000000000000000000000000000000000000000000000000000000000815260040161054990610aa8565b60405180910390fd5b600160009054906101000a900473ffffffffffffffffffffffffffffffffffffffff1673ffffffffffffffffffffffffffffffffffffffff1663c31c4dd38484846040518463ffffffff1660e01b81526004016105b193929190610c21565b600060405180830381600087803b1580156105cb57600080fd5b505af11580156105df573d6000803e3d6000fd5b50505050505050565b7f97d393fa41ea9cfe7c552638d83f5f7ffdc7f3d98458567c970d835e09db09a2816040516106179190610c58565b60405180910390a150565b7faf0166b90544c523876af83989dd9e797170d6b16caf311a714971e69e1804f8816040516106519190610c58565b60405180910390a150565b60008054906101000a900473ffffffffffffffffffffffffffffffffffffffff1673ffffffffffffffffffffffffffffffffffffffff163373ffffffffffffffffffffffffffffffffffffffff16146106ea576040517f08c379a00000000000000000000000000000000000000000000000000000000081526004016106e190610aa8565b60405180910390fd5b60008054906101000a900473ffffffffffffffffffffffffffffffffffffffff1673ffffffffffffffffffffffffffffffffffffffff16ff5b600160009054906101000a900473ffffffffffffffffffffffffffffffffffffffff1681565b600080fd5b600080fd5b600063ffffffff82169050919050565b61076c81610753565b811461077757600080fd5b50565b60008135905061078981610763565b92915050565b600080fd5b600080fd5b600080fd5b60008083601f8401126107b4576107b361078f565b5b8235905067ffffffffffffffff8111156107d1576107d0610794565b5b6020830191508360208202830111156107ed576107ec610799565b5b9250929050565b60008115159050919050565b610809816107f4565b811461081457600080fd5b50565b60008135905061082681610800565b92915050565b6000806000806060858703121561084657610845610749565b5b60006108548782880161077a565b945050602085013567ffffffffffffffff8111156108755761087461074e565b5b6108818782880161079e565b9350935050604061089487828801610817565b91505092959194509250565b600073ffffffffffffffffffffffffffffffffffffffff82169050919050565b60006108cb826108a0565b9050919050565b6108db816108c0565b82525050565b60006020820190506108f660008301846108d2565b92915050565b610905816108c0565b811461091057600080fd5b50565b600081359050610922816108fc565b92915050565b6000806040838503121561093f5761093e610749565b5b600061094d8582860161077a565b925050602061095e85828601610913565b9150509250929050565b60006020828403121561097e5761097d610749565b5b600061098c84828501610913565b91505092915050565b6000819050919050565b6109a881610995565b81146109b357600080fd5b50565b6000813590506109c58161099f565b92915050565b6000806000606084860312156109e4576109e3610749565b5b60006109f28682870161077a565b9350506020610a03868287016109b6565b9250506040610a14868287016109b6565b9150509250925092565b600060208284031215610a3457610a33610749565b5b6000610a428482850161077a565b91505092915050565b600082825260208201905092915050565b7f6f776e6572206f6e6c7900000000000000000000000000000000000000000000600082015250565b6000610a92600a83610a4b565b9150610a9d82610a5c565b602082019050919050565b60006020820190508181036000830152610ac181610a85565b9050919050565b610ad181610753565b82525050565b600082825260208201905092915050565b6000819050919050565b610afb81610753565b82525050565b6000610b0d8383610af2565b60208301905092915050565b6000610b28602084018461077a565b905092915050565b6000602082019050919050565b6000610b498385610ad7565b9350610b5482610ae8565b8060005b85811015610b8d57610b6a8284610b19565b610b748882610b01565b9750610b7f83610b30565b925050600181019050610b58565b5085925050509392505050565b610ba3816107f4565b82525050565b6000606082019050610bbe6000830187610ac8565b8181036020830152610bd1818587610b3d565b9050610be06040830184610b9a565b95945050505050565b6000604082019050610bfe6000830185610ac8565b610c0b60208301846108d2565b9392505050565b610c1b81610995565b82525050565b6000606082019050610c366000830186610ac8565b610c436020830185610c12565b610c506040830184610c12565b949350505050565b6000602082019050610c6d6000830184610ac8565b9291505056fea2646970667358221220a4b05c5cc59c2d99570e9603a7793a67ca9a731d0f4aa0ef21821f8c4cb2778f64736f6c634300080f0033",
  "immutableReferences": {},
  "source": "// SPDX-License-Identifier: MIT\npragma solidity >=0.4.22 <0.9.0;\n\nimport \"./OSPOracle.sol\";\n\ncontract OpenSourcePizzaOracle is OSPOracle {\n  modifier onlyOwner {\n    require(msg.sender == owner, \"owner only\");\n    _;\n  }\n\n  constructor(address caller) OSPOracle(caller) {}\n\n  function updateCaller(address c) public onlyOwner {\n    caller = c;\n  }\n\n  function replyRegister(uint32 projectID, address addr) override public onlyOwner {\n    OSPOracleClient(caller).registerProject(projectID, addr);\n  }\n\n  function replyDonateUpdateDeps(uint32 projectID, uint32[] calldata deps, bool isReplace) override public onlyOwner {\n    OSPOracleClient(caller).updateDeps(projectID, deps, isReplace);\n  }\n\n  function replyDonateDistribute(uint32 requestID, uint fromDepIdx, uint toDepIdx) override public onlyOwner {\n    OSPOracleClient(caller).distribute(requestID, fromDepIdx, toDepIdx);\n  }\n\n  function shutdown() external onlyOwner {\n    selfdestruct(payable(owner));\n  }\n}\n",
  "sourcePath": "/Users/yinlokwong/Documents/unsw/comp6452/project2/open-source-pizza/contracts/OpenSourcePizzaOracle.sol",
  "compiler": {
    "name": "solc",
    "version": "0.8.15+commit.e14f2714.Emscripten.clang"
  },
  "schemaVersion": "3.4.8",
  "updatedAt": "2022-07-24T06:46:01.816Z",
  "devdoc": {
    "kind": "dev",
    "methods": {},
    "version": 1
  },
  "userdoc": {
    "kind": "user",
    "methods": {},
    "version": 1
  }
}